{
  "contractName": "WormHoleCash",
  "abi": [
    {
      "inputs": [],
      "stateMutability": "nonpayable",
      "type": "constructor"
    },
    {
      "anonymous": false,
      "inputs": [
        {
          "indexed": true,
          "internalType": "address",
          "name": "user",
          "type": "address"
        },
        {
          "indexed": false,
          "internalType": "address",
          "name": "outputAddress",
          "type": "address"
        }
      ],
      "name": "OutputAddressSet",
      "type": "event"
    },
    {
      "anonymous": false,
      "inputs": [
        {
          "indexed": false,
          "internalType": "address",
          "name": "",
          "type": "address"
        },
        {
          "indexed": false,
          "internalType": "uint256",
          "name": "",
          "type": "uint256"
        }
      ],
      "name": "Received",
      "type": "event"
    },
    {
      "anonymous": false,
      "inputs": [
        {
          "indexed": true,
          "internalType": "address",
          "name": "user",
          "type": "address"
        },
        {
          "indexed": false,
          "internalType": "enum WormHoleCash.Steps",
          "name": "previousStatus",
          "type": "uint8"
        },
        {
          "indexed": false,
          "internalType": "enum WormHoleCash.Steps",
          "name": "newStatus",
          "type": "uint8"
        }
      ],
      "name": "StepChanged",
      "type": "event"
    },
    {
      "anonymous": false,
      "inputs": [
        {
          "indexed": true,
          "internalType": "address",
          "name": "user",
          "type": "address"
        },
        {
          "indexed": false,
          "internalType": "uint256",
          "name": "amountIn",
          "type": "uint256"
        },
        {
          "indexed": false,
          "internalType": "address",
          "name": "_token",
          "type": "address"
        }
      ],
      "name": "Swaped",
      "type": "event"
    },
    {
      "anonymous": false,
      "inputs": [
        {
          "indexed": true,
          "internalType": "address",
          "name": "user",
          "type": "address"
        },
        {
          "components": [
            {
              "internalType": "address",
              "name": "Token",
              "type": "address"
            },
            {
              "internalType": "uint8",
              "name": "State",
              "type": "uint8"
            }
          ],
          "indexed": false,
          "internalType": "struct WormHoleCash.TokenList",
          "name": "tokenSelected",
          "type": "tuple"
        }
      ],
      "name": "TokenListed",
      "type": "event"
    },
    {
      "inputs": [],
      "name": "DAI",
      "outputs": [
        {
          "internalType": "address",
          "name": "",
          "type": "address"
        }
      ],
      "stateMutability": "view",
      "type": "function",
      "constant": true
    },
    {
      "inputs": [],
      "name": "LINK",
      "outputs": [
        {
          "internalType": "address",
          "name": "",
          "type": "address"
        }
      ],
      "stateMutability": "view",
      "type": "function",
      "constant": true
    },
    {
      "inputs": [],
      "name": "OuputAddress",
      "outputs": [
        {
          "internalType": "address",
          "name": "",
          "type": "address"
        }
      ],
      "stateMutability": "view",
      "type": "function",
      "constant": true
    },
    {
      "inputs": [],
      "name": "SwapRouterV3",
      "outputs": [
        {
          "internalType": "address",
          "name": "",
          "type": "address"
        }
      ],
      "stateMutability": "view",
      "type": "function",
      "constant": true
    },
    {
      "inputs": [],
      "name": "WETH9",
      "outputs": [
        {
          "internalType": "address",
          "name": "",
          "type": "address"
        }
      ],
      "stateMutability": "view",
      "type": "function",
      "constant": true
    },
    {
      "inputs": [],
      "name": "depositStartTime",
      "outputs": [
        {
          "internalType": "uint256",
          "name": "",
          "type": "uint256"
        }
      ],
      "stateMutability": "view",
      "type": "function",
      "constant": true
    },
    {
      "inputs": [],
      "name": "mixingDuration",
      "outputs": [
        {
          "internalType": "uint256",
          "name": "",
          "type": "uint256"
        }
      ],
      "stateMutability": "view",
      "type": "function",
      "constant": true
    },
    {
      "inputs": [],
      "name": "poolFee",
      "outputs": [
        {
          "internalType": "uint24",
          "name": "",
          "type": "uint24"
        }
      ],
      "stateMutability": "view",
      "type": "function",
      "constant": true
    },
    {
      "inputs": [],
      "name": "step",
      "outputs": [
        {
          "internalType": "enum WormHoleCash.Steps",
          "name": "",
          "type": "uint8"
        }
      ],
      "stateMutability": "view",
      "type": "function",
      "constant": true
    },
    {
      "inputs": [],
      "name": "swapRouter",
      "outputs": [
        {
          "internalType": "contract ISwapRouter",
          "name": "",
          "type": "address"
        }
      ],
      "stateMutability": "view",
      "type": "function",
      "constant": true
    },
    {
      "inputs": [
        {
          "internalType": "uint256",
          "name": "",
          "type": "uint256"
        }
      ],
      "name": "tokenList",
      "outputs": [
        {
          "internalType": "address",
          "name": "Token",
          "type": "address"
        },
        {
          "internalType": "uint8",
          "name": "State",
          "type": "uint8"
        }
      ],
      "stateMutability": "view",
      "type": "function",
      "constant": true
    },
    {
      "stateMutability": "payable",
      "type": "receive",
      "payable": true
    },
    {
      "inputs": [
        {
          "internalType": "address",
          "name": "userAddress",
          "type": "address"
        }
      ],
      "name": "getUserData",
      "outputs": [
        {
          "components": [
            {
              "internalType": "address",
              "name": "Token",
              "type": "address"
            },
            {
              "internalType": "uint8",
              "name": "State",
              "type": "uint8"
            }
          ],
          "internalType": "struct WormHoleCash.TokenList[]",
          "name": "tokenList",
          "type": "tuple[]"
        },
        {
          "internalType": "address",
          "name": "outputAddress",
          "type": "address"
        },
        {
          "internalType": "uint256",
          "name": "depositStartTime",
          "type": "uint256"
        },
        {
          "internalType": "enum WormHoleCash.Steps",
          "name": "step",
          "type": "uint8"
        }
      ],
      "stateMutability": "view",
      "type": "function",
      "constant": true
    },
    {
      "inputs": [
        {
          "internalType": "uint256",
          "name": "amountIn",
          "type": "uint256"
        },
        {
          "internalType": "address",
          "name": "_tokenIn",
          "type": "address"
        },
        {
          "internalType": "address",
          "name": "_tokenOut",
          "type": "address"
        },
        {
          "internalType": "address",
          "name": "outputAddress",
          "type": "address"
        }
      ],
      "name": "swapExactInputSingle",
      "outputs": [],
      "stateMutability": "nonpayable",
      "type": "function"
    },
    {
      "inputs": [
        {
          "internalType": "uint256",
          "name": "amountIn",
          "type": "uint256"
        },
        {
          "internalType": "address",
          "name": "_token",
          "type": "address"
        }
      ],
      "name": "swapTokensForETH",
      "outputs": [],
      "stateMutability": "nonpayable",
      "type": "function"
    },
    {
      "inputs": [
        {
          "internalType": "uint256",
          "name": "amountIn",
          "type": "uint256"
        },
        {
          "internalType": "address",
          "name": "_token",
          "type": "address"
        }
      ],
      "name": "swapETHForTokens",
      "outputs": [],
      "stateMutability": "payable",
      "type": "function",
      "payable": true
    },
    {
      "inputs": [
        {
          "internalType": "uint256",
          "name": "amountIn",
          "type": "uint256"
        }
      ],
      "name": "wrapETH",
      "outputs": [],
      "stateMutability": "payable",
      "type": "function",
      "payable": true
    },
    {
      "inputs": [
        {
          "internalType": "uint256",
          "name": "amountIn",
          "type": "uint256"
        }
      ],
      "name": "unwrapETH",
      "outputs": [],
      "stateMutability": "payable",
      "type": "function",
      "payable": true
    },
    {
      "inputs": [],
      "name": "getLatestPrice",
      "outputs": [
        {
          "internalType": "int256",
          "name": "",
          "type": "int256"
        }
      ],
      "stateMutability": "view",
      "type": "function",
      "constant": true
    },
    {
      "inputs": [],
      "name": "reset",
      "outputs": [],
      "stateMutability": "nonpayable",
      "type": "function"
    },
    {
      "inputs": [],
      "name": "getCurrentStep",
      "outputs": [
        {
          "internalType": "enum WormHoleCash.Steps",
          "name": "",
          "type": "uint8"
        }
      ],
      "stateMutability": "view",
      "type": "function",
      "constant": true
    },
    {
      "inputs": [
        {
          "internalType": "address",
          "name": "_selectedAddress",
          "type": "address"
        }
      ],
      "name": "Selection",
      "outputs": [],
      "stateMutability": "nonpayable",
      "type": "function"
    },
    {
      "inputs": [
        {
          "internalType": "address",
          "name": "_outputAddress",
          "type": "address"
        }
      ],
      "name": "Settings",
      "outputs": [],
      "stateMutability": "nonpayable",
      "type": "function"
    },
    {
      "inputs": [
        {
          "internalType": "uint256",
          "name": "amountIn",
          "type": "uint256"
        },
        {
          "internalType": "address",
          "name": "_token",
          "type": "address"
        }
      ],
      "name": "Swap",
      "outputs": [],
      "stateMutability": "nonpayable",
      "type": "function"
    },
    {
      "inputs": [],
      "name": "DepositMixer",
      "outputs": [],
      "stateMutability": "nonpayable",
      "type": "function"
    },
    {
      "inputs": [],
      "name": "WithdrawMixer",
      "outputs": [],
      "stateMutability": "nonpayable",
      "type": "function"
    },
    {
      "inputs": [
        {
          "internalType": "uint256",
          "name": "amountIn",
          "type": "uint256"
        },
        {
          "internalType": "address",
          "name": "_token",
          "type": "address"
        }
      ],
      "name": "SwapBack",
      "outputs": [],
      "stateMutability": "nonpayable",
      "type": "function"
    }
  ],
  "bytecode": "0x60a0604052603c60045534801561001557600080fd5b5073e592427a0aece92de3edee1f18e0157c0586156473ffffffffffffffffffffffffffffffffffffffff1660808173ffffffffffffffffffffffffffffffffffffffff168152505073b4c4a493ab6356497713a78ffa6c60fb53517c636000806101000a81548173ffffffffffffffffffffffffffffffffffffffff021916908373ffffffffffffffffffffffffffffffffffffffff1602179055506080516121906100db60003960008181610b0901528181610c2b0152610ccf01526121906000f3fe6080604052600436106101855760003560e01c80639ead7222116100d1578063cba2a85a1161008a578063d826f88f11610064578063d826f88f1461052e578063e0bab4c414610545578063e25fe17514610570578063ffc9896b1461059b576101c5565b8063cba2a85a146104be578063d1a3925a146104e7578063d2a6950114610512576101c5565b80639ead7222146103e2578063a27486ea14610420578063b025dd7f14610437578063c31c9c0714610460578063c644ee6f1461048b578063c88da83d146104a7576101c5565b80634cc403121161013e5780638050f5f1116101185780638050f5f11461033857806388d53836146103615780638e15f4731461038c57806392f23918146103b7576101c5565b80634cc40312146102bb578063587419d5146102e4578063757e61e01461030f576101c5565b8063089fe6aa146101ca5780631b6b6d23146101f55780631c58db4f146102205780631d3824ea1461023c57806323aad184146102675780634aa4a4fc14610290576101c5565b366101c5577f88a5966d370b9919b20f3e2c13ff65706f196a4e32cc2c12bf57088f8852587433346040516101bb929190611769565b60405180910390a1005b600080fd5b3480156101d657600080fd5b506101df6105db565b6040516101ec91906117b0565b60405180910390f35b34801561020157600080fd5b5061020a6105e1565b60405161021791906117cb565b60405180910390f35b61023a60048036038101906102359190611817565b6105f9565b005b34801561024857600080fd5b5061025161075f565b60405161025e91906118bb565b60405180910390f35b34801561027357600080fd5b5061028e60048036038101906102899190611902565b6107b3565b005b34801561029c57600080fd5b506102a56108c3565b6040516102b291906117cb565b60405180910390f35b3480156102c757600080fd5b506102e260048036038101906102dd9190611942565b6108db565b005b3480156102f057600080fd5b506102f96108f3565b604051610306919061196f565b60405180910390f35b34801561031b57600080fd5b5061033660048036038101906103319190611902565b6108f9565b005b34801561034457600080fd5b5061035f600480360381019061035a9190611902565b610913565b005b34801561036d57600080fd5b5061037661092d565b60405161038391906117cb565b60405180910390f35b34801561039857600080fd5b506103a1610953565b6040516103ae91906119a3565b60405180910390f35b3480156103c357600080fd5b506103cc6109f2565b6040516103d9919061196f565b60405180910390f35b3480156103ee57600080fd5b5061040960048036038101906104049190611817565b6109f8565b6040516104179291906119da565b60405180910390f35b34801561042c57600080fd5b50610435610a55565b005b34801561044357600080fd5b5061045e60048036038101906104599190611a03565b610a6a565b005b34801561046c57600080fd5b50610475610ccd565b6040516104829190611ac9565b60405180910390f35b6104a560048036038101906104a09190611902565b610cf1565b005b3480156104b357600080fd5b506104bc610e55565b005b3480156104ca57600080fd5b506104e560048036038101906104e09190611942565b610ef5565b005b3480156104f357600080fd5b506104fc610f0d565b60405161050991906117cb565b60405180910390f35b61052c60048036038101906105279190611817565b610f25565b005b34801561053a57600080fd5b50610543611083565b005b34801561055157600080fd5b5061055a61117d565b60405161056791906117cb565b60405180910390f35b34801561057c57600080fd5b50610585611195565b60405161059291906118bb565b60405180910390f35b3480156105a757600080fd5b506105c260048036038101906105bd9190611942565b6111a8565b6040516105d29493929190611be0565b60405180910390f35b610bb881565b73326c977e6efc84e512bb9c30f76e30c160ed06fb81565b73b4fbf271143f4fbf7b91a5ded31805e42b2208d673ffffffffffffffffffffffffffffffffffffffff1663d0e30db0826040518263ffffffff1660e01b81526004016000604051808303818588803b15801561065557600080fd5b505af1158015610669573d6000803e3d6000fd5b505050505073b4fbf271143f4fbf7b91a5ded31805e42b2208d673ffffffffffffffffffffffffffffffffffffffff1663a9059cbb33836040518363ffffffff1660e01b81526004016106bd929190611769565b6020604051808303816000875af11580156106dc573d6000803e3d6000fd5b505050506040513d601f19601f820116820180604052508101906107009190611c64565b508034111561075c573373ffffffffffffffffffffffffffffffffffffffff166108fc823461072f9190611cc0565b9081150290604051600060405180830381858888f1935050505015801561075a573d6000803e3d6000fd5b505b50565b6000600260003373ffffffffffffffffffffffffffffffffffffffff1673ffffffffffffffffffffffffffffffffffffffff16815260200190815260200160002060009054906101000a900460ff16905090565b6107d3828273b4fbf271143f4fbf7b91a5ded31805e42b2208d633610a6a565b600073b4fbf271143f4fbf7b91a5ded31805e42b2208d673ffffffffffffffffffffffffffffffffffffffff166370a08231306040518263ffffffff1660e01b815260040161082291906117cb565b602060405180830381865afa15801561083f573d6000803e3d6000fd5b505050506040513d601f19601f820116820180604052508101906108639190611d09565b905061086e81610f25565b3373ffffffffffffffffffffffffffffffffffffffff167f1a198c38fdbbe5c8aed6492f511de47f6443716bb632161eaa137fbf0caf676384846040516108b6929190611d36565b60405180910390a2505050565b73b4fbf271143f4fbf7b91a5ded31805e42b2208d681565b6108e760006001611306565b6108f081611473565b50565b60055481565b61090560026003611306565b61090f82826107b3565b5050565b61091f60056006611306565b6109298282610cf1565b5050565b600360009054906101000a900473ffffffffffffffffffffffffffffffffffffffff1681565b60008060008054906101000a900473ffffffffffffffffffffffffffffffffffffffff1673ffffffffffffffffffffffffffffffffffffffff1663feaf968c6040518163ffffffff1660e01b815260040160a060405180830381865afa1580156109c1573d6000803e3d6000fd5b505050506040513d601f19601f820116820180604052508101906109e59190611dcd565b5050509150508091505090565b60045481565b60068181548110610a0857600080fd5b906000526020600020016000915090508060000160009054906101000a900473ffffffffffffffffffffffffffffffffffffffff16908060000160149054906101000a900460ff16905082565b610a6160036004611306565b42600581905550565b8273ffffffffffffffffffffffffffffffffffffffff166323b872dd3330876040518463ffffffff1660e01b8152600401610aa793929190611e48565b6020604051808303816000875af1158015610ac6573d6000803e3d6000fd5b505050506040513d601f19601f82011682018060405250810190610aea9190611c64565b508273ffffffffffffffffffffffffffffffffffffffff1663095ea7b37f0000000000000000000000000000000000000000000000000000000000000000866040518363ffffffff1660e01b8152600401610b46929190611769565b6020604051808303816000875af1158015610b65573d6000803e3d6000fd5b505050506040513d601f19601f82011682018060405250810190610b899190611c64565b5060006040518061010001604052808573ffffffffffffffffffffffffffffffffffffffff1681526020018473ffffffffffffffffffffffffffffffffffffffff168152602001610bb862ffffff1681526020018373ffffffffffffffffffffffffffffffffffffffff16815260200142815260200186815260200160008152602001600073ffffffffffffffffffffffffffffffffffffffff1681525090507f000000000000000000000000000000000000000000000000000000000000000073ffffffffffffffffffffffffffffffffffffffff1663414bf389826040518263ffffffff1660e01b8152600401610c829190611f4e565b6020604051808303816000875af1158015610ca1573d6000803e3d6000fd5b505050506040513d601f19601f82011682018060405250810190610cc59190611d09565b505050505050565b7f000000000000000000000000000000000000000000000000000000000000000081565b60006103e883610d019190611f99565b905060008184610d119190611cc0565b9050610d1c816105f9565b6000600160003373ffffffffffffffffffffffffffffffffffffffff1673ffffffffffffffffffffffffffffffffffffffff16815260200190815260200160002060010160009054906101000a900473ffffffffffffffffffffffffffffffffffffffff169050610da38273b4fbf271143f4fbf7b91a5ded31805e42b2208d68684610a6a565b81341115610dfe573373ffffffffffffffffffffffffffffffffffffffff166108fc8334610dd19190611cc0565b9081150290604051600060405180830381858888f19350505050158015610dfc573d6000803e3d6000fd5b505b3373ffffffffffffffffffffffffffffffffffffffff167f1a198c38fdbbe5c8aed6492f511de47f6443716bb632161eaa137fbf0caf67638686604051610e46929190611d36565b60405180910390a25050505050565b600454600160003373ffffffffffffffffffffffffffffffffffffffff1673ffffffffffffffffffffffffffffffffffffffff16815260200190815260200160002060020154610ea59190611fca565b421015610ee7576040517f08c379a0000000000000000000000000000000000000000000000000000000008152600401610ede9061205b565b60405180910390fd5b610ef360046005611306565b565b610f0160016002611306565b610f0a816115ca565b50565b73e592427a0aece92de3edee1f18e0157c0586156481565b73b4fbf271143f4fbf7b91a5ded31805e42b2208d673ffffffffffffffffffffffffffffffffffffffff166323b872dd3330846040518463ffffffff1660e01b8152600401610f7693929190611e48565b6020604051808303816000875af1158015610f95573d6000803e3d6000fd5b505050506040513d601f19601f82011682018060405250810190610fb99190611c64565b5073b4fbf271143f4fbf7b91a5ded31805e42b2208d673ffffffffffffffffffffffffffffffffffffffff16632e1a7d4d826040518263ffffffff1660e01b8152600401611007919061196f565b600060405180830381600087803b15801561102157600080fd5b505af1158015611035573d6000803e3d6000fd5b505050503373ffffffffffffffffffffffffffffffffffffffff166108fc829081150290604051600060405180830381858888f1935050505015801561107f573d6000803e3d6000fd5b5050565b6000600260003373ffffffffffffffffffffffffffffffffffffffff1673ffffffffffffffffffffffffffffffffffffffff16815260200190815260200160002060006101000a81548160ff021916908360068111156110e6576110e5611844565b5b0217905550600160003373ffffffffffffffffffffffffffffffffffffffff1673ffffffffffffffffffffffffffffffffffffffff1681526020019081526020016000206000016000611139919061169c565b6000600360006101000a81548173ffffffffffffffffffffffffffffffffffffffff021916908373ffffffffffffffffffffffffffffffffffffffff160217905550565b7311fe4b6ae13d2a6055c8d9cf65c55bac32b5d84481565b600760009054906101000a900460ff1681565b6060600080600080600160008773ffffffffffffffffffffffffffffffffffffffff1673ffffffffffffffffffffffffffffffffffffffff168152602001908152602001600020905080600001805480602002602001604051908101604052809291908181526020016000905b828210156112b6578382906000526020600020016040518060400160405290816000820160009054906101000a900473ffffffffffffffffffffffffffffffffffffffff1673ffffffffffffffffffffffffffffffffffffffff1673ffffffffffffffffffffffffffffffffffffffff1681526020016000820160149054906101000a900460ff1660ff1660ff168152505081526020019060010190611215565b5050505094508060010160009054906101000a900473ffffffffffffffffffffffffffffffffffffffff169350806002015492508060030160009054906101000a900460ff169150509193509193565b81600681111561131957611318611844565b5b600260003373ffffffffffffffffffffffffffffffffffffffff1673ffffffffffffffffffffffffffffffffffffffff16815260200190815260200160002060009054906101000a900460ff16600681111561137857611377611844565b5b146113b8576040517f08c379a00000000000000000000000000000000000000000000000000000000081526004016113af906120c7565b60405180910390fd5b80600260003373ffffffffffffffffffffffffffffffffffffffff1673ffffffffffffffffffffffffffffffffffffffff16815260200190815260200160002060006101000a81548160ff0219169083600681111561141a57611419611844565b5b02179055503373ffffffffffffffffffffffffffffffffffffffff167f1760e9f51927ce74cbf718ce51630e2cf6dac75a7a31ebebff9b91b3c41a096683836040516114679291906120e7565b60405180910390a25050565b600060405180604001604052808373ffffffffffffffffffffffffffffffffffffffff168152602001600160ff168152509050600160003373ffffffffffffffffffffffffffffffffffffffff1673ffffffffffffffffffffffffffffffffffffffff168152602001908152602001600020600001819080600181540180825580915050600190039060005260206000200160009091909190915060008201518160000160006101000a81548173ffffffffffffffffffffffffffffffffffffffff021916908373ffffffffffffffffffffffffffffffffffffffff16021790555060208201518160000160146101000a81548160ff021916908360ff16021790555050503373ffffffffffffffffffffffffffffffffffffffff167f127e7f5ff34fbd605e67739e9fe41503ca7b68d8765351b81e1bfa9a0860d972826040516115be919061213f565b60405180910390a25050565b80600160003373ffffffffffffffffffffffffffffffffffffffff1673ffffffffffffffffffffffffffffffffffffffff16815260200190815260200160002060010160006101000a81548173ffffffffffffffffffffffffffffffffffffffff021916908373ffffffffffffffffffffffffffffffffffffffff1602179055503373ffffffffffffffffffffffffffffffffffffffff167fc395278804de156198ca2eb5fb947e17d0ebb6fc2cefd765748e6b0230c262168260405161169191906117cb565b60405180910390a250565b50805460008255906000526020600020908101906116ba91906116bd565b50565b5b8082111561170b57600080820160006101000a81549073ffffffffffffffffffffffffffffffffffffffff02191690556000820160146101000a81549060ff0219169055506001016116be565b5090565b600073ffffffffffffffffffffffffffffffffffffffff82169050919050565b600061173a8261170f565b9050919050565b61174a8161172f565b82525050565b6000819050919050565b61176381611750565b82525050565b600060408201905061177e6000830185611741565b61178b602083018461175a565b9392505050565b600062ffffff82169050919050565b6117aa81611792565b82525050565b60006020820190506117c560008301846117a1565b92915050565b60006020820190506117e06000830184611741565b92915050565b600080fd5b6117f481611750565b81146117ff57600080fd5b50565b600081359050611811816117eb565b92915050565b60006020828403121561182d5761182c6117e6565b5b600061183b84828501611802565b91505092915050565b7f4e487b7100000000000000000000000000000000000000000000000000000000600052602160045260246000fd5b6007811061188457611883611844565b5b50565b600081905061189582611873565b919050565b60006118a582611887565b9050919050565b6118b58161189a565b82525050565b60006020820190506118d060008301846118ac565b92915050565b6118df8161172f565b81146118ea57600080fd5b50565b6000813590506118fc816118d6565b92915050565b60008060408385031215611919576119186117e6565b5b600061192785828601611802565b9250506020611938858286016118ed565b9150509250929050565b600060208284031215611958576119576117e6565b5b6000611966848285016118ed565b91505092915050565b6000602082019050611984600083018461175a565b92915050565b6000819050919050565b61199d8161198a565b82525050565b60006020820190506119b86000830184611994565b92915050565b600060ff82169050919050565b6119d4816119be565b82525050565b60006040820190506119ef6000830185611741565b6119fc60208301846119cb565b9392505050565b60008060008060808587031215611a1d57611a1c6117e6565b5b6000611a2b87828801611802565b9450506020611a3c878288016118ed565b9350506040611a4d878288016118ed565b9250506060611a5e878288016118ed565b91505092959194509250565b6000819050919050565b6000611a8f611a8a611a858461170f565b611a6a565b61170f565b9050919050565b6000611aa182611a74565b9050919050565b6000611ab382611a96565b9050919050565b611ac381611aa8565b82525050565b6000602082019050611ade6000830184611aba565b92915050565b600081519050919050565b600082825260208201905092915050565b6000819050602082019050919050565b611b198161172f565b82525050565b611b28816119be565b82525050565b604082016000820151611b446000850182611b10565b506020820151611b576020850182611b1f565b50505050565b6000611b698383611b2e565b60408301905092915050565b6000602082019050919050565b6000611b8d82611ae4565b611b978185611aef565b9350611ba283611b00565b8060005b83811015611bd3578151611bba8882611b5d565b9750611bc583611b75565b925050600181019050611ba6565b5085935050505092915050565b60006080820190508181036000830152611bfa8187611b82565b9050611c096020830186611741565b611c16604083018561175a565b611c2360608301846118ac565b95945050505050565b60008115159050919050565b611c4181611c2c565b8114611c4c57600080fd5b50565b600081519050611c5e81611c38565b92915050565b600060208284031215611c7a57611c796117e6565b5b6000611c8884828501611c4f565b91505092915050565b7f4e487b7100000000000000000000000000000000000000000000000000000000600052601160045260246000fd5b6000611ccb82611750565b9150611cd683611750565b9250828203905081811115611cee57611ced611c91565b5b92915050565b600081519050611d03816117eb565b92915050565b600060208284031215611d1f57611d1e6117e6565b5b6000611d2d84828501611cf4565b91505092915050565b6000604082019050611d4b600083018561175a565b611d586020830184611741565b9392505050565b600069ffffffffffffffffffff82169050919050565b611d7e81611d5f565b8114611d8957600080fd5b50565b600081519050611d9b81611d75565b92915050565b611daa8161198a565b8114611db557600080fd5b50565b600081519050611dc781611da1565b92915050565b600080600080600060a08688031215611de957611de86117e6565b5b6000611df788828901611d8c565b9550506020611e0888828901611db8565b9450506040611e1988828901611cf4565b9350506060611e2a88828901611cf4565b9250506080611e3b88828901611d8c565b9150509295509295909350565b6000606082019050611e5d6000830186611741565b611e6a6020830185611741565b611e77604083018461175a565b949350505050565b611e8881611792565b82525050565b611e9781611750565b82525050565b611ea68161170f565b82525050565b61010082016000820151611ec36000850182611b10565b506020820151611ed66020850182611b10565b506040820151611ee96040850182611e7f565b506060820151611efc6060850182611b10565b506080820151611f0f6080850182611e8e565b5060a0820151611f2260a0850182611e8e565b5060c0820151611f3560c0850182611e8e565b5060e0820151611f4860e0850182611e9d565b50505050565b600061010082019050611f646000830184611eac565b92915050565b7f4e487b7100000000000000000000000000000000000000000000000000000000600052601260045260246000fd5b6000611fa482611750565b9150611faf83611750565b925082611fbf57611fbe611f6a565b5b828204905092915050565b6000611fd582611750565b9150611fe083611750565b9250828201905080821115611ff857611ff7611c91565b5b92915050565b600082825260208201905092915050565b7f596f75206d757374207761697420323468206174206c65617374000000000000600082015250565b6000612045601a83611ffe565b91506120508261200f565b602082019050919050565b6000602082019050818103600083015261207481612038565b9050919050565b7f6368616e6765537465702829206e6f7420706f737369626c6500000000000000600082015250565b60006120b1601983611ffe565b91506120bc8261207b565b602082019050919050565b600060208201905081810360008301526120e0816120a4565b9050919050565b60006040820190506120fc60008301856118ac565b61210960208301846118ac565b9392505050565b6040820160008201516121266000850182611b10565b5060208201516121396020850182611b1f565b50505050565b60006040820190506121546000830184612110565b9291505056fea264697066735822122087bca260c16ccdcfb4d144e9a28e60510886218fd35c6dcefe414f8e6c09ad0364736f6c63430008120033",
  "immutableReferences": {
    "124": [
      {
        "length": 32,
        "start": 2825
      },
      {
        "length": 32,
        "start": 3115
      },
      {
        "length": 32,
        "start": 3279
      }
    ]
  },
  "source": "// SPDX-License-Identifier: MIT\n//import \"@openzeppelin/contracts/utils/ReentrancyGuard.sol\";\nimport \"@chainlink/contracts/src/v0.8/interfaces/AggregatorV3Interface.sol\";\n\npragma solidity 0.8.18;\n    //------------------------------------------------------------------ INTERFACES\ninterface IERC20 {\n    function transferFrom(address sender, address recipient, uint256 amount) external returns (bool);\n    function approve(address spender, uint256 amount) external returns (bool);\n    function balanceOf(address account) external view returns (uint256);\n    //function totalSupply() external view returns (uint256);\n    function transfer(address recipient, uint256 amount) external returns (bool);\n    //function allowance(address owner, address spender) external view returns (uint256);\n}\n\ninterface IWETH {\n    function deposit() external payable;\n    function withdraw(uint wad) external;\n}\n\ninterface ISwapRouter {\n\n    struct ExactInputSingleParams {\n        address tokenIn;\n        address tokenOut;\n        uint24  fee;\n        address recipient;\n        uint256 deadline;\n        uint256 amountIn;\n        uint256 amountOutMinimum;\n        uint160 sqrtPriceLimitX96;\n    }\n\n\n    /// @notice Swaps `amountIn` of one token for as much as possible of another token\n    /// @param params The parameters necessary for the swap, encoded as `ExactInputSingleParams` in calldata\n    /// @return amountOut The amount of the received token\n    function exactInputSingle(ExactInputSingleParams calldata params) external payable returns (uint256 amountOut);\n}\n\ncontract WormHoleCash { // is ReentrancyGuard {\n    ISwapRouter public immutable swapRouter;\n    AggregatorV3Interface internal priceFeed;\n\n    //------------------------------------------------------------------ STRUCTURES\n    struct UserData {\n        TokenList[] tokenList;\n        address outputAddress;\n        uint depositStartTime;\n        Steps step;\n    }\n\n    struct TokenList {\n        //address From; address To;\n        address Token;\n        uint8 State; //1=selected 2=Swaped 3=BackSwaped 4=Error je pourais amliorer a en array ou struct ou enum\n    }\n\n    mapping(address => UserData) private usersData;\n    mapping(address => Steps) private userSteps;\n\n    address public constant SwapRouterV3 = 0xE592427A0AEce92De3Edee1F18E0157C05861564;\n    address public constant WETH9 = 0xB4FBF271143F4FBf7B91A5ded31805e42b2208d6;\n    address public constant DAI = 0x11fE4B6AE13d2a6055C8D9cF65c55bac32B5d844;\n    address public constant LINK = 0x326C977E6efc84E512bB9C30f76E30c160eD06FB;\n\n    address public OuputAddress;\n    uint public mixingDuration = 1 minutes; // Only for Demo\n    uint256 public depositStartTime;\n    uint24 public constant poolFee = 3000; // frais de pool standard Uniswap  0.3%\n    TokenList[] public tokenList;\n    Steps public step;\n\n    enum Steps {\n        TokenSelection, // slection des token que l'on souhaite utiliser   \n        Settings,       // Address Output, choix ETH ou StableCOins, Duration, Antropie, nombre de adresse de sortie\n        Swap,           // Swap sur Uni\n        DepositMixer,   // Tornado Cash dpo\n        //Waiting,        // Automation via Gelato\n        WithdrawMixer,  // Tornado Cash sortie\n        SwapBack,       // Swap vers Tokens\n        Done            // Enjoy\n    }\n\n    //------------------------------------------------------------------ EVENTS\n    event StepChanged( address indexed user, Steps previousStatus, Steps newStatus );\n    event TokenListed( address indexed user,TokenList tokenSelected);\n    event OutputAddressSet( address indexed user, address outputAddress ); //event OutputAddressSeted(address OuputAddress);\n    event Received(address, uint); // Event mis lorsque des ETH sont reus\n    event Swaped( address indexed user,uint256 amountIn, address _token);\n \n    constructor() {\n        swapRouter = ISwapRouter(SwapRouterV3);\n        priceFeed = AggregatorV3Interface(  0xb4c4a493AB6356497713A78FFA6c60FB53517c63 );\n    }\n\n    //------------------------------------------------------------------ USER DATA\n    function getUserData(address userAddress) public view returns (TokenList[] memory tokenList, address outputAddress, uint depositStartTime, Steps step) {\n        UserData storage userData = usersData[userAddress];\n        tokenList = userData.tokenList;\n        outputAddress = userData.outputAddress;\n        depositStartTime = userData.depositStartTime;\n        step = userData.step;\n    }\n\n    //------------------------------------------------------------------ SETTING\n    function setOutputAddress(address _outputAddress) private {\n        //UserData storage userData = usersData[msg.sender];\n        usersData[msg.sender].outputAddress = _outputAddress;\n        emit OutputAddressSet(msg.sender, _outputAddress);\n    }\n\n    function addToken(address _token) private {\n        //UserData storage userData = usersData[msg.sender];\n        TokenList memory newToken = TokenList(_token, 1);\n        usersData[msg.sender].tokenList.push(newToken);\n        emit TokenListed(msg.sender, newToken);\n    }\n    \n    //A revoir\n    function getTokenState(uint256 _index) private view returns (uint8) {\n        require(_index < tokenList.length, \"Token index out of bounds\");\n        return tokenList[_index].State;\n    }\n    \n    function setTokenState(uint256 _index, uint8 _newState) private {\n        require(_index < tokenList.length, \"Token index out of bounds\");\n        tokenList[_index].State = _newState;\n    }\n\n    //------------------------------------------------------------------ UNISWAP\n    function swapExactInputSingle(uint256 amountIn, address _tokenIn, address _tokenOut, address outputAddress) public {\n        IERC20(_tokenIn).transferFrom(msg.sender, address(this), amountIn);// Transfert des tokens en question au smart contract ! Il faut penser  approve ce transfert avant lutilisation de cette fonction \n        IERC20(_tokenIn).approve(address(swapRouter), amountIn);  // autoriser uniswap  utiliser nos tokens\n        \n        ISwapRouter.ExactInputSingleParams memory params = //Creation des paramtres pour l'appel du swap\n            ISwapRouter.ExactInputSingleParams({\n                tokenIn: _tokenIn,\n                tokenOut: _tokenOut,\n                fee: poolFee,\n                recipient: outputAddress,\n                deadline: block.timestamp,\n                amountIn: amountIn,\n                amountOutMinimum: 0, // amountOutMinimum: _amountOutMinimum; pour eviter les frontrun  se lie a chainlink pour a\n                sqrtPriceLimitX96: 0\n            });\n        \n        swapRouter.exactInputSingle(params);// effectuer le swap, ETH sera transfrer directement au msg.sender\n\n    }\n\n    function swapTokensForETH(uint256 amountIn, address _token) public {\n        swapExactInputSingle(amountIn, _token, WETH9, msg.sender);\n        uint256 wethBalance = IERC20(WETH9).balanceOf(address(this)); // WETH en ETH\n        unwrapETH(wethBalance);\n        emit Swaped(msg.sender, amountIn, _token);\n    }\n\n    function swapETHForTokens(uint256 amountIn, address _token) public payable {\n        uint256 WHCfees = amountIn / 1000;\n        uint256 amountAfterFees = amountIn - WHCfees;\n\n        wrapETH(amountAfterFees);\n        address outputAddress = usersData[msg.sender].outputAddress;\n        swapExactInputSingle(amountAfterFees, WETH9, _token, outputAddress);\n\n        //if the user sends too much Ether to perform the swap, the excess Ether will be returned.\n        if (msg.value > amountAfterFees) {\n            payable(msg.sender).transfer(msg.value - amountAfterFees);\n        }\n        emit Swaped(msg.sender, amountIn, _token);\n    }\n\n    function wrapETH(uint256 amountIn) public payable {\n        //require(msg.value >= amountIn, \"Not enough ETH sent\");\n        IWETH(WETH9).deposit{value: amountIn}();// Convertir ETH en WETH\n        IERC20(WETH9).transfer(msg.sender, amountIn);// Transfrer les WETH convertis au msg.sender\n\n        if (msg.value > amountIn) {// Renvoyer les ETH restants (si msg.value > amountIn)\n            payable(msg.sender).transfer(msg.value - amountIn);\n        }\n    }\n\n    function unwrapETH(uint256 amountIn) public payable{\n        //require(IERC20(WETH9).balanceOf(msg.sender) >= amountIn, \"Not enough WETH balance\");\n        IERC20(WETH9).transferFrom(msg.sender, address(this), amountIn);// Transfrer les WETH du msg.sender au contrat\n        IWETH(WETH9).withdraw(amountIn);// Convertir les WETH en ETH\n        payable(msg.sender).transfer(amountIn);// Envoyer les ETH convertis au msg.sender\n    }\n\n    //------------------------------------------------------------------ CHAIN LINK\n    function getLatestPrice() public view returns (int) {\n        (,int price,,,) = priceFeed.latestRoundData();\n        return price;\n    }\n\n    //------------------------------------------------------------------ WORKFLOW\n    function changeStep(Steps _from, Steps _to) private {\n        require(userSteps[msg.sender] == _from, \"changeStep() not possible\");\n        userSteps[msg.sender] = _to;\n        emit StepChanged(msg.sender, _from, _to);\n    }\n\n    function reset() public {\n        userSteps[msg.sender] = Steps.TokenSelection; \n        delete usersData[msg.sender].tokenList;\n        OuputAddress = address(0);\n    }\n\n    function getCurrentStep() public view returns (Steps) {\n        return userSteps[msg.sender];\n    }\n\n    function Selection(address _selectedAddress) public {\n        changeStep(Steps.TokenSelection, Steps.Settings);\n        addToken(_selectedAddress);\n    }\n\n    function Settings(address _outputAddress) public {\n        changeStep(Steps.Settings, Steps.Swap);\n        setOutputAddress(_outputAddress);\n    }\n\n    function Swap(uint256 amountIn, address _token) public {\n        changeStep(Steps.Swap, Steps.DepositMixer);\n        swapTokensForETH(amountIn, _token);\n    }\n\n    function DepositMixer() public {\n        changeStep(Steps.DepositMixer, Steps.WithdrawMixer);\n        depositStartTime = block.timestamp;\n    }\n\n    function WithdrawMixer() public {\n        require(block.timestamp >= usersData[msg.sender].depositStartTime + mixingDuration, \"You must wait 24h at least\");\n        changeStep(Steps.WithdrawMixer, Steps.SwapBack);\n    }\n        \n    function SwapBack(uint256 amountIn, address _token) public {\n        changeStep(Steps.SwapBack, Steps.Done);\n        swapETHForTokens(amountIn, _token);\n    }\n\n    receive() external payable {\n        emit Received(msg.sender, msg.value);\n    }\n    \n}",
  "sourcePath": "/Users/nicolas/Documents/VSC/WormHoleCash/truffle/contracts/WormHoleCash.sol",
  "compiler": {
    "name": "solc",
    "version": "0.8.18+commit.87f61d96.Emscripten.clang"
  },
  "schemaVersion": "3.4.11",
  "updatedAt": "2023-04-07T20:07:53.675Z",
  "networkType": "ethereum",
  "devdoc": {
    "kind": "dev",
    "methods": {},
    "version": 1
  },
  "userdoc": {
    "kind": "user",
    "methods": {},
    "version": 1
  }
}