{
  "contractName": "WormHoleCash",
  "abi": [
    {
      "inputs": [],
      "stateMutability": "nonpayable",
      "type": "constructor"
    },
    {
      "anonymous": false,
      "inputs": [
        {
          "indexed": false,
          "internalType": "address",
          "name": "OuputAddress",
          "type": "address"
        }
      ],
      "name": "OutputAddressSeted",
      "type": "event"
    },
    {
      "anonymous": false,
      "inputs": [
        {
          "indexed": false,
          "internalType": "address",
          "name": "",
          "type": "address"
        },
        {
          "indexed": false,
          "internalType": "uint256",
          "name": "",
          "type": "uint256"
        }
      ],
      "name": "Received",
      "type": "event"
    },
    {
      "anonymous": false,
      "inputs": [
        {
          "indexed": false,
          "internalType": "enum WormHoleCash.Steps",
          "name": "previousStatus",
          "type": "uint8"
        },
        {
          "indexed": false,
          "internalType": "enum WormHoleCash.Steps",
          "name": "newStatus",
          "type": "uint8"
        }
      ],
      "name": "StepChanged",
      "type": "event"
    },
    {
      "anonymous": false,
      "inputs": [
        {
          "components": [
            {
              "internalType": "address",
              "name": "Token",
              "type": "address"
            },
            {
              "internalType": "uint8",
              "name": "State",
              "type": "uint8"
            }
          ],
          "indexed": false,
          "internalType": "struct WormHoleCash.TokenList",
          "name": "tokenSelected",
          "type": "tuple"
        }
      ],
      "name": "TokenListed",
      "type": "event"
    },
    {
      "inputs": [],
      "name": "DAI",
      "outputs": [
        {
          "internalType": "address",
          "name": "",
          "type": "address"
        }
      ],
      "stateMutability": "view",
      "type": "function",
      "constant": true
    },
    {
      "inputs": [],
      "name": "LINK",
      "outputs": [
        {
          "internalType": "address",
          "name": "",
          "type": "address"
        }
      ],
      "stateMutability": "view",
      "type": "function",
      "constant": true
    },
    {
      "inputs": [],
      "name": "OuputAddress",
      "outputs": [
        {
          "internalType": "address",
          "name": "",
          "type": "address"
        }
      ],
      "stateMutability": "view",
      "type": "function",
      "constant": true
    },
    {
      "inputs": [],
      "name": "SwapRouterV3",
      "outputs": [
        {
          "internalType": "address",
          "name": "",
          "type": "address"
        }
      ],
      "stateMutability": "view",
      "type": "function",
      "constant": true
    },
    {
      "inputs": [],
      "name": "WETH9",
      "outputs": [
        {
          "internalType": "address",
          "name": "",
          "type": "address"
        }
      ],
      "stateMutability": "view",
      "type": "function",
      "constant": true
    },
    {
      "inputs": [],
      "name": "depositStartTime",
      "outputs": [
        {
          "internalType": "uint256",
          "name": "",
          "type": "uint256"
        }
      ],
      "stateMutability": "view",
      "type": "function",
      "constant": true
    },
    {
      "inputs": [],
      "name": "entropy",
      "outputs": [
        {
          "internalType": "uint256",
          "name": "",
          "type": "uint256"
        }
      ],
      "stateMutability": "view",
      "type": "function",
      "constant": true
    },
    {
      "inputs": [],
      "name": "mixingDuration",
      "outputs": [
        {
          "internalType": "uint256",
          "name": "",
          "type": "uint256"
        }
      ],
      "stateMutability": "view",
      "type": "function",
      "constant": true
    },
    {
      "inputs": [],
      "name": "poolFee",
      "outputs": [
        {
          "internalType": "uint24",
          "name": "",
          "type": "uint24"
        }
      ],
      "stateMutability": "view",
      "type": "function",
      "constant": true
    },
    {
      "inputs": [],
      "name": "step",
      "outputs": [
        {
          "internalType": "enum WormHoleCash.Steps",
          "name": "",
          "type": "uint8"
        }
      ],
      "stateMutability": "view",
      "type": "function",
      "constant": true
    },
    {
      "inputs": [],
      "name": "swapRouter",
      "outputs": [
        {
          "internalType": "contract ISwapRouter",
          "name": "",
          "type": "address"
        }
      ],
      "stateMutability": "view",
      "type": "function",
      "constant": true
    },
    {
      "inputs": [
        {
          "internalType": "uint256",
          "name": "",
          "type": "uint256"
        }
      ],
      "name": "tokenList",
      "outputs": [
        {
          "internalType": "address",
          "name": "Token",
          "type": "address"
        },
        {
          "internalType": "uint8",
          "name": "State",
          "type": "uint8"
        }
      ],
      "stateMutability": "view",
      "type": "function",
      "constant": true
    },
    {
      "stateMutability": "payable",
      "type": "receive",
      "payable": true
    },
    {
      "inputs": [
        {
          "internalType": "uint256",
          "name": "amountIn",
          "type": "uint256"
        },
        {
          "internalType": "address",
          "name": "_tokenIn",
          "type": "address"
        },
        {
          "internalType": "address",
          "name": "_tokenOut",
          "type": "address"
        }
      ],
      "name": "swapExactInputSingle",
      "outputs": [],
      "stateMutability": "nonpayable",
      "type": "function"
    },
    {
      "inputs": [
        {
          "internalType": "uint256",
          "name": "amountIn",
          "type": "uint256"
        },
        {
          "internalType": "address",
          "name": "_token",
          "type": "address"
        }
      ],
      "name": "swapTokensForETH",
      "outputs": [],
      "stateMutability": "nonpayable",
      "type": "function"
    },
    {
      "inputs": [
        {
          "internalType": "uint256",
          "name": "amountIn",
          "type": "uint256"
        },
        {
          "internalType": "address",
          "name": "_token",
          "type": "address"
        }
      ],
      "name": "swapETHForTokens",
      "outputs": [],
      "stateMutability": "payable",
      "type": "function",
      "payable": true
    },
    {
      "inputs": [
        {
          "internalType": "uint256",
          "name": "amountIn",
          "type": "uint256"
        }
      ],
      "name": "wrapETH",
      "outputs": [],
      "stateMutability": "payable",
      "type": "function",
      "payable": true
    },
    {
      "inputs": [
        {
          "internalType": "uint256",
          "name": "amountIn",
          "type": "uint256"
        },
        {
          "internalType": "address",
          "name": "recipient",
          "type": "address"
        }
      ],
      "name": "wrapETH2",
      "outputs": [],
      "stateMutability": "payable",
      "type": "function",
      "payable": true
    },
    {
      "inputs": [
        {
          "internalType": "uint256",
          "name": "amountIn",
          "type": "uint256"
        }
      ],
      "name": "unwrapETH",
      "outputs": [],
      "stateMutability": "payable",
      "type": "function",
      "payable": true
    },
    {
      "inputs": [],
      "name": "getLatestPrice",
      "outputs": [
        {
          "internalType": "int256",
          "name": "",
          "type": "int256"
        }
      ],
      "stateMutability": "view",
      "type": "function",
      "constant": true
    },
    {
      "inputs": [],
      "name": "RESET",
      "outputs": [],
      "stateMutability": "nonpayable",
      "type": "function"
    },
    {
      "inputs": [],
      "name": "getCurrentStep",
      "outputs": [
        {
          "internalType": "enum WormHoleCash.Steps",
          "name": "",
          "type": "uint8"
        }
      ],
      "stateMutability": "view",
      "type": "function",
      "constant": true
    },
    {
      "inputs": [
        {
          "internalType": "address",
          "name": "_selectedAddress",
          "type": "address"
        }
      ],
      "name": "Selection",
      "outputs": [],
      "stateMutability": "nonpayable",
      "type": "function"
    },
    {
      "inputs": [
        {
          "internalType": "address",
          "name": "_OuputAddress",
          "type": "address"
        }
      ],
      "name": "Settings",
      "outputs": [],
      "stateMutability": "nonpayable",
      "type": "function"
    },
    {
      "inputs": [
        {
          "internalType": "uint256",
          "name": "amountIn",
          "type": "uint256"
        },
        {
          "internalType": "address",
          "name": "_token",
          "type": "address"
        }
      ],
      "name": "Swap",
      "outputs": [],
      "stateMutability": "nonpayable",
      "type": "function"
    },
    {
      "inputs": [],
      "name": "DepositMixer",
      "outputs": [],
      "stateMutability": "nonpayable",
      "type": "function"
    },
    {
      "inputs": [],
      "name": "WithdrawMixer",
      "outputs": [],
      "stateMutability": "nonpayable",
      "type": "function"
    }
  ],
  "bytecode": "0x60a0604052603c600255600060035534801561001a57600080fd5b5073e592427a0aece92de3edee1f18e0157c0586156473ffffffffffffffffffffffffffffffffffffffff1660808173ffffffffffffffffffffffffffffffffffffffff168152505073b4c4a493ab6356497713a78ffa6c60fb53517c636000806101000a81548173ffffffffffffffffffffffffffffffffffffffff021916908373ffffffffffffffffffffffffffffffffffffffff160217905550608051611ca06100e0600039600081816108e801528181610a0a0152610e840152611ca06000f3fe6080604052600436106101855760003560e01c806392f23918116100d1578063c644ee6f1161008a578063d1a3925a11610064578063d1a3925a1461051c578063d2a6950114610547578063e0bab4c414610563578063e25fe1751461058e576101c5565b8063c644ee6f146104c0578063c88da83d146104dc578063cba2a85a146104f3576101c5565b806392f23918146103e25780639863b8dc1461040d5780639ead722214610429578063a27486ea14610467578063af2aae451461047e578063c31c9c0714610495576101c5565b80634aa4a4fc1161013e578063587419d511610118578063587419d514610338578063757e61e01461036357806388d538361461038c5780638e15f473146103b7576101c5565b80634aa4a4fc146102bb5780634cc40312146102e65780634ce4dca51461030f576101c5565b8063089fe6aa146101ca5780631b6b6d23146101f55780631c58db4f146102205780631d3824ea1461023c57806323aad1841461026757806347ce07cc14610290576101c5565b366101c5577f88a5966d370b9919b20f3e2c13ff65706f196a4e32cc2c12bf57088f8852587433346040516101bb9291906113cd565b60405180910390a1005b600080fd5b3480156101d657600080fd5b506101df6105b9565b6040516101ec9190611414565b60405180910390f35b34801561020157600080fd5b5061020a6105bf565b604051610217919061142f565b60405180910390f35b61023a6004803603810190610235919061147b565b6105d7565b005b34801561024857600080fd5b5061025161073d565b60405161025e919061151f565b60405180910390f35b34801561027357600080fd5b5061028e60048036038101906102899190611566565b610754565b005b34801561029c57600080fd5b506102a5610813565b6040516102b291906115a6565b60405180910390f35b3480156102c757600080fd5b506102d0610819565b6040516102dd919061142f565b60405180910390f35b3480156102f257600080fd5b5061030d600480360381019061030891906115c1565b610831565b005b34801561031b57600080fd5b50610336600480360381019061033191906115ee565b610849565b005b34801561034457600080fd5b5061034d610aab565b60405161035a91906115a6565b60405180910390f35b34801561036f57600080fd5b5061038a60048036038101906103859190611566565b610ab1565b005b34801561039857600080fd5b506103a1610ad3565b6040516103ae919061142f565b60405180910390f35b3480156103c357600080fd5b506103cc610af9565b6040516103d9919061165a565b60405180910390f35b3480156103ee57600080fd5b506103f7610b98565b60405161040491906115a6565b60405180910390f35b61042760048036038101906104229190611566565b610b9e565b005b34801561043557600080fd5b50610450600480360381019061044b919061147b565b610ddb565b60405161045e929190611691565b60405180910390f35b34801561047357600080fd5b5061047c610e38565b005b34801561048a57600080fd5b50610493610e55565b005b3480156104a157600080fd5b506104aa610e82565b6040516104b79190611719565b60405180910390f35b6104da60048036038101906104d59190611566565b610ea6565b005b3480156104e857600080fd5b506104f1610f51565b005b3480156104ff57600080fd5b5061051a600480360381019061051591906115c1565b610fb9565b005b34801561052857600080fd5b50610531610fd1565b60405161053e919061142f565b60405180910390f35b610561600480360381019061055c919061147b565b610fe9565b005b34801561056f57600080fd5b50610578611147565b604051610585919061142f565b60405180910390f35b34801561059a57600080fd5b506105a361115f565b6040516105b0919061151f565b60405180910390f35b610bb881565b73326c977e6efc84e512bb9c30f76e30c160ed06fb81565b73b4fbf271143f4fbf7b91a5ded31805e42b2208d673ffffffffffffffffffffffffffffffffffffffff1663d0e30db0826040518263ffffffff1660e01b81526004016000604051808303818588803b15801561063357600080fd5b505af1158015610647573d6000803e3d6000fd5b505050505073b4fbf271143f4fbf7b91a5ded31805e42b2208d673ffffffffffffffffffffffffffffffffffffffff1663a9059cbb33836040518363ffffffff1660e01b815260040161069b9291906113cd565b6020604051808303816000875af11580156106ba573d6000803e3d6000fd5b505050506040513d601f19601f820116820180604052508101906106de919061176c565b508034111561073a573373ffffffffffffffffffffffffffffffffffffffff166108fc823461070d91906117c8565b9081150290604051600060405180830381858888f19350505050158015610738573d6000803e3d6000fd5b505b50565b6000600660009054906101000a900460ff16905090565b610773828273b4fbf271143f4fbf7b91a5ded31805e42b2208d6610849565b600073b4fbf271143f4fbf7b91a5ded31805e42b2208d673ffffffffffffffffffffffffffffffffffffffff166370a08231306040518263ffffffff1660e01b81526004016107c2919061142f565b602060405180830381865afa1580156107df573d6000803e3d6000fd5b505050506040513d601f19601f820116820180604052508101906108039190611811565b905061080e81610fe9565b505050565b60035481565b73b4fbf271143f4fbf7b91a5ded31805e42b2208d681565b61083d60006001611172565b6108468161124e565b50565b8173ffffffffffffffffffffffffffffffffffffffff166323b872dd3330866040518463ffffffff1660e01b81526004016108869392919061183e565b6020604051808303816000875af11580156108a5573d6000803e3d6000fd5b505050506040513d601f19601f820116820180604052508101906108c9919061176c565b508173ffffffffffffffffffffffffffffffffffffffff1663095ea7b37f0000000000000000000000000000000000000000000000000000000000000000856040518363ffffffff1660e01b81526004016109259291906113cd565b6020604051808303816000875af1158015610944573d6000803e3d6000fd5b505050506040513d601f19601f82011682018060405250810190610968919061176c565b5060006040518061010001604052808473ffffffffffffffffffffffffffffffffffffffff1681526020018373ffffffffffffffffffffffffffffffffffffffff168152602001610bb862ffffff1681526020013373ffffffffffffffffffffffffffffffffffffffff16815260200142815260200185815260200160008152602001600073ffffffffffffffffffffffffffffffffffffffff1681525090507f000000000000000000000000000000000000000000000000000000000000000073ffffffffffffffffffffffffffffffffffffffff1663414bf389826040518263ffffffff1660e01b8152600401610a619190611953565b6020604051808303816000875af1158015610a80573d6000803e3d6000fd5b505050506040513d601f19601f82011682018060405250810190610aa49190611811565b5050505050565b60045481565b610abd60026003611172565b610ac78282610754565b610acf610e38565b5050565b600160009054906101000a900473ffffffffffffffffffffffffffffffffffffffff1681565b60008060008054906101000a900473ffffffffffffffffffffffffffffffffffffffff1673ffffffffffffffffffffffffffffffffffffffff1663feaf968c6040518163ffffffff1660e01b815260040160a060405180830381865afa158015610b67573d6000803e3d6000fd5b505050506040513d601f19601f82011682018060405250810190610b8b91906119dd565b5050509150508091505090565b60025481565b81341015610be1576040517f08c379a0000000000000000000000000000000000000000000000000000000008152600401610bd890611ab5565b60405180910390fd5b73b4fbf271143f4fbf7b91a5ded31805e42b2208d673ffffffffffffffffffffffffffffffffffffffff1663095ea7b330846040518363ffffffff1660e01b8152600401610c309291906113cd565b6020604051808303816000875af1158015610c4f573d6000803e3d6000fd5b505050506040513d601f19601f82011682018060405250810190610c73919061176c565b5073b4fbf271143f4fbf7b91a5ded31805e42b2208d673ffffffffffffffffffffffffffffffffffffffff1663d0e30db0836040518263ffffffff1660e01b81526004016000604051808303818588803b158015610cd057600080fd5b505af1158015610ce4573d6000803e3d6000fd5b505050505073b4fbf271143f4fbf7b91a5ded31805e42b2208d673ffffffffffffffffffffffffffffffffffffffff1663a9059cbb82846040518363ffffffff1660e01b8152600401610d389291906113cd565b6020604051808303816000875af1158015610d57573d6000803e3d6000fd5b505050506040513d601f19601f82011682018060405250810190610d7b919061176c565b5081341115610dd7573373ffffffffffffffffffffffffffffffffffffffff166108fc8334610daa91906117c8565b9081150290604051600060405180830381858888f19350505050158015610dd5573d6000803e3d6000fd5b505b5050565b60058181548110610deb57600080fd5b906000526020600020016000915090508060000160009054906101000a900473ffffffffffffffffffffffffffffffffffffffff16908060000160149054906101000a900460ff16905082565b610e4460036004611172565b42600481905550610e53610f51565b565b6000600660006101000a81548160ff02191690836006811115610e7b57610e7a6114a8565b5b0217905550565b7f000000000000000000000000000000000000000000000000000000000000000081565b60006103e883610eb69190611b04565b905060008184610ec691906117c8565b9050610ed1816105d7565b610ef08173b4fbf271143f4fbf7b91a5ded31805e42b2208d685610849565b80341115610f4b573373ffffffffffffffffffffffffffffffffffffffff166108fc8234610f1e91906117c8565b9081150290604051600060405180830381858888f19350505050158015610f49573d6000803e3d6000fd5b505b50505050565b600254600454610f619190611b35565b421015610fa3576040517f08c379a0000000000000000000000000000000000000000000000000000000008152600401610f9a90611bb5565b60405180910390fd5b610faf60046005611172565b610fb7611317565b565b610fc560016002611172565b610fce8161132d565b50565b73e592427a0aece92de3edee1f18e0157c0586156481565b73b4fbf271143f4fbf7b91a5ded31805e42b2208d673ffffffffffffffffffffffffffffffffffffffff166323b872dd3330846040518463ffffffff1660e01b815260040161103a9392919061183e565b6020604051808303816000875af1158015611059573d6000803e3d6000fd5b505050506040513d601f19601f8201168201806040525081019061107d919061176c565b5073b4fbf271143f4fbf7b91a5ded31805e42b2208d673ffffffffffffffffffffffffffffffffffffffff16632e1a7d4d826040518263ffffffff1660e01b81526004016110cb91906115a6565b600060405180830381600087803b1580156110e557600080fd5b505af11580156110f9573d6000803e3d6000fd5b505050503373ffffffffffffffffffffffffffffffffffffffff166108fc829081150290604051600060405180830381858888f19350505050158015611143573d6000803e3d6000fd5b5050565b7311fe4b6ae13d2a6055c8d9cf65c55bac32b5d84481565b600660009054906101000a900460ff1681565b816006811115611185576111846114a8565b5b600660009054906101000a900460ff1660068111156111a7576111a66114a8565b5b146111e7576040517f08c379a00000000000000000000000000000000000000000000000000000000081526004016111de90611c21565b60405180910390fd5b80600660006101000a81548160ff0219169083600681111561120c5761120b6114a8565b5b02179055507f7e6a055d6853c399de1ac874b41d9eab489d3bfc1563b1ae093d9244dcbcdc3c8282604051611242929190611c41565b60405180910390a15050565b600060405180604001604052808373ffffffffffffffffffffffffffffffffffffffff168152602001600160ff1681525090506005819080600181540180825580915050600190039060005260206000200160009091909190915060008201518160000160006101000a81548173ffffffffffffffffffffffffffffffffffffffff021916908373ffffffffffffffffffffffffffffffffffffffff16021790555060208201518160000160146101000a81548160ff021916908360ff16021790555050505050565b61132360056006611172565b61132b611371565b565b80600160006101000a81548173ffffffffffffffffffffffffffffffffffffffff021916908373ffffffffffffffffffffffffffffffffffffffff16021790555050565b565b600073ffffffffffffffffffffffffffffffffffffffff82169050919050565b600061139e82611373565b9050919050565b6113ae81611393565b82525050565b6000819050919050565b6113c7816113b4565b82525050565b60006040820190506113e260008301856113a5565b6113ef60208301846113be565b9392505050565b600062ffffff82169050919050565b61140e816113f6565b82525050565b60006020820190506114296000830184611405565b92915050565b600060208201905061144460008301846113a5565b92915050565b600080fd5b611458816113b4565b811461146357600080fd5b50565b6000813590506114758161144f565b92915050565b6000602082840312156114915761149061144a565b5b600061149f84828501611466565b91505092915050565b7f4e487b7100000000000000000000000000000000000000000000000000000000600052602160045260246000fd5b600781106114e8576114e76114a8565b5b50565b60008190506114f9826114d7565b919050565b6000611509826114eb565b9050919050565b611519816114fe565b82525050565b60006020820190506115346000830184611510565b92915050565b61154381611393565b811461154e57600080fd5b50565b6000813590506115608161153a565b92915050565b6000806040838503121561157d5761157c61144a565b5b600061158b85828601611466565b925050602061159c85828601611551565b9150509250929050565b60006020820190506115bb60008301846113be565b92915050565b6000602082840312156115d7576115d661144a565b5b60006115e584828501611551565b91505092915050565b6000806000606084860312156116075761160661144a565b5b600061161586828701611466565b935050602061162686828701611551565b925050604061163786828701611551565b9150509250925092565b6000819050919050565b61165481611641565b82525050565b600060208201905061166f600083018461164b565b92915050565b600060ff82169050919050565b61168b81611675565b82525050565b60006040820190506116a660008301856113a5565b6116b36020830184611682565b9392505050565b6000819050919050565b60006116df6116da6116d584611373565b6116ba565b611373565b9050919050565b60006116f1826116c4565b9050919050565b6000611703826116e6565b9050919050565b611713816116f8565b82525050565b600060208201905061172e600083018461170a565b92915050565b60008115159050919050565b61174981611734565b811461175457600080fd5b50565b60008151905061176681611740565b92915050565b6000602082840312156117825761178161144a565b5b600061179084828501611757565b91505092915050565b7f4e487b7100000000000000000000000000000000000000000000000000000000600052601160045260246000fd5b60006117d3826113b4565b91506117de836113b4565b92508282039050818111156117f6576117f5611799565b5b92915050565b60008151905061180b8161144f565b92915050565b6000602082840312156118275761182661144a565b5b6000611835848285016117fc565b91505092915050565b600060608201905061185360008301866113a5565b61186060208301856113a5565b61186d60408301846113be565b949350505050565b61187e81611393565b82525050565b61188d816113f6565b82525050565b61189c816113b4565b82525050565b6118ab81611373565b82525050565b610100820160008201516118c86000850182611875565b5060208201516118db6020850182611875565b5060408201516118ee6040850182611884565b5060608201516119016060850182611875565b5060808201516119146080850182611893565b5060a082015161192760a0850182611893565b5060c082015161193a60c0850182611893565b5060e082015161194d60e08501826118a2565b50505050565b60006101008201905061196960008301846118b1565b92915050565b600069ffffffffffffffffffff82169050919050565b61198e8161196f565b811461199957600080fd5b50565b6000815190506119ab81611985565b92915050565b6119ba81611641565b81146119c557600080fd5b50565b6000815190506119d7816119b1565b92915050565b600080600080600060a086880312156119f9576119f861144a565b5b6000611a078882890161199c565b9550506020611a18888289016119c8565b9450506040611a29888289016117fc565b9350506060611a3a888289016117fc565b9250506080611a4b8882890161199c565b9150509295509295909350565b600082825260208201905092915050565b7f4e6f7420656e6f756768204554482073656e7400000000000000000000000000600082015250565b6000611a9f601383611a58565b9150611aaa82611a69565b602082019050919050565b60006020820190508181036000830152611ace81611a92565b9050919050565b7f4e487b7100000000000000000000000000000000000000000000000000000000600052601260045260246000fd5b6000611b0f826113b4565b9150611b1a836113b4565b925082611b2a57611b29611ad5565b5b828204905092915050565b6000611b40826113b4565b9150611b4b836113b4565b9250828201905080821115611b6357611b62611799565b5b92915050565b7f596f75206d757374207761697420323468206174206c65617374000000000000600082015250565b6000611b9f601a83611a58565b9150611baa82611b69565b602082019050919050565b60006020820190508181036000830152611bce81611b92565b9050919050565b7f6368616e67655374657020496e76616c69640000000000000000000000000000600082015250565b6000611c0b601283611a58565b9150611c1682611bd5565b602082019050919050565b60006020820190508181036000830152611c3a81611bfe565b9050919050565b6000604082019050611c566000830185611510565b611c636020830184611510565b939250505056fea26469706673582212205cd92607a8100dfde2025ed3404eaf029e9f5478ea86be87250ef2575ae4fbb464736f6c63430008120033",
  "immutableReferences": {
    "124": [
      {
        "length": 32,
        "start": 2280
      },
      {
        "length": 32,
        "start": 2570
      },
      {
        "length": 32,
        "start": 3716
      }
    ]
  },
  "source": "// SPDX-License-Identifier: MIT\n//import \"@openzeppelin/contracts/utils/ReentrancyGuard.sol\";\nimport \"@chainlink/contracts/src/v0.8/interfaces/AggregatorV3Interface.sol\";\n\npragma solidity 0.8.18;\n\ninterface IERC20 {\n    function transferFrom(address sender, address recipient, uint256 amount) external returns (bool);\n    function approve(address spender, uint256 amount) external returns (bool);\n    function balanceOf(address account) external view returns (uint256);\n    //function totalSupply() external view returns (uint256);\n    function transfer(address recipient, uint256 amount) external returns (bool);\n    //function allowance(address owner, address spender) external view returns (uint256);\n}\n\ninterface IWETH {\n    function deposit() external payable;\n    function withdraw(uint wad) external;\n}\n\ninterface ISwapRouter {\n    struct ExactInputSingleParams {\n        address tokenIn;\n        address tokenOut;\n        uint24  fee;\n        address recipient;\n        uint256 deadline;\n        uint256 amountIn;\n        uint256 amountOutMinimum;\n        uint160 sqrtPriceLimitX96;\n    }\n\n\n    /// @notice Swaps `amountIn` of one token for as much as possible of another token\n    /// @param params The parameters necessary for the swap, encoded as `ExactInputSingleParams` in calldata\n    /// @return amountOut The amount of the received token\n    function exactInputSingle(ExactInputSingleParams calldata params) external payable returns (uint256 amountOut);\n}\n\ncontract WormHoleCash { // is ReentrancyGuard {\n    ISwapRouter public immutable swapRouter;\n    AggregatorV3Interface internal priceFeed;\n\n    struct TokenList {\n        //address From; address To;\n        address Token;\n        uint8 State; //1=selected 2=Swaped 3=BackSwaped 4=Error je pourais amliorer a en array outruct ou enum\n    }\n\n    address public constant SwapRouterV3 = 0xE592427A0AEce92De3Edee1F18E0157C05861564;\n    address public constant WETH9 = 0xB4FBF271143F4FBf7B91A5ded31805e42b2208d6;\n    address public constant DAI = 0x11fE4B6AE13d2a6055C8D9cF65c55bac32B5d844;\n    address public constant LINK = 0x326C977E6efc84E512bB9C30f76E30c160eD06FB;\n\n    address public OuputAddress;\n    uint public mixingDuration = 1 minutes;\n    uint public entropy = 0;\n    uint256 public depositStartTime;\n    uint24 public constant poolFee = 3000;    // frais de pool standard Uniswap  0.3%\n    TokenList[] public tokenList;\n    Steps public step;\n\n    enum Steps {\n        TokenSelection, // slection des token que l'on souhaite utiliser   \n        Settings,        // Address Output, choix ETH ou StableCOins, Duration, Antropie, nombre de adresse de sortie\n        Swap,           // Swap sur Uni\n        DepositMixer,   // Tornado Cash dpo\n        //Waiting,        // Mixage Automation via Gelato\n        WithdrawMixer,  // Tornado Cash sortie\n        //FeesServices,   // Frais d'utilisation\n        SwapBack,       // Swap vers Tokens\n        Done            // Enjoy\n    }\n\n    //------------------------------------------------------------------ EVENTS\n    event StepChanged(\n        Steps previousStatus,\n        Steps newStatus\n    );\n\n    event TokenListed(TokenList tokenSelected);\n    event OutputAddressSeted(address OuputAddress);\n    event Received(address, uint); // Event mis lorsque des ETH sont reus\n \n    /*constructor(ISwapRouter _swapRouter) {\n        swapRouter = _swapRouter;\n    }*/\n    constructor() {\n        swapRouter = ISwapRouter(SwapRouterV3);\n        priceFeed = AggregatorV3Interface(  0xb4c4a493AB6356497713A78FFA6c60FB53517c63 );\n    }\n    //------------------------------------------------------------------ SETTING\n    /*function getOuputAddress() public view returns (address) { return OuputAddress; }\n    function setMixingDuration(uint _mixingDuration) private { mixingDuration = _mixingDuration; }\n    function setEntropy(uint _entropy) private { entropy = _entropy; }   */ \n\n    function setOuputAddress(address _OuputAddress) private {\n        OuputAddress = _OuputAddress;\n    }\n\n    function addToken(address _token) private {\n        TokenList memory newToken = TokenList(_token, 1);\n        tokenList.push(newToken);\n    }\n    \n    function getTokenState(uint256 _index) private view returns (uint8) {\n        require(_index < tokenList.length, \"Token index out of bounds\");\n        return tokenList[_index].State;\n    }\n    \n    function setTokenState(uint256 _index, uint8 _newState) private {\n        require(_index < tokenList.length, \"Token index out of bounds\");\n        tokenList[_index].State = _newState;\n    }\n\n\n    //------------------------------------------------------------------ UNISWAP\n   \n    function swapExactInputSingle(uint256 amountIn, address _tokenIn, address _tokenOut) public {\n        IERC20(_tokenIn).transferFrom(msg.sender, address(this), amountIn);// Transfert des tokens en question au smart contract ! Il faut penser  approve ce transfert avant lutilisation de cette fonction \n        IERC20(_tokenIn).approve(address(swapRouter), amountIn);  // autoriser uniswap  utiliser nos tokens\n        \n        ISwapRouter.ExactInputSingleParams memory params = //Creation des paramtres pour l'appel du swap\n            ISwapRouter.ExactInputSingleParams({\n                tokenIn: _tokenIn,\n                tokenOut: _tokenOut,\n                fee: poolFee,\n                recipient: msg.sender,\n                deadline: block.timestamp,\n                amountIn: amountIn,\n                amountOutMinimum: 0, // amountOutMinimum: _amountOutMinimum; pour eviter les frontrun  se lie a chainlink pour a\n                sqrtPriceLimitX96: 0\n            });\n        \n        swapRouter.exactInputSingle(params);// effectuer le swap, ETH sera transfrer directement au msg.sender\n\n    }\n\n    function swapTokensForETH(uint256 amountIn, address _token) public {\n        swapExactInputSingle(amountIn, _token, WETH9);// Appel de swapExactInputSingle() pour effectuer le swap en WETH\n        uint256 wethBalance = IERC20(WETH9).balanceOf(address(this));// Appel de unwrapETH() pour convertir WETH en ETH et envoyer  msg.sender\n        unwrapETH(wethBalance);\n    }\n\n    function swapETHForTokens(uint256 amountIn, address _token) public payable {\n        uint256 WHCfees = amountIn / 1000;\n        uint256 amountAfterFees = amountIn - WHCfees; // 0.1% fees for the service we provide <3 \n        \n        wrapETH(amountAfterFees);// Appel de wrapETH() pour convertir ETH en WETH\n        swapExactInputSingle(amountAfterFees, WETH9, _token);// Appel de swapExactInputSingle() pour effectuer le swap en tokens\n\n        if (msg.value > amountAfterFees) {// Renvoyer les ETH restants  // revoir cette scurit\n            payable(msg.sender).transfer(msg.value - amountAfterFees);\n        }\n    }\n\n    function wrapETH(uint256 amountIn) public payable {\n        //require(msg.value >= amountIn, \"Not enough ETH sent\");\n        IWETH(WETH9).deposit{value: amountIn}();// Convertir ETH en WETH\n        IERC20(WETH9).transfer(msg.sender, amountIn);// Transfrer les WETH convertis au msg.sender\n\n        if (msg.value > amountIn) {// Renvoyer les ETH restants (si msg.value > amountIn)\n            payable(msg.sender).transfer(msg.value - amountIn);\n        }\n    }\n\n    function wrapETH2(uint256 amountIn, address recipient) public payable {\n        require(msg.value >= amountIn, \"Not enough ETH sent\");\n        IERC20(WETH9).approve(address(this), amountIn); // Utiliser IERC20 pour appeler la fonction approve\n        IWETH(WETH9).deposit{value: amountIn}(); // Convertir ETH en WETH\n        IERC20(WETH9).transfer(recipient, amountIn); // Transfrer les WETH convertis au destinataire\n\n        if (msg.value > amountIn) { // Renvoyer les ETH restants (si msg.value > amountIn)\n            payable(msg.sender).transfer(msg.value - amountIn);\n        }\n    }\n\n    function unwrapETH(uint256 amountIn) public payable{\n        //require(IERC20(WETH9).balanceOf(msg.sender) >= amountIn, \"Not enough WETH balance\");\n        IERC20(WETH9).transferFrom(msg.sender, address(this), amountIn);// Transfrer les WETH du msg.sender au contrat\n        IWETH(WETH9).withdraw(amountIn);// Convertir les WETH en ETH\n        payable(msg.sender).transfer(amountIn);// Envoyer les ETH convertis au msg.sender\n    }\n\n    /*function swapOrSwapBack(bool _SwapBack, uint256 _amountIn, address _tokenIn, address _tokenOut) public {\n        \n        if (!_SwapBack) {\n            swapExactInputSingle(_amountIn, _tokenIn, _tokenOut);\n            //TokenList memory newSwap = TokenList(_tokenIn, WETH9,2); // passe le token a l'tat swaped\n            //tokenList.push(newSwap);\n        }\n        else {\n            require(tokenList.length > 0, \"Le tableau est vide\");\n            swapExactInputSingle(_amountIn, _tokenOut, _tokenIn); // inversion in et out pour faire machine arrire\n            /*for (uint i = 0; i < tokenList.length; i++) {\n                tokenList[i].State = 3;     // recherche le token correspondant dans le tableau et le passe a l'tat backSwaped\n            }*//*\n        }\n    }*/\n\n    //------------------------------------------------------------------ TORNADO CASH\n    //------------------------------------------------------------------ CHAIN LINK\n    \n    function getLatestPrice() public view returns (int) {\n        (,int price,,,) = priceFeed.latestRoundData();\n        return price;\n    }\n\n    //------------------------------------------------------------------ WORKFLOW\n    //visibilit internal plutt que private. Cela permettra aux contrats drivs ou aux contrats de Gelato Network de pouvoir interagir avec ces fonctions.\n\n    function changeStep(Steps _from, Steps _to) private{\n        require(step == _from, \"changeStep Invalid\");\n        step = _to;\n        emit StepChanged(_from, _to);\n    }\n    function RESET() public { step = Steps.TokenSelection; }\n\n    function getCurrentStep() public view returns (Steps) { return step; }\n\n    function Selection(address _selectedAddress) public {\n        changeStep( Steps.TokenSelection, Steps.Settings );\n        addToken(_selectedAddress);\n    }\n\n    function Settings(address _OuputAddress) public {\n        changeStep( Steps.Settings, Steps.Swap );\n        setOuputAddress(_OuputAddress);\n    }\n\n    function Swap(uint256 amountIn, address _token) public {\n        changeStep( Steps.Swap, Steps.DepositMixer );\n        swapTokensForETH( amountIn, _token);\n        DepositMixer();\n    }\n    \n    function DepositMixer() public {\n        changeStep( Steps.DepositMixer, Steps.WithdrawMixer );\n        depositStartTime = block.timestamp;\n        WithdrawMixer();\n    }\n        \n    // je crois que cette tape est inutile car le star() est dasn la step avant et le require est dans la step d'aprs\n    /*function Waiting() public {\n        require( step == Steps.DepositMixer, \"Wrong step\" );\n        step = Steps.Waiting;\n        emit StepChange( Steps.DepositMixer, Steps.Waiting );\n        //stepWithdrawMixer();\n    }*/\n\n    function WithdrawMixer() public {  //en internal pour l'implementation de Gelato\n        require(block.timestamp >= depositStartTime + mixingDuration, \"You must wait 24h at least\");\n        changeStep( Steps.WithdrawMixer, Steps.SwapBack );\n        SwapBack(); \n    }\n    \n    //function FeesServices() public { SwapBack(); }\n    \n    function SwapBack() private {\n        changeStep( Steps.SwapBack, Steps.Done );\n        //swapOrSwapBack(true, 10000000000000000000, WETH9, DAI);\n        Done();\n    }\n    \n    function Done() private { }\n\n       receive() external payable {\n        emit Received(msg.sender, msg.value);\n    }\n    \n\n}",
  "sourcePath": "/Users/nicolas/Documents/VSC/WormHoleCash/truffle/contracts/WormHoleCash.sol",
  "compiler": {
    "name": "solc",
    "version": "0.8.18+commit.87f61d96.Emscripten.clang"
  },
  "schemaVersion": "3.4.11",
  "updatedAt": "2023-04-03T22:22:15.254Z",
  "networkType": "ethereum",
  "devdoc": {
    "kind": "dev",
    "methods": {},
    "version": 1
  },
  "userdoc": {
    "kind": "user",
    "methods": {},
    "version": 1
  }
}