{
  "contractName": "WormHoleCash",
  "abi": [
    {
      "inputs": [],
      "stateMutability": "nonpayable",
      "type": "constructor"
    },
    {
      "anonymous": false,
      "inputs": [
        {
          "indexed": true,
          "internalType": "address",
          "name": "user",
          "type": "address"
        },
        {
          "indexed": false,
          "internalType": "address",
          "name": "outputAddress",
          "type": "address"
        }
      ],
      "name": "OutputAddressSet",
      "type": "event"
    },
    {
      "anonymous": false,
      "inputs": [
        {
          "indexed": false,
          "internalType": "address",
          "name": "",
          "type": "address"
        },
        {
          "indexed": false,
          "internalType": "uint256",
          "name": "",
          "type": "uint256"
        }
      ],
      "name": "Received",
      "type": "event"
    },
    {
      "anonymous": false,
      "inputs": [
        {
          "indexed": true,
          "internalType": "address",
          "name": "user",
          "type": "address"
        },
        {
          "indexed": false,
          "internalType": "enum WormHoleCash.Steps",
          "name": "previousStatus",
          "type": "uint8"
        },
        {
          "indexed": false,
          "internalType": "enum WormHoleCash.Steps",
          "name": "newStatus",
          "type": "uint8"
        }
      ],
      "name": "StepChanged",
      "type": "event"
    },
    {
      "anonymous": false,
      "inputs": [
        {
          "indexed": true,
          "internalType": "address",
          "name": "user",
          "type": "address"
        },
        {
          "indexed": false,
          "internalType": "uint256",
          "name": "amountIn",
          "type": "uint256"
        },
        {
          "indexed": false,
          "internalType": "address",
          "name": "_token",
          "type": "address"
        }
      ],
      "name": "Swaped",
      "type": "event"
    },
    {
      "anonymous": false,
      "inputs": [
        {
          "indexed": true,
          "internalType": "address",
          "name": "user",
          "type": "address"
        },
        {
          "components": [
            {
              "internalType": "address",
              "name": "Token",
              "type": "address"
            },
            {
              "internalType": "uint8",
              "name": "State",
              "type": "uint8"
            }
          ],
          "indexed": false,
          "internalType": "struct WormHoleCash.TokenList",
          "name": "tokenSelected",
          "type": "tuple"
        }
      ],
      "name": "TokenListed",
      "type": "event"
    },
    {
      "inputs": [],
      "name": "DAI",
      "outputs": [
        {
          "internalType": "address",
          "name": "",
          "type": "address"
        }
      ],
      "stateMutability": "view",
      "type": "function",
      "constant": true
    },
    {
      "inputs": [],
      "name": "LINK",
      "outputs": [
        {
          "internalType": "address",
          "name": "",
          "type": "address"
        }
      ],
      "stateMutability": "view",
      "type": "function",
      "constant": true
    },
    {
      "inputs": [],
      "name": "OuputAddress",
      "outputs": [
        {
          "internalType": "address",
          "name": "",
          "type": "address"
        }
      ],
      "stateMutability": "view",
      "type": "function",
      "constant": true
    },
    {
      "inputs": [],
      "name": "SwapRouterV3",
      "outputs": [
        {
          "internalType": "address",
          "name": "",
          "type": "address"
        }
      ],
      "stateMutability": "view",
      "type": "function",
      "constant": true
    },
    {
      "inputs": [],
      "name": "WETH9",
      "outputs": [
        {
          "internalType": "address",
          "name": "",
          "type": "address"
        }
      ],
      "stateMutability": "view",
      "type": "function",
      "constant": true
    },
    {
      "inputs": [],
      "name": "depositStartTime",
      "outputs": [
        {
          "internalType": "uint256",
          "name": "",
          "type": "uint256"
        }
      ],
      "stateMutability": "view",
      "type": "function",
      "constant": true
    },
    {
      "inputs": [],
      "name": "mixingDuration",
      "outputs": [
        {
          "internalType": "uint256",
          "name": "",
          "type": "uint256"
        }
      ],
      "stateMutability": "view",
      "type": "function",
      "constant": true
    },
    {
      "inputs": [],
      "name": "poolFee",
      "outputs": [
        {
          "internalType": "uint24",
          "name": "",
          "type": "uint24"
        }
      ],
      "stateMutability": "view",
      "type": "function",
      "constant": true
    },
    {
      "inputs": [],
      "name": "step",
      "outputs": [
        {
          "internalType": "enum WormHoleCash.Steps",
          "name": "",
          "type": "uint8"
        }
      ],
      "stateMutability": "view",
      "type": "function",
      "constant": true
    },
    {
      "inputs": [],
      "name": "swapRouter",
      "outputs": [
        {
          "internalType": "contract ISwapRouter",
          "name": "",
          "type": "address"
        }
      ],
      "stateMutability": "view",
      "type": "function",
      "constant": true
    },
    {
      "inputs": [
        {
          "internalType": "uint256",
          "name": "",
          "type": "uint256"
        }
      ],
      "name": "tokenList",
      "outputs": [
        {
          "internalType": "address",
          "name": "Token",
          "type": "address"
        },
        {
          "internalType": "uint8",
          "name": "State",
          "type": "uint8"
        }
      ],
      "stateMutability": "view",
      "type": "function",
      "constant": true
    },
    {
      "stateMutability": "payable",
      "type": "receive",
      "payable": true
    },
    {
      "inputs": [
        {
          "internalType": "uint256",
          "name": "amountIn",
          "type": "uint256"
        },
        {
          "internalType": "address",
          "name": "_tokenIn",
          "type": "address"
        },
        {
          "internalType": "address",
          "name": "_tokenOut",
          "type": "address"
        }
      ],
      "name": "swapExactInputSingle",
      "outputs": [],
      "stateMutability": "nonpayable",
      "type": "function"
    },
    {
      "inputs": [
        {
          "internalType": "uint256",
          "name": "amountIn",
          "type": "uint256"
        },
        {
          "internalType": "address",
          "name": "_token",
          "type": "address"
        }
      ],
      "name": "swapTokensForETH",
      "outputs": [],
      "stateMutability": "nonpayable",
      "type": "function"
    },
    {
      "inputs": [
        {
          "internalType": "uint256",
          "name": "amountIn",
          "type": "uint256"
        },
        {
          "internalType": "address",
          "name": "_token",
          "type": "address"
        }
      ],
      "name": "swapETHForTokens",
      "outputs": [],
      "stateMutability": "payable",
      "type": "function",
      "payable": true
    },
    {
      "inputs": [
        {
          "internalType": "uint256",
          "name": "amountIn",
          "type": "uint256"
        }
      ],
      "name": "wrapETH",
      "outputs": [],
      "stateMutability": "payable",
      "type": "function",
      "payable": true
    },
    {
      "inputs": [
        {
          "internalType": "uint256",
          "name": "amountIn",
          "type": "uint256"
        },
        {
          "internalType": "address",
          "name": "recipient",
          "type": "address"
        }
      ],
      "name": "wrapETH2",
      "outputs": [],
      "stateMutability": "payable",
      "type": "function",
      "payable": true
    },
    {
      "inputs": [
        {
          "internalType": "uint256",
          "name": "amountIn",
          "type": "uint256"
        }
      ],
      "name": "unwrapETH",
      "outputs": [],
      "stateMutability": "payable",
      "type": "function",
      "payable": true
    },
    {
      "inputs": [],
      "name": "getLatestPrice",
      "outputs": [
        {
          "internalType": "int256",
          "name": "",
          "type": "int256"
        }
      ],
      "stateMutability": "view",
      "type": "function",
      "constant": true
    },
    {
      "inputs": [],
      "name": "reset",
      "outputs": [],
      "stateMutability": "nonpayable",
      "type": "function"
    },
    {
      "inputs": [],
      "name": "getCurrentStep",
      "outputs": [
        {
          "internalType": "enum WormHoleCash.Steps",
          "name": "",
          "type": "uint8"
        }
      ],
      "stateMutability": "view",
      "type": "function",
      "constant": true
    },
    {
      "inputs": [
        {
          "internalType": "address",
          "name": "_selectedAddress",
          "type": "address"
        }
      ],
      "name": "Selection",
      "outputs": [],
      "stateMutability": "nonpayable",
      "type": "function"
    },
    {
      "inputs": [
        {
          "internalType": "address",
          "name": "_outputAddress",
          "type": "address"
        }
      ],
      "name": "Settings",
      "outputs": [],
      "stateMutability": "nonpayable",
      "type": "function"
    },
    {
      "inputs": [
        {
          "internalType": "uint256",
          "name": "amountIn",
          "type": "uint256"
        },
        {
          "internalType": "address",
          "name": "_token",
          "type": "address"
        }
      ],
      "name": "Swap",
      "outputs": [],
      "stateMutability": "nonpayable",
      "type": "function"
    },
    {
      "inputs": [],
      "name": "DepositMixer",
      "outputs": [],
      "stateMutability": "nonpayable",
      "type": "function"
    },
    {
      "inputs": [],
      "name": "WithdrawMixer",
      "outputs": [],
      "stateMutability": "nonpayable",
      "type": "function"
    }
  ],
  "bytecode": "0x60a0604052603c60045534801561001557600080fd5b5073e592427a0aece92de3edee1f18e0157c0586156473ffffffffffffffffffffffffffffffffffffffff1660808173ffffffffffffffffffffffffffffffffffffffff168152505073b4c4a493ab6356497713a78ffa6c60fb53517c636000806101000a81548173ffffffffffffffffffffffffffffffffffffffff021916908373ffffffffffffffffffffffffffffffffffffffff16021790555060805161204e6100db6000396000818161092901528181610a4b0152610e98015261204e6000f3fe60806040526004361061016a5760003560e01c806392f23918116100d1578063c88da83d1161008a578063d2a6950111610064578063d2a69501146104ea578063d826f88f14610506578063e0bab4c41461051d578063e25fe17514610548576101aa565b8063c88da83d1461047f578063cba2a85a14610496578063d1a3925a146104bf576101aa565b806392f239181461039c5780639863b8dc146103c75780639ead7222146103e3578063a27486ea14610421578063c31c9c0714610438578063c644ee6f14610463576101aa565b80634cc40312116101235780634cc40312146102a05780634ce4dca5146102c9578063587419d5146102f2578063757e61e01461031d57806388d53836146103465780638e15f47314610371576101aa565b8063089fe6aa146101af5780631b6b6d23146101da5780631c58db4f146102055780631d3824ea1461022157806323aad1841461024c5780634aa4a4fc14610275576101aa565b366101aa577f88a5966d370b9919b20f3e2c13ff65706f196a4e32cc2c12bf57088f8852587433346040516101a09291906116f9565b60405180910390a1005b600080fd5b3480156101bb57600080fd5b506101c4610573565b6040516101d19190611740565b60405180910390f35b3480156101e657600080fd5b506101ef610579565b6040516101fc919061175b565b60405180910390f35b61021f600480360381019061021a91906117a7565b610591565b005b34801561022d57600080fd5b506102366106f7565b604051610243919061184b565b60405180910390f35b34801561025857600080fd5b50610273600480360381019061026e9190611892565b61074b565b005b34801561028157600080fd5b5061028a61085a565b604051610297919061175b565b60405180910390f35b3480156102ac57600080fd5b506102c760048036038101906102c291906118d2565b610872565b005b3480156102d557600080fd5b506102f060048036038101906102eb91906118ff565b61088a565b005b3480156102fe57600080fd5b50610307610aec565b6040516103149190611952565b60405180910390f35b34801561032957600080fd5b50610344600480360381019061033f9190611892565b610af2565b005b34801561035257600080fd5b5061035b610b14565b604051610368919061175b565b60405180910390f35b34801561037d57600080fd5b50610386610b3a565b6040516103939190611986565b60405180910390f35b3480156103a857600080fd5b506103b1610bd9565b6040516103be9190611952565b60405180910390f35b6103e160048036038101906103dc9190611892565b610bdf565b005b3480156103ef57600080fd5b5061040a600480360381019061040591906117a7565b610e1c565b6040516104189291906119bd565b60405180910390f35b34801561042d57600080fd5b50610436610e79565b005b34801561044457600080fd5b5061044d610e96565b60405161045a9190611a45565b60405180910390f35b61047d60048036038101906104789190611892565b610eba565b005b34801561048b57600080fd5b50610494610f65565b005b3480156104a257600080fd5b506104bd60048036038101906104b891906118d2565b61100d565b005b3480156104cb57600080fd5b506104d4611025565b6040516104e1919061175b565b60405180910390f35b61050460048036038101906104ff91906117a7565b61103d565b005b34801561051257600080fd5b5061051b61119b565b005b34801561052957600080fd5b50610532611253565b60405161053f919061175b565b60405180910390f35b34801561055457600080fd5b5061055d61126b565b60405161056a919061184b565b60405180910390f35b610bb881565b73326c977e6efc84e512bb9c30f76e30c160ed06fb81565b73b4fbf271143f4fbf7b91a5ded31805e42b2208d673ffffffffffffffffffffffffffffffffffffffff1663d0e30db0826040518263ffffffff1660e01b81526004016000604051808303818588803b1580156105ed57600080fd5b505af1158015610601573d6000803e3d6000fd5b505050505073b4fbf271143f4fbf7b91a5ded31805e42b2208d673ffffffffffffffffffffffffffffffffffffffff1663a9059cbb33836040518363ffffffff1660e01b81526004016106559291906116f9565b6020604051808303816000875af1158015610674573d6000803e3d6000fd5b505050506040513d601f19601f820116820180604052508101906106989190611a98565b50803411156106f4573373ffffffffffffffffffffffffffffffffffffffff166108fc82346106c79190611af4565b9081150290604051600060405180830381858888f193505050501580156106f2573d6000803e3d6000fd5b505b50565b6000600260003373ffffffffffffffffffffffffffffffffffffffff1673ffffffffffffffffffffffffffffffffffffffff16815260200190815260200160002060009054906101000a900460ff16905090565b61076a828273b4fbf271143f4fbf7b91a5ded31805e42b2208d661088a565b600073b4fbf271143f4fbf7b91a5ded31805e42b2208d673ffffffffffffffffffffffffffffffffffffffff166370a08231306040518263ffffffff1660e01b81526004016107b9919061175b565b602060405180830381865afa1580156107d6573d6000803e3d6000fd5b505050506040513d601f19601f820116820180604052508101906107fa9190611b3d565b90506108058161103d565b3373ffffffffffffffffffffffffffffffffffffffff167f1a198c38fdbbe5c8aed6492f511de47f6443716bb632161eaa137fbf0caf6763848460405161084d929190611b6a565b60405180910390a2505050565b73b4fbf271143f4fbf7b91a5ded31805e42b2208d681565b61087e6000600161127e565b610887816113eb565b50565b8173ffffffffffffffffffffffffffffffffffffffff166323b872dd3330866040518463ffffffff1660e01b81526004016108c793929190611b93565b6020604051808303816000875af11580156108e6573d6000803e3d6000fd5b505050506040513d601f19601f8201168201806040525081019061090a9190611a98565b508173ffffffffffffffffffffffffffffffffffffffff1663095ea7b37f0000000000000000000000000000000000000000000000000000000000000000856040518363ffffffff1660e01b81526004016109669291906116f9565b6020604051808303816000875af1158015610985573d6000803e3d6000fd5b505050506040513d601f19601f820116820180604052508101906109a99190611a98565b5060006040518061010001604052808473ffffffffffffffffffffffffffffffffffffffff1681526020018373ffffffffffffffffffffffffffffffffffffffff168152602001610bb862ffffff1681526020013373ffffffffffffffffffffffffffffffffffffffff16815260200142815260200185815260200160008152602001600073ffffffffffffffffffffffffffffffffffffffff1681525090507f000000000000000000000000000000000000000000000000000000000000000073ffffffffffffffffffffffffffffffffffffffff1663414bf389826040518263ffffffff1660e01b8152600401610aa29190611ca8565b6020604051808303816000875af1158015610ac1573d6000803e3d6000fd5b505050506040513d601f19601f82011682018060405250810190610ae59190611b3d565b5050505050565b60055481565b610afe6002600361127e565b610b08828261074b565b610b10610e79565b5050565b600360009054906101000a900473ffffffffffffffffffffffffffffffffffffffff1681565b60008060008054906101000a900473ffffffffffffffffffffffffffffffffffffffff1673ffffffffffffffffffffffffffffffffffffffff1663feaf968c6040518163ffffffff1660e01b815260040160a060405180830381865afa158015610ba8573d6000803e3d6000fd5b505050506040513d601f19601f82011682018060405250810190610bcc9190611d32565b5050509150508091505090565b60045481565b81341015610c22576040517f08c379a0000000000000000000000000000000000000000000000000000000008152600401610c1990611e0a565b60405180910390fd5b73b4fbf271143f4fbf7b91a5ded31805e42b2208d673ffffffffffffffffffffffffffffffffffffffff1663095ea7b330846040518363ffffffff1660e01b8152600401610c719291906116f9565b6020604051808303816000875af1158015610c90573d6000803e3d6000fd5b505050506040513d601f19601f82011682018060405250810190610cb49190611a98565b5073b4fbf271143f4fbf7b91a5ded31805e42b2208d673ffffffffffffffffffffffffffffffffffffffff1663d0e30db0836040518263ffffffff1660e01b81526004016000604051808303818588803b158015610d1157600080fd5b505af1158015610d25573d6000803e3d6000fd5b505050505073b4fbf271143f4fbf7b91a5ded31805e42b2208d673ffffffffffffffffffffffffffffffffffffffff1663a9059cbb82846040518363ffffffff1660e01b8152600401610d799291906116f9565b6020604051808303816000875af1158015610d98573d6000803e3d6000fd5b505050506040513d601f19601f82011682018060405250810190610dbc9190611a98565b5081341115610e18573373ffffffffffffffffffffffffffffffffffffffff166108fc8334610deb9190611af4565b9081150290604051600060405180830381858888f19350505050158015610e16573d6000803e3d6000fd5b505b5050565b60068181548110610e2c57600080fd5b906000526020600020016000915090508060000160009054906101000a900473ffffffffffffffffffffffffffffffffffffffff16908060000160149054906101000a900460ff16905082565b610e856003600461127e565b42600581905550610e94610f65565b565b7f000000000000000000000000000000000000000000000000000000000000000081565b60006103e883610eca9190611e59565b905060008184610eda9190611af4565b9050610ee581610591565b610f048173b4fbf271143f4fbf7b91a5ded31805e42b2208d68561088a565b80341115610f5f573373ffffffffffffffffffffffffffffffffffffffff166108fc8234610f329190611af4565b9081150290604051600060405180830381858888f19350505050158015610f5d573d6000803e3d6000fd5b505b50505050565b600454600160003373ffffffffffffffffffffffffffffffffffffffff1673ffffffffffffffffffffffffffffffffffffffff16815260200190815260200160002060020154610fb59190611e8a565b421015610ff7576040517f08c379a0000000000000000000000000000000000000000000000000000000008152600401610fee90611f0a565b60405180910390fd5b6110036004600561127e565b61100b611542565b565b6110196001600261127e565b61102281611558565b50565b73e592427a0aece92de3edee1f18e0157c0586156481565b73b4fbf271143f4fbf7b91a5ded31805e42b2208d673ffffffffffffffffffffffffffffffffffffffff166323b872dd3330846040518463ffffffff1660e01b815260040161108e93929190611b93565b6020604051808303816000875af11580156110ad573d6000803e3d6000fd5b505050506040513d601f19601f820116820180604052508101906110d19190611a98565b5073b4fbf271143f4fbf7b91a5ded31805e42b2208d673ffffffffffffffffffffffffffffffffffffffff16632e1a7d4d826040518263ffffffff1660e01b815260040161111f9190611952565b600060405180830381600087803b15801561113957600080fd5b505af115801561114d573d6000803e3d6000fd5b505050503373ffffffffffffffffffffffffffffffffffffffff166108fc829081150290604051600060405180830381858888f19350505050158015611197573d6000803e3d6000fd5b5050565b6000600260003373ffffffffffffffffffffffffffffffffffffffff1673ffffffffffffffffffffffffffffffffffffffff16815260200190815260200160002060006101000a81548160ff021916908360068111156111fe576111fd6117d4565b5b0217905550600160003373ffffffffffffffffffffffffffffffffffffffff1673ffffffffffffffffffffffffffffffffffffffff1681526020019081526020016000206000016000611251919061162c565b565b7311fe4b6ae13d2a6055c8d9cf65c55bac32b5d84481565b600760009054906101000a900460ff1681565b816006811115611291576112906117d4565b5b600260003373ffffffffffffffffffffffffffffffffffffffff1673ffffffffffffffffffffffffffffffffffffffff16815260200190815260200160002060009054906101000a900460ff1660068111156112f0576112ef6117d4565b5b14611330576040517f08c379a000000000000000000000000000000000000000000000000000000000815260040161132790611f76565b60405180910390fd5b80600260003373ffffffffffffffffffffffffffffffffffffffff1673ffffffffffffffffffffffffffffffffffffffff16815260200190815260200160002060006101000a81548160ff02191690836006811115611392576113916117d4565b5b02179055503373ffffffffffffffffffffffffffffffffffffffff167f1760e9f51927ce74cbf718ce51630e2cf6dac75a7a31ebebff9b91b3c41a096683836040516113df929190611f96565b60405180910390a25050565b600060405180604001604052808373ffffffffffffffffffffffffffffffffffffffff168152602001600160ff168152509050600160003373ffffffffffffffffffffffffffffffffffffffff1673ffffffffffffffffffffffffffffffffffffffff168152602001908152602001600020600001819080600181540180825580915050600190039060005260206000200160009091909190915060008201518160000160006101000a81548173ffffffffffffffffffffffffffffffffffffffff021916908373ffffffffffffffffffffffffffffffffffffffff16021790555060208201518160000160146101000a81548160ff021916908360ff16021790555050503373ffffffffffffffffffffffffffffffffffffffff167f127e7f5ff34fbd605e67739e9fe41503ca7b68d8765351b81e1bfa9a0860d972826040516115369190611ffd565b60405180910390a25050565b61154e6005600661127e565b61155661162a565b565b80600160003373ffffffffffffffffffffffffffffffffffffffff1673ffffffffffffffffffffffffffffffffffffffff16815260200190815260200160002060010160006101000a81548173ffffffffffffffffffffffffffffffffffffffff021916908373ffffffffffffffffffffffffffffffffffffffff1602179055503373ffffffffffffffffffffffffffffffffffffffff167fc395278804de156198ca2eb5fb947e17d0ebb6fc2cefd765748e6b0230c262168260405161161f919061175b565b60405180910390a250565b565b508054600082559060005260206000209081019061164a919061164d565b50565b5b8082111561169b57600080820160006101000a81549073ffffffffffffffffffffffffffffffffffffffff02191690556000820160146101000a81549060ff02191690555060010161164e565b5090565b600073ffffffffffffffffffffffffffffffffffffffff82169050919050565b60006116ca8261169f565b9050919050565b6116da816116bf565b82525050565b6000819050919050565b6116f3816116e0565b82525050565b600060408201905061170e60008301856116d1565b61171b60208301846116ea565b9392505050565b600062ffffff82169050919050565b61173a81611722565b82525050565b60006020820190506117556000830184611731565b92915050565b600060208201905061177060008301846116d1565b92915050565b600080fd5b611784816116e0565b811461178f57600080fd5b50565b6000813590506117a18161177b565b92915050565b6000602082840312156117bd576117bc611776565b5b60006117cb84828501611792565b91505092915050565b7f4e487b7100000000000000000000000000000000000000000000000000000000600052602160045260246000fd5b60078110611814576118136117d4565b5b50565b600081905061182582611803565b919050565b600061183582611817565b9050919050565b6118458161182a565b82525050565b6000602082019050611860600083018461183c565b92915050565b61186f816116bf565b811461187a57600080fd5b50565b60008135905061188c81611866565b92915050565b600080604083850312156118a9576118a8611776565b5b60006118b785828601611792565b92505060206118c88582860161187d565b9150509250929050565b6000602082840312156118e8576118e7611776565b5b60006118f68482850161187d565b91505092915050565b60008060006060848603121561191857611917611776565b5b600061192686828701611792565b93505060206119378682870161187d565b92505060406119488682870161187d565b9150509250925092565b600060208201905061196760008301846116ea565b92915050565b6000819050919050565b6119808161196d565b82525050565b600060208201905061199b6000830184611977565b92915050565b600060ff82169050919050565b6119b7816119a1565b82525050565b60006040820190506119d260008301856116d1565b6119df60208301846119ae565b9392505050565b6000819050919050565b6000611a0b611a06611a018461169f565b6119e6565b61169f565b9050919050565b6000611a1d826119f0565b9050919050565b6000611a2f82611a12565b9050919050565b611a3f81611a24565b82525050565b6000602082019050611a5a6000830184611a36565b92915050565b60008115159050919050565b611a7581611a60565b8114611a8057600080fd5b50565b600081519050611a9281611a6c565b92915050565b600060208284031215611aae57611aad611776565b5b6000611abc84828501611a83565b91505092915050565b7f4e487b7100000000000000000000000000000000000000000000000000000000600052601160045260246000fd5b6000611aff826116e0565b9150611b0a836116e0565b9250828203905081811115611b2257611b21611ac5565b5b92915050565b600081519050611b378161177b565b92915050565b600060208284031215611b5357611b52611776565b5b6000611b6184828501611b28565b91505092915050565b6000604082019050611b7f60008301856116ea565b611b8c60208301846116d1565b9392505050565b6000606082019050611ba860008301866116d1565b611bb560208301856116d1565b611bc260408301846116ea565b949350505050565b611bd3816116bf565b82525050565b611be281611722565b82525050565b611bf1816116e0565b82525050565b611c008161169f565b82525050565b61010082016000820151611c1d6000850182611bca565b506020820151611c306020850182611bca565b506040820151611c436040850182611bd9565b506060820151611c566060850182611bca565b506080820151611c696080850182611be8565b5060a0820151611c7c60a0850182611be8565b5060c0820151611c8f60c0850182611be8565b5060e0820151611ca260e0850182611bf7565b50505050565b600061010082019050611cbe6000830184611c06565b92915050565b600069ffffffffffffffffffff82169050919050565b611ce381611cc4565b8114611cee57600080fd5b50565b600081519050611d0081611cda565b92915050565b611d0f8161196d565b8114611d1a57600080fd5b50565b600081519050611d2c81611d06565b92915050565b600080600080600060a08688031215611d4e57611d4d611776565b5b6000611d5c88828901611cf1565b9550506020611d6d88828901611d1d565b9450506040611d7e88828901611b28565b9350506060611d8f88828901611b28565b9250506080611da088828901611cf1565b9150509295509295909350565b600082825260208201905092915050565b7f4e6f7420656e6f756768204554482073656e7400000000000000000000000000600082015250565b6000611df4601383611dad565b9150611dff82611dbe565b602082019050919050565b60006020820190508181036000830152611e2381611de7565b9050919050565b7f4e487b7100000000000000000000000000000000000000000000000000000000600052601260045260246000fd5b6000611e64826116e0565b9150611e6f836116e0565b925082611e7f57611e7e611e2a565b5b828204905092915050565b6000611e95826116e0565b9150611ea0836116e0565b9250828201905080821115611eb857611eb7611ac5565b5b92915050565b7f596f75206d757374207761697420323468206174206c65617374000000000000600082015250565b6000611ef4601a83611dad565b9150611eff82611ebe565b602082019050919050565b60006020820190508181036000830152611f2381611ee7565b9050919050565b7f6368616e6765537465702829206e6f7420706f737369626c6500000000000000600082015250565b6000611f60601983611dad565b9150611f6b82611f2a565b602082019050919050565b60006020820190508181036000830152611f8f81611f53565b9050919050565b6000604082019050611fab600083018561183c565b611fb8602083018461183c565b9392505050565b611fc8816119a1565b82525050565b604082016000820151611fe46000850182611bca565b506020820151611ff76020850182611fbf565b50505050565b60006040820190506120126000830184611fce565b9291505056fea2646970667358221220c568ed3b864663005554d875db66076c3b9f79230e0ea967d7add9a3f2172e1e64736f6c63430008120033",
  "immutableReferences": {
    "124": [
      {
        "length": 32,
        "start": 2345
      },
      {
        "length": 32,
        "start": 2635
      },
      {
        "length": 32,
        "start": 3736
      }
    ]
  },
  "source": "// SPDX-License-Identifier: MIT\n//import \"@openzeppelin/contracts/utils/ReentrancyGuard.sol\";\nimport \"@chainlink/contracts/src/v0.8/interfaces/AggregatorV3Interface.sol\";\n\npragma solidity 0.8.18;\n    //------------------------------------------------------------------ INTERFACES\ninterface IERC20 {\n    function transferFrom(address sender, address recipient, uint256 amount) external returns (bool);\n    function approve(address spender, uint256 amount) external returns (bool);\n    function balanceOf(address account) external view returns (uint256);\n    //function totalSupply() external view returns (uint256);\n    function transfer(address recipient, uint256 amount) external returns (bool);\n    //function allowance(address owner, address spender) external view returns (uint256);\n}\n\ninterface IWETH {\n    function deposit() external payable;\n    function withdraw(uint wad) external;\n}\n\ninterface ISwapRouter {\n\n    struct ExactInputSingleParams {\n        address tokenIn;\n        address tokenOut;\n        uint24  fee;\n        address recipient;\n        uint256 deadline;\n        uint256 amountIn;\n        uint256 amountOutMinimum;\n        uint160 sqrtPriceLimitX96;\n    }\n\n\n    /// @notice Swaps `amountIn` of one token for as much as possible of another token\n    /// @param params The parameters necessary for the swap, encoded as `ExactInputSingleParams` in calldata\n    /// @return amountOut The amount of the received token\n    function exactInputSingle(ExactInputSingleParams calldata params) external payable returns (uint256 amountOut);\n}\n\ncontract WormHoleCash { // is ReentrancyGuard {\n    ISwapRouter public immutable swapRouter;\n    AggregatorV3Interface internal priceFeed;\n\n    //------------------------------------------------------------------ STRUCTURES\n    struct UserData {\n        TokenList[] tokenList;\n        address outputAddress;\n        uint depositStartTime;\n        Steps step;\n    }\n\n    struct TokenList {\n        //address From; address To;\n        address Token;\n        uint8 State; //1=selected 2=Swaped 3=BackSwaped 4=Error je pourais amliorer a en array outruct ou enum\n    }\n\n    mapping(address => UserData) private usersData;\n    mapping(address => Steps) private userSteps;\n\n    address public constant SwapRouterV3 = 0xE592427A0AEce92De3Edee1F18E0157C05861564;\n    address public constant WETH9 = 0xB4FBF271143F4FBf7B91A5ded31805e42b2208d6;\n    address public constant DAI = 0x11fE4B6AE13d2a6055C8D9cF65c55bac32B5d844;\n    address public constant LINK = 0x326C977E6efc84E512bB9C30f76E30c160eD06FB;\n\n    address public OuputAddress;\n    uint public mixingDuration = 1 minutes; // Only for Demo\n    //uint public entropy = 0;\n    uint256 public depositStartTime;\n    uint24 public constant poolFee = 3000;    // frais de pool standard Uniswap  0.3%\n    TokenList[] public tokenList;\n    Steps public step;\n\n    enum Steps {\n        TokenSelection, // slection des token que l'on souhaite utiliser   \n        Settings,        // Address Output, choix ETH ou StableCOins, Duration, Antropie, nombre de adresse de sortie\n        Swap,           // Swap sur Uni\n        DepositMixer,   // Tornado Cash dpo\n        //Waiting,        // Mixage Automation via Gelato\n        WithdrawMixer,  // Tornado Cash sortie\n        //FeesServices,   // Frais d'utilisation\n        SwapBack,       // Swap vers Tokens\n        Done            // Enjoy\n    }\n\n    //------------------------------------------------------------------ EVENTS\n    /*event StepChanged(\n        Steps previousStatus,\n        Steps newStatus\n    );*/\n    event StepChanged( address indexed user, Steps previousStatus, Steps newStatus );\n    event TokenListed( address indexed user,TokenList tokenSelected);\n    event OutputAddressSet( address indexed user, address outputAddress ); //event OutputAddressSeted(address OuputAddress);\n    event Received(address, uint); // Event mis lorsque des ETH sont reus\n    event Swaped( address indexed user,uint256 amountIn, address _token);\n \n    /*constructor(ISwapRouter _swapRouter) { swapRouter = _swapRouter; }*/\n    constructor() {\n        swapRouter = ISwapRouter(SwapRouterV3);\n        priceFeed = AggregatorV3Interface(  0xb4c4a493AB6356497713A78FFA6c60FB53517c63 );\n    }\n    //------------------------------------------------------------------ SETTING\n    /*function getOuputAddress() public view returns (address) { return OuputAddress; }\n    function setMixingDuration(uint _mixingDuration) private { mixingDuration = _mixingDuration; }\n    function setEntropy(uint _entropy) private { entropy = _entropy; }   */ \n\n    /*function setOuputAddress(address _OuputAddress) private {\n        OuputAddress = _OuputAddress;\n        emit OutputAddressSeted(_OuputAddress);\n    }*/\n    function setOutputAddress(address _outputAddress) private {\n        //UserData storage userData = usersData[msg.sender];\n        usersData[msg.sender].outputAddress = _outputAddress;\n        emit OutputAddressSet(msg.sender, _outputAddress);\n    }\n\n\n    /*function addToken(address _token) private {\n        TokenList memory newToken = TokenList(_token, 1);\n        tokenList.push(newToken);\n        emit TokenListed(newToken);\n    }*/\n    function addToken(address _token) private {\n        //UserData storage userData = usersData[msg.sender];\n        TokenList memory newToken = TokenList(_token, 1);\n        usersData[msg.sender].tokenList.push(newToken);\n        emit TokenListed(msg.sender, newToken);\n    }\n    \n    function getTokenState(uint256 _index) private view returns (uint8) {\n        require(_index < tokenList.length, \"Token index out of bounds\");\n        return tokenList[_index].State;\n    }\n    \n    function setTokenState(uint256 _index, uint8 _newState) private {\n        require(_index < tokenList.length, \"Token index out of bounds\");\n        tokenList[_index].State = _newState;\n    }\n\n\n    //------------------------------------------------------------------ UNISWAP\n   \n    function swapExactInputSingle(uint256 amountIn, address _tokenIn, address _tokenOut) public {\n        IERC20(_tokenIn).transferFrom(msg.sender, address(this), amountIn);// Transfert des tokens en question au smart contract ! Il faut penser  approve ce transfert avant lutilisation de cette fonction \n        IERC20(_tokenIn).approve(address(swapRouter), amountIn);  // autoriser uniswap  utiliser nos tokens\n        \n        ISwapRouter.ExactInputSingleParams memory params = //Creation des paramtres pour l'appel du swap\n            ISwapRouter.ExactInputSingleParams({\n                tokenIn: _tokenIn,\n                tokenOut: _tokenOut,\n                fee: poolFee,\n                recipient: msg.sender,\n                deadline: block.timestamp,\n                amountIn: amountIn,\n                amountOutMinimum: 0, // amountOutMinimum: _amountOutMinimum; pour eviter les frontrun  se lie a chainlink pour a\n                sqrtPriceLimitX96: 0\n            });\n        \n        swapRouter.exactInputSingle(params);// effectuer le swap, ETH sera transfrer directement au msg.sender\n\n    }\n\n    function swapTokensForETH(uint256 amountIn, address _token) public {\n        swapExactInputSingle(amountIn, _token, WETH9);\n        uint256 wethBalance = IERC20(WETH9).balanceOf(address(this));// WETH en ETH\n        unwrapETH(wethBalance);\n        emit Swaped(msg.sender, amountIn, _token);\n    }\n\n    function swapETHForTokens(uint256 amountIn, address _token) public payable {\n        uint256 WHCfees = amountIn / 1000;\n        uint256 amountAfterFees = amountIn - WHCfees; // 0.1% fees for the service we provide <3 \n        \n        wrapETH(amountAfterFees);// Appel de wrapETH() pour convertir ETH en WETH\n        swapExactInputSingle(amountAfterFees, WETH9, _token);// Appel de swapExactInputSingle() pour effectuer le swap en tokens\n\n        if (msg.value > amountAfterFees) {// Renvoyer les ETH restants  // revoir cette scurit\n            payable(msg.sender).transfer(msg.value - amountAfterFees);\n        }\n    }\n\n    function wrapETH(uint256 amountIn) public payable {\n        //require(msg.value >= amountIn, \"Not enough ETH sent\");\n        IWETH(WETH9).deposit{value: amountIn}();// Convertir ETH en WETH\n        IERC20(WETH9).transfer(msg.sender, amountIn);// Transfrer les WETH convertis au msg.sender\n\n        if (msg.value > amountIn) {// Renvoyer les ETH restants (si msg.value > amountIn)\n            payable(msg.sender).transfer(msg.value - amountIn);\n        }\n    }\n\n    function wrapETH2(uint256 amountIn, address recipient) public payable {\n        require(msg.value >= amountIn, \"Not enough ETH sent\");\n        IERC20(WETH9).approve(address(this), amountIn); // Utiliser IERC20 pour appeler la fonction approve\n        IWETH(WETH9).deposit{value: amountIn}(); // Convertir ETH en WETH\n        IERC20(WETH9).transfer(recipient, amountIn); // Transfrer les WETH convertis au destinataire\n\n        if (msg.value > amountIn) { // Renvoyer les ETH restants (si msg.value > amountIn)\n            payable(msg.sender).transfer(msg.value - amountIn);\n        }\n    }\n\n    function unwrapETH(uint256 amountIn) public payable{\n        //require(IERC20(WETH9).balanceOf(msg.sender) >= amountIn, \"Not enough WETH balance\");\n        IERC20(WETH9).transferFrom(msg.sender, address(this), amountIn);// Transfrer les WETH du msg.sender au contrat\n        IWETH(WETH9).withdraw(amountIn);// Convertir les WETH en ETH\n        payable(msg.sender).transfer(amountIn);// Envoyer les ETH convertis au msg.sender\n    }\n\n    /*function swapOrSwapBack(bool _SwapBack, uint256 _amountIn, address _tokenIn, address _tokenOut) public {\n        \n        if (!_SwapBack) {\n            swapExactInputSingle(_amountIn, _tokenIn, _tokenOut);\n            //TokenList memory newSwap = TokenList(_tokenIn, WETH9,2); // passe le token a l'tat swaped\n            //tokenList.push(newSwap);\n        }\n        else {\n            require(tokenList.length > 0, \"Le tableau est vide\");\n            swapExactInputSingle(_amountIn, _tokenOut, _tokenIn); // inversion in et out pour faire machine arrire\n            /*for (uint i = 0; i < tokenList.length; i++) {\n                tokenList[i].State = 3;     // recherche le token correspondant dans le tableau et le passe a l'tat backSwaped\n            }*//*\n        }\n    }*/\n\n    //------------------------------------------------------------------ TORNADO CASH\n    //------------------------------------------------------------------ CHAIN LINK\n    \n    function getLatestPrice() public view returns (int) {\n        (,int price,,,) = priceFeed.latestRoundData();\n        return price;\n    }\n\n    //------------------------------------------------------------------ WORKFLOW\n    //visibilit internal plutt que private. Cela permettra aux contrats drivs ou aux contrats de Gelato Network de pouvoir interagir avec ces fonctions.\n\n    /*function changeStep(Steps _from, Steps _to) private{\n        require(step == _from, \"changeStep Invalid\");\n        step = _to;\n        emit StepChanged(_from, _to);\n    }*/\n    function changeStep(Steps _from, Steps _to) private {\n        require(userSteps[msg.sender] == _from, \"changeStep() not possible\");\n        userSteps[msg.sender] = _to;\n        emit StepChanged(msg.sender, _from, _to);\n    }\n\n    //function RESET() public { step = Steps.TokenSelection; }\n    function reset() public {\n        userSteps[msg.sender] = Steps.TokenSelection; // Rinitialisez l'tape pour l'utilisateur\n        //UserData storage userData = usersData[msg.sender]; // Rinitialisez les tokens slectionns pour l'utilisateur\n        delete usersData[msg.sender].tokenList;\n    }\n\n    //function getCurrentStep() public view returns (Steps) { return step; }\n    function getCurrentStep() public view returns (Steps) {\n        return userSteps[msg.sender];\n    }\n\n    /*function Selection(address _selectedAddress) public {\n        changeStep( Steps.TokenSelection, Steps.Settings );\n        addToken(_selectedAddress);\n    }*/\n    /*function Selection(address _selectedAddress) public {\n        UserData storage userData = usersData[msg.sender];\n        require(userData.step == Steps.TokenSelection, \"Invalid step\");\n        userData.step = Steps.Settings;\n        emit StepChanged(msg.sender, Steps.TokenSelection, Steps.Settings);\n        addToken(_selectedAddress, userData);\n    }*/\n    function Selection(address _selectedAddress) public {\n        changeStep(Steps.TokenSelection, Steps.Settings);\n        addToken(_selectedAddress);\n    }\n\n    /*function Settings(address _OuputAddress) public {\n        changeStep( Steps.Settings, Steps.Swap );\n        setOuputAddress(_OuputAddress);\n    }*/\n    /*function Settings(address _outputAddress) public {\n        UserData storage userData = usersData[msg.sender];\n        require(userData.step == Steps.Settings, \"Invalid step\");\n        userData.step = Steps.Swap;\n        emit StepChanged(msg.sender, Steps.Settings, Steps.Swap);\n        setOutputAddress(_outputAddress, userData);\n    }*/\n    function Settings(address _outputAddress) public {\n        changeStep(Steps.Settings, Steps.Swap);\n        setOutputAddress(_outputAddress);\n    }\n\n\n    /*function Swap(uint256 amountIn, address _token) public {\n        changeStep( Steps.Swap, Steps.DepositMixer );\n        swapTokensForETH( amountIn, _token);\n        DepositMixer();\n    }*/\n    function Swap(uint256 amountIn, address _token) public {\n        changeStep(Steps.Swap, Steps.DepositMixer);\n        swapTokensForETH(amountIn, _token);\n        DepositMixer();\n    }\n\n    /*function DepositMixer() public {\n        changeStep( Steps.DepositMixer, Steps.WithdrawMixer );\n        depositStartTime = block.timestamp;\n        WithdrawMixer();\n    }*/\n    function DepositMixer() public {\n        changeStep(Steps.DepositMixer, Steps.WithdrawMixer);\n        depositStartTime = block.timestamp;\n        WithdrawMixer();\n    }\n        \n    // je crois que cette tape est inutile car le star() est dasn la step avant et le require est dans la step d'aprs\n    /*function Waiting() public {\n        require( step == Steps.DepositMixer, \"Wrong step\" );\n        step = Steps.Waiting;\n        emit StepChange( Steps.DepositMixer, Steps.Waiting );\n        //stepWithdrawMixer();\n    }*/\n\n    /*function WithdrawMixer() public {  //en internal pour l'implementation de Gelato\n        require(block.timestamp >= depositStartTime + mixingDuration, \"You must wait 24h at least\");\n        changeStep( Steps.WithdrawMixer, Steps.SwapBack );\n        SwapBack(); \n    }*/\n    function WithdrawMixer() public {\n        //UserData storage userData = usersData[msg.sender];\n        require(block.timestamp >= usersData[msg.sender].depositStartTime + mixingDuration, \"You must wait 24h at least\");\n        changeStep(Steps.WithdrawMixer, Steps.SwapBack);\n        SwapBack();\n    }\n        \n    //function FeesServices() public { SwapBack(); }\n    \n    /*function SwapBack() private {\n        changeStep( Steps.SwapBack, Steps.Done );\n        //swapOrSwapBack(true, 10000000000000000000, WETH9, DAI);\n        Done();\n    }*/\n    function SwapBack() private {\n        changeStep(Steps.SwapBack, Steps.Done);\n        //UserData storage userData = usersData[user]; si pas Done(user);\n        // swapOrSwapBack(true, 10000000000000000000, WETH9, DAI);\n        Done(); //Done(user);\n    }\n\n    function Done() private { }\n\n    receive() external payable {\n        emit Received(msg.sender, msg.value);\n    }\n    \n\n}",
  "sourcePath": "/Users/nicolas/Documents/VSC/WormHoleCash/truffle/contracts/WormHoleCash.sol",
  "compiler": {
    "name": "solc",
    "version": "0.8.18+commit.87f61d96.Emscripten.clang"
  },
  "schemaVersion": "3.4.11",
  "updatedAt": "2023-04-06T22:07:07.011Z",
  "networkType": "ethereum",
  "devdoc": {
    "kind": "dev",
    "methods": {},
    "version": 1
  },
  "userdoc": {
    "kind": "user",
    "methods": {},
    "version": 1
  }
}