{
  "contractName": "WormHoleCash",
  "abi": [
    {
      "inputs": [],
      "stateMutability": "nonpayable",
      "type": "constructor"
    },
    {
      "anonymous": false,
      "inputs": [
        {
          "indexed": true,
          "internalType": "address",
          "name": "user",
          "type": "address"
        },
        {
          "indexed": false,
          "internalType": "address",
          "name": "outputAddress",
          "type": "address"
        }
      ],
      "name": "OutputAddressSet",
      "type": "event"
    },
    {
      "anonymous": false,
      "inputs": [
        {
          "indexed": false,
          "internalType": "address",
          "name": "",
          "type": "address"
        },
        {
          "indexed": false,
          "internalType": "uint256",
          "name": "",
          "type": "uint256"
        }
      ],
      "name": "Received",
      "type": "event"
    },
    {
      "anonymous": false,
      "inputs": [
        {
          "indexed": true,
          "internalType": "address",
          "name": "user",
          "type": "address"
        },
        {
          "indexed": false,
          "internalType": "enum WormHoleCash.Steps",
          "name": "previousStatus",
          "type": "uint8"
        },
        {
          "indexed": false,
          "internalType": "enum WormHoleCash.Steps",
          "name": "newStatus",
          "type": "uint8"
        }
      ],
      "name": "StepChanged",
      "type": "event"
    },
    {
      "anonymous": false,
      "inputs": [
        {
          "indexed": true,
          "internalType": "address",
          "name": "user",
          "type": "address"
        },
        {
          "indexed": false,
          "internalType": "uint256",
          "name": "amountIn",
          "type": "uint256"
        },
        {
          "indexed": false,
          "internalType": "address",
          "name": "_token",
          "type": "address"
        }
      ],
      "name": "Swaped",
      "type": "event"
    },
    {
      "anonymous": false,
      "inputs": [
        {
          "indexed": true,
          "internalType": "address",
          "name": "user",
          "type": "address"
        },
        {
          "components": [
            {
              "internalType": "address",
              "name": "Token",
              "type": "address"
            },
            {
              "internalType": "uint8",
              "name": "State",
              "type": "uint8"
            }
          ],
          "indexed": false,
          "internalType": "struct WormHoleCash.TokenList",
          "name": "tokenSelected",
          "type": "tuple"
        }
      ],
      "name": "TokenListed",
      "type": "event"
    },
    {
      "inputs": [],
      "name": "DAI",
      "outputs": [
        {
          "internalType": "address",
          "name": "",
          "type": "address"
        }
      ],
      "stateMutability": "view",
      "type": "function",
      "constant": true
    },
    {
      "inputs": [],
      "name": "LINK",
      "outputs": [
        {
          "internalType": "address",
          "name": "",
          "type": "address"
        }
      ],
      "stateMutability": "view",
      "type": "function",
      "constant": true
    },
    {
      "inputs": [],
      "name": "OuputAddress",
      "outputs": [
        {
          "internalType": "address",
          "name": "",
          "type": "address"
        }
      ],
      "stateMutability": "view",
      "type": "function",
      "constant": true
    },
    {
      "inputs": [],
      "name": "SwapRouterV3",
      "outputs": [
        {
          "internalType": "address",
          "name": "",
          "type": "address"
        }
      ],
      "stateMutability": "view",
      "type": "function",
      "constant": true
    },
    {
      "inputs": [],
      "name": "WETH9",
      "outputs": [
        {
          "internalType": "address",
          "name": "",
          "type": "address"
        }
      ],
      "stateMutability": "view",
      "type": "function",
      "constant": true
    },
    {
      "inputs": [],
      "name": "depositStartTime",
      "outputs": [
        {
          "internalType": "uint256",
          "name": "",
          "type": "uint256"
        }
      ],
      "stateMutability": "view",
      "type": "function",
      "constant": true
    },
    {
      "inputs": [],
      "name": "mixingDuration",
      "outputs": [
        {
          "internalType": "uint256",
          "name": "",
          "type": "uint256"
        }
      ],
      "stateMutability": "view",
      "type": "function",
      "constant": true
    },
    {
      "inputs": [],
      "name": "poolFee",
      "outputs": [
        {
          "internalType": "uint24",
          "name": "",
          "type": "uint24"
        }
      ],
      "stateMutability": "view",
      "type": "function",
      "constant": true
    },
    {
      "inputs": [],
      "name": "step",
      "outputs": [
        {
          "internalType": "enum WormHoleCash.Steps",
          "name": "",
          "type": "uint8"
        }
      ],
      "stateMutability": "view",
      "type": "function",
      "constant": true
    },
    {
      "inputs": [],
      "name": "swapRouter",
      "outputs": [
        {
          "internalType": "contract ISwapRouter",
          "name": "",
          "type": "address"
        }
      ],
      "stateMutability": "view",
      "type": "function",
      "constant": true
    },
    {
      "inputs": [
        {
          "internalType": "uint256",
          "name": "",
          "type": "uint256"
        }
      ],
      "name": "tokenList",
      "outputs": [
        {
          "internalType": "address",
          "name": "Token",
          "type": "address"
        },
        {
          "internalType": "uint8",
          "name": "State",
          "type": "uint8"
        }
      ],
      "stateMutability": "view",
      "type": "function",
      "constant": true
    },
    {
      "stateMutability": "payable",
      "type": "receive",
      "payable": true
    },
    {
      "inputs": [
        {
          "internalType": "address",
          "name": "userAddress",
          "type": "address"
        }
      ],
      "name": "getUserData",
      "outputs": [
        {
          "components": [
            {
              "internalType": "address",
              "name": "Token",
              "type": "address"
            },
            {
              "internalType": "uint8",
              "name": "State",
              "type": "uint8"
            }
          ],
          "internalType": "struct WormHoleCash.TokenList[]",
          "name": "tokenList",
          "type": "tuple[]"
        },
        {
          "internalType": "address",
          "name": "outputAddress",
          "type": "address"
        },
        {
          "internalType": "uint256",
          "name": "depositStartTime",
          "type": "uint256"
        },
        {
          "internalType": "enum WormHoleCash.Steps",
          "name": "step",
          "type": "uint8"
        }
      ],
      "stateMutability": "view",
      "type": "function",
      "constant": true
    },
    {
      "inputs": [
        {
          "internalType": "uint256",
          "name": "amountIn",
          "type": "uint256"
        },
        {
          "internalType": "address",
          "name": "_tokenIn",
          "type": "address"
        },
        {
          "internalType": "address",
          "name": "_tokenOut",
          "type": "address"
        }
      ],
      "name": "swapExactInputSingle",
      "outputs": [],
      "stateMutability": "nonpayable",
      "type": "function"
    },
    {
      "inputs": [
        {
          "internalType": "uint256",
          "name": "amountIn",
          "type": "uint256"
        },
        {
          "internalType": "address",
          "name": "_token",
          "type": "address"
        }
      ],
      "name": "swapTokensForETH",
      "outputs": [],
      "stateMutability": "nonpayable",
      "type": "function"
    },
    {
      "inputs": [
        {
          "internalType": "uint256",
          "name": "amountIn",
          "type": "uint256"
        },
        {
          "internalType": "address",
          "name": "_token",
          "type": "address"
        }
      ],
      "name": "swapETHForTokens",
      "outputs": [],
      "stateMutability": "payable",
      "type": "function",
      "payable": true
    },
    {
      "inputs": [
        {
          "internalType": "uint256",
          "name": "amountIn",
          "type": "uint256"
        }
      ],
      "name": "wrapETH",
      "outputs": [],
      "stateMutability": "payable",
      "type": "function",
      "payable": true
    },
    {
      "inputs": [
        {
          "internalType": "uint256",
          "name": "amountIn",
          "type": "uint256"
        },
        {
          "internalType": "address",
          "name": "recipient",
          "type": "address"
        }
      ],
      "name": "wrapETH2",
      "outputs": [],
      "stateMutability": "payable",
      "type": "function",
      "payable": true
    },
    {
      "inputs": [
        {
          "internalType": "uint256",
          "name": "amountIn",
          "type": "uint256"
        }
      ],
      "name": "unwrapETH",
      "outputs": [],
      "stateMutability": "payable",
      "type": "function",
      "payable": true
    },
    {
      "inputs": [],
      "name": "getLatestPrice",
      "outputs": [
        {
          "internalType": "int256",
          "name": "",
          "type": "int256"
        }
      ],
      "stateMutability": "view",
      "type": "function",
      "constant": true
    },
    {
      "inputs": [],
      "name": "reset",
      "outputs": [],
      "stateMutability": "nonpayable",
      "type": "function"
    },
    {
      "inputs": [],
      "name": "getCurrentStep",
      "outputs": [
        {
          "internalType": "enum WormHoleCash.Steps",
          "name": "",
          "type": "uint8"
        }
      ],
      "stateMutability": "view",
      "type": "function",
      "constant": true
    },
    {
      "inputs": [
        {
          "internalType": "address",
          "name": "_selectedAddress",
          "type": "address"
        }
      ],
      "name": "Selection",
      "outputs": [],
      "stateMutability": "nonpayable",
      "type": "function"
    },
    {
      "inputs": [
        {
          "internalType": "address",
          "name": "_outputAddress",
          "type": "address"
        }
      ],
      "name": "Settings",
      "outputs": [],
      "stateMutability": "nonpayable",
      "type": "function"
    },
    {
      "inputs": [
        {
          "internalType": "uint256",
          "name": "amountIn",
          "type": "uint256"
        },
        {
          "internalType": "address",
          "name": "_token",
          "type": "address"
        }
      ],
      "name": "Swap",
      "outputs": [],
      "stateMutability": "nonpayable",
      "type": "function"
    },
    {
      "inputs": [],
      "name": "DepositMixer",
      "outputs": [],
      "stateMutability": "nonpayable",
      "type": "function"
    },
    {
      "inputs": [],
      "name": "WithdrawMixer",
      "outputs": [],
      "stateMutability": "nonpayable",
      "type": "function"
    }
  ],
  "bytecode": "0x60a0604052603c60045534801561001557600080fd5b5073e592427a0aece92de3edee1f18e0157c0586156473ffffffffffffffffffffffffffffffffffffffff1660808173ffffffffffffffffffffffffffffffffffffffff168152505073b4c4a493ab6356497713a78ffa6c60fb53517c636000806101000a81548173ffffffffffffffffffffffffffffffffffffffff021916908373ffffffffffffffffffffffffffffffffffffffff1602179055506080516123316100db6000396000818161098401528181610aa60152610ef301526123316000f3fe6080604052600436106101855760003560e01c80639863b8dc116100d1578063cba2a85a1161008a578063d826f88f11610064578063d826f88f14610521578063e0bab4c414610538578063e25fe17514610563578063ffc9896b1461058e576101c5565b8063cba2a85a146104b1578063d1a3925a146104da578063d2a6950114610505576101c5565b80639863b8dc146103e25780639ead7222146103fe578063a27486ea1461043c578063c31c9c0714610453578063c644ee6f1461047e578063c88da83d1461049a576101c5565b80634cc403121161013e578063757e61e011610118578063757e61e01461033857806388d53836146103615780638e15f4731461038c57806392f23918146103b7576101c5565b80634cc40312146102bb5780634ce4dca5146102e4578063587419d51461030d576101c5565b8063089fe6aa146101ca5780631b6b6d23146101f55780631c58db4f146102205780631d3824ea1461023c57806323aad184146102675780634aa4a4fc14610290576101c5565b366101c5577f88a5966d370b9919b20f3e2c13ff65706f196a4e32cc2c12bf57088f8852587433346040516101bb9291906118b2565b60405180910390a1005b600080fd5b3480156101d657600080fd5b506101df6105ce565b6040516101ec91906118f9565b60405180910390f35b34801561020157600080fd5b5061020a6105d4565b6040516102179190611914565b60405180910390f35b61023a60048036038101906102359190611960565b6105ec565b005b34801561024857600080fd5b50610251610752565b60405161025e9190611a04565b60405180910390f35b34801561027357600080fd5b5061028e60048036038101906102899190611a4b565b6107a6565b005b34801561029c57600080fd5b506102a56108b5565b6040516102b29190611914565b60405180910390f35b3480156102c757600080fd5b506102e260048036038101906102dd9190611a8b565b6108cd565b005b3480156102f057600080fd5b5061030b60048036038101906103069190611ab8565b6108e5565b005b34801561031957600080fd5b50610322610b47565b60405161032f9190611b0b565b60405180910390f35b34801561034457600080fd5b5061035f600480360381019061035a9190611a4b565b610b4d565b005b34801561036d57600080fd5b50610376610b6f565b6040516103839190611914565b60405180910390f35b34801561039857600080fd5b506103a1610b95565b6040516103ae9190611b3f565b60405180910390f35b3480156103c357600080fd5b506103cc610c34565b6040516103d99190611b0b565b60405180910390f35b6103fc60048036038101906103f79190611a4b565b610c3a565b005b34801561040a57600080fd5b5061042560048036038101906104209190611960565b610e77565b604051610433929190611b76565b60405180910390f35b34801561044857600080fd5b50610451610ed4565b005b34801561045f57600080fd5b50610468610ef1565b6040516104759190611bfe565b60405180910390f35b61049860048036038101906104939190611a4b565b610f15565b005b3480156104a657600080fd5b506104af610fc0565b005b3480156104bd57600080fd5b506104d860048036038101906104d39190611a8b565b611068565b005b3480156104e657600080fd5b506104ef611080565b6040516104fc9190611914565b60405180910390f35b61051f600480360381019061051a9190611960565b611098565b005b34801561052d57600080fd5b506105366111f6565b005b34801561054457600080fd5b5061054d6112ae565b60405161055a9190611914565b60405180910390f35b34801561056f57600080fd5b506105786112c6565b6040516105859190611a04565b60405180910390f35b34801561059a57600080fd5b506105b560048036038101906105b09190611a8b565b6112d9565b6040516105c59493929190611d15565b60405180910390f35b610bb881565b73326c977e6efc84e512bb9c30f76e30c160ed06fb81565b73b4fbf271143f4fbf7b91a5ded31805e42b2208d673ffffffffffffffffffffffffffffffffffffffff1663d0e30db0826040518263ffffffff1660e01b81526004016000604051808303818588803b15801561064857600080fd5b505af115801561065c573d6000803e3d6000fd5b505050505073b4fbf271143f4fbf7b91a5ded31805e42b2208d673ffffffffffffffffffffffffffffffffffffffff1663a9059cbb33836040518363ffffffff1660e01b81526004016106b09291906118b2565b6020604051808303816000875af11580156106cf573d6000803e3d6000fd5b505050506040513d601f19601f820116820180604052508101906106f39190611d99565b508034111561074f573373ffffffffffffffffffffffffffffffffffffffff166108fc82346107229190611df5565b9081150290604051600060405180830381858888f1935050505015801561074d573d6000803e3d6000fd5b505b50565b6000600260003373ffffffffffffffffffffffffffffffffffffffff1673ffffffffffffffffffffffffffffffffffffffff16815260200190815260200160002060009054906101000a900460ff16905090565b6107c5828273b4fbf271143f4fbf7b91a5ded31805e42b2208d66108e5565b600073b4fbf271143f4fbf7b91a5ded31805e42b2208d673ffffffffffffffffffffffffffffffffffffffff166370a08231306040518263ffffffff1660e01b81526004016108149190611914565b602060405180830381865afa158015610831573d6000803e3d6000fd5b505050506040513d601f19601f820116820180604052508101906108559190611e3e565b905061086081611098565b3373ffffffffffffffffffffffffffffffffffffffff167f1a198c38fdbbe5c8aed6492f511de47f6443716bb632161eaa137fbf0caf676384846040516108a8929190611e6b565b60405180910390a2505050565b73b4fbf271143f4fbf7b91a5ded31805e42b2208d681565b6108d960006001611437565b6108e2816115a4565b50565b8173ffffffffffffffffffffffffffffffffffffffff166323b872dd3330866040518463ffffffff1660e01b815260040161092293929190611e94565b6020604051808303816000875af1158015610941573d6000803e3d6000fd5b505050506040513d601f19601f820116820180604052508101906109659190611d99565b508173ffffffffffffffffffffffffffffffffffffffff1663095ea7b37f0000000000000000000000000000000000000000000000000000000000000000856040518363ffffffff1660e01b81526004016109c19291906118b2565b6020604051808303816000875af11580156109e0573d6000803e3d6000fd5b505050506040513d601f19601f82011682018060405250810190610a049190611d99565b5060006040518061010001604052808473ffffffffffffffffffffffffffffffffffffffff1681526020018373ffffffffffffffffffffffffffffffffffffffff168152602001610bb862ffffff1681526020013373ffffffffffffffffffffffffffffffffffffffff16815260200142815260200185815260200160008152602001600073ffffffffffffffffffffffffffffffffffffffff1681525090507f000000000000000000000000000000000000000000000000000000000000000073ffffffffffffffffffffffffffffffffffffffff1663414bf389826040518263ffffffff1660e01b8152600401610afd9190611f9a565b6020604051808303816000875af1158015610b1c573d6000803e3d6000fd5b505050506040513d601f19601f82011682018060405250810190610b409190611e3e565b5050505050565b60055481565b610b5960026003611437565b610b6382826107a6565b610b6b610ed4565b5050565b600360009054906101000a900473ffffffffffffffffffffffffffffffffffffffff1681565b60008060008054906101000a900473ffffffffffffffffffffffffffffffffffffffff1673ffffffffffffffffffffffffffffffffffffffff1663feaf968c6040518163ffffffff1660e01b815260040160a060405180830381865afa158015610c03573d6000803e3d6000fd5b505050506040513d601f19601f82011682018060405250810190610c279190612024565b5050509150508091505090565b60045481565b81341015610c7d576040517f08c379a0000000000000000000000000000000000000000000000000000000008152600401610c74906120fc565b60405180910390fd5b73b4fbf271143f4fbf7b91a5ded31805e42b2208d673ffffffffffffffffffffffffffffffffffffffff1663095ea7b330846040518363ffffffff1660e01b8152600401610ccc9291906118b2565b6020604051808303816000875af1158015610ceb573d6000803e3d6000fd5b505050506040513d601f19601f82011682018060405250810190610d0f9190611d99565b5073b4fbf271143f4fbf7b91a5ded31805e42b2208d673ffffffffffffffffffffffffffffffffffffffff1663d0e30db0836040518263ffffffff1660e01b81526004016000604051808303818588803b158015610d6c57600080fd5b505af1158015610d80573d6000803e3d6000fd5b505050505073b4fbf271143f4fbf7b91a5ded31805e42b2208d673ffffffffffffffffffffffffffffffffffffffff1663a9059cbb82846040518363ffffffff1660e01b8152600401610dd49291906118b2565b6020604051808303816000875af1158015610df3573d6000803e3d6000fd5b505050506040513d601f19601f82011682018060405250810190610e179190611d99565b5081341115610e73573373ffffffffffffffffffffffffffffffffffffffff166108fc8334610e469190611df5565b9081150290604051600060405180830381858888f19350505050158015610e71573d6000803e3d6000fd5b505b5050565b60068181548110610e8757600080fd5b906000526020600020016000915090508060000160009054906101000a900473ffffffffffffffffffffffffffffffffffffffff16908060000160149054906101000a900460ff16905082565b610ee060036004611437565b42600581905550610eef610fc0565b565b7f000000000000000000000000000000000000000000000000000000000000000081565b60006103e883610f25919061214b565b905060008184610f359190611df5565b9050610f40816105ec565b610f5f8173b4fbf271143f4fbf7b91a5ded31805e42b2208d6856108e5565b80341115610fba573373ffffffffffffffffffffffffffffffffffffffff166108fc8234610f8d9190611df5565b9081150290604051600060405180830381858888f19350505050158015610fb8573d6000803e3d6000fd5b505b50505050565b600454600160003373ffffffffffffffffffffffffffffffffffffffff1673ffffffffffffffffffffffffffffffffffffffff16815260200190815260200160002060020154611010919061217c565b421015611052576040517f08c379a0000000000000000000000000000000000000000000000000000000008152600401611049906121fc565b60405180910390fd5b61105e60046005611437565b6110666116fb565b565b61107460016002611437565b61107d81611711565b50565b73e592427a0aece92de3edee1f18e0157c0586156481565b73b4fbf271143f4fbf7b91a5ded31805e42b2208d673ffffffffffffffffffffffffffffffffffffffff166323b872dd3330846040518463ffffffff1660e01b81526004016110e993929190611e94565b6020604051808303816000875af1158015611108573d6000803e3d6000fd5b505050506040513d601f19601f8201168201806040525081019061112c9190611d99565b5073b4fbf271143f4fbf7b91a5ded31805e42b2208d673ffffffffffffffffffffffffffffffffffffffff16632e1a7d4d826040518263ffffffff1660e01b815260040161117a9190611b0b565b600060405180830381600087803b15801561119457600080fd5b505af11580156111a8573d6000803e3d6000fd5b505050503373ffffffffffffffffffffffffffffffffffffffff166108fc829081150290604051600060405180830381858888f193505050501580156111f2573d6000803e3d6000fd5b5050565b6000600260003373ffffffffffffffffffffffffffffffffffffffff1673ffffffffffffffffffffffffffffffffffffffff16815260200190815260200160002060006101000a81548160ff021916908360068111156112595761125861198d565b5b0217905550600160003373ffffffffffffffffffffffffffffffffffffffff1673ffffffffffffffffffffffffffffffffffffffff16815260200190815260200160002060000160006112ac91906117e5565b565b7311fe4b6ae13d2a6055c8d9cf65c55bac32b5d84481565b600760009054906101000a900460ff1681565b6060600080600080600160008773ffffffffffffffffffffffffffffffffffffffff1673ffffffffffffffffffffffffffffffffffffffff168152602001908152602001600020905080600001805480602002602001604051908101604052809291908181526020016000905b828210156113e7578382906000526020600020016040518060400160405290816000820160009054906101000a900473ffffffffffffffffffffffffffffffffffffffff1673ffffffffffffffffffffffffffffffffffffffff1673ffffffffffffffffffffffffffffffffffffffff1681526020016000820160149054906101000a900460ff1660ff1660ff168152505081526020019060010190611346565b5050505094508060010160009054906101000a900473ffffffffffffffffffffffffffffffffffffffff169350806002015492508060030160009054906101000a900460ff169150509193509193565b81600681111561144a5761144961198d565b5b600260003373ffffffffffffffffffffffffffffffffffffffff1673ffffffffffffffffffffffffffffffffffffffff16815260200190815260200160002060009054906101000a900460ff1660068111156114a9576114a861198d565b5b146114e9576040517f08c379a00000000000000000000000000000000000000000000000000000000081526004016114e090612268565b60405180910390fd5b80600260003373ffffffffffffffffffffffffffffffffffffffff1673ffffffffffffffffffffffffffffffffffffffff16815260200190815260200160002060006101000a81548160ff0219169083600681111561154b5761154a61198d565b5b02179055503373ffffffffffffffffffffffffffffffffffffffff167f1760e9f51927ce74cbf718ce51630e2cf6dac75a7a31ebebff9b91b3c41a09668383604051611598929190612288565b60405180910390a25050565b600060405180604001604052808373ffffffffffffffffffffffffffffffffffffffff168152602001600160ff168152509050600160003373ffffffffffffffffffffffffffffffffffffffff1673ffffffffffffffffffffffffffffffffffffffff168152602001908152602001600020600001819080600181540180825580915050600190039060005260206000200160009091909190915060008201518160000160006101000a81548173ffffffffffffffffffffffffffffffffffffffff021916908373ffffffffffffffffffffffffffffffffffffffff16021790555060208201518160000160146101000a81548160ff021916908360ff16021790555050503373ffffffffffffffffffffffffffffffffffffffff167f127e7f5ff34fbd605e67739e9fe41503ca7b68d8765351b81e1bfa9a0860d972826040516116ef91906122e0565b60405180910390a25050565b61170760056006611437565b61170f6117e3565b565b80600160003373ffffffffffffffffffffffffffffffffffffffff1673ffffffffffffffffffffffffffffffffffffffff16815260200190815260200160002060010160006101000a81548173ffffffffffffffffffffffffffffffffffffffff021916908373ffffffffffffffffffffffffffffffffffffffff1602179055503373ffffffffffffffffffffffffffffffffffffffff167fc395278804de156198ca2eb5fb947e17d0ebb6fc2cefd765748e6b0230c26216826040516117d89190611914565b60405180910390a250565b565b50805460008255906000526020600020908101906118039190611806565b50565b5b8082111561185457600080820160006101000a81549073ffffffffffffffffffffffffffffffffffffffff02191690556000820160146101000a81549060ff021916905550600101611807565b5090565b600073ffffffffffffffffffffffffffffffffffffffff82169050919050565b600061188382611858565b9050919050565b61189381611878565b82525050565b6000819050919050565b6118ac81611899565b82525050565b60006040820190506118c7600083018561188a565b6118d460208301846118a3565b9392505050565b600062ffffff82169050919050565b6118f3816118db565b82525050565b600060208201905061190e60008301846118ea565b92915050565b6000602082019050611929600083018461188a565b92915050565b600080fd5b61193d81611899565b811461194857600080fd5b50565b60008135905061195a81611934565b92915050565b6000602082840312156119765761197561192f565b5b60006119848482850161194b565b91505092915050565b7f4e487b7100000000000000000000000000000000000000000000000000000000600052602160045260246000fd5b600781106119cd576119cc61198d565b5b50565b60008190506119de826119bc565b919050565b60006119ee826119d0565b9050919050565b6119fe816119e3565b82525050565b6000602082019050611a1960008301846119f5565b92915050565b611a2881611878565b8114611a3357600080fd5b50565b600081359050611a4581611a1f565b92915050565b60008060408385031215611a6257611a6161192f565b5b6000611a708582860161194b565b9250506020611a8185828601611a36565b9150509250929050565b600060208284031215611aa157611aa061192f565b5b6000611aaf84828501611a36565b91505092915050565b600080600060608486031215611ad157611ad061192f565b5b6000611adf8682870161194b565b9350506020611af086828701611a36565b9250506040611b0186828701611a36565b9150509250925092565b6000602082019050611b2060008301846118a3565b92915050565b6000819050919050565b611b3981611b26565b82525050565b6000602082019050611b546000830184611b30565b92915050565b600060ff82169050919050565b611b7081611b5a565b82525050565b6000604082019050611b8b600083018561188a565b611b986020830184611b67565b9392505050565b6000819050919050565b6000611bc4611bbf611bba84611858565b611b9f565b611858565b9050919050565b6000611bd682611ba9565b9050919050565b6000611be882611bcb565b9050919050565b611bf881611bdd565b82525050565b6000602082019050611c136000830184611bef565b92915050565b600081519050919050565b600082825260208201905092915050565b6000819050602082019050919050565b611c4e81611878565b82525050565b611c5d81611b5a565b82525050565b604082016000820151611c796000850182611c45565b506020820151611c8c6020850182611c54565b50505050565b6000611c9e8383611c63565b60408301905092915050565b6000602082019050919050565b6000611cc282611c19565b611ccc8185611c24565b9350611cd783611c35565b8060005b83811015611d08578151611cef8882611c92565b9750611cfa83611caa565b925050600181019050611cdb565b5085935050505092915050565b60006080820190508181036000830152611d2f8187611cb7565b9050611d3e602083018661188a565b611d4b60408301856118a3565b611d5860608301846119f5565b95945050505050565b60008115159050919050565b611d7681611d61565b8114611d8157600080fd5b50565b600081519050611d9381611d6d565b92915050565b600060208284031215611daf57611dae61192f565b5b6000611dbd84828501611d84565b91505092915050565b7f4e487b7100000000000000000000000000000000000000000000000000000000600052601160045260246000fd5b6000611e0082611899565b9150611e0b83611899565b9250828203905081811115611e2357611e22611dc6565b5b92915050565b600081519050611e3881611934565b92915050565b600060208284031215611e5457611e5361192f565b5b6000611e6284828501611e29565b91505092915050565b6000604082019050611e8060008301856118a3565b611e8d602083018461188a565b9392505050565b6000606082019050611ea9600083018661188a565b611eb6602083018561188a565b611ec360408301846118a3565b949350505050565b611ed4816118db565b82525050565b611ee381611899565b82525050565b611ef281611858565b82525050565b61010082016000820151611f0f6000850182611c45565b506020820151611f226020850182611c45565b506040820151611f356040850182611ecb565b506060820151611f486060850182611c45565b506080820151611f5b6080850182611eda565b5060a0820151611f6e60a0850182611eda565b5060c0820151611f8160c0850182611eda565b5060e0820151611f9460e0850182611ee9565b50505050565b600061010082019050611fb06000830184611ef8565b92915050565b600069ffffffffffffffffffff82169050919050565b611fd581611fb6565b8114611fe057600080fd5b50565b600081519050611ff281611fcc565b92915050565b61200181611b26565b811461200c57600080fd5b50565b60008151905061201e81611ff8565b92915050565b600080600080600060a086880312156120405761203f61192f565b5b600061204e88828901611fe3565b955050602061205f8882890161200f565b945050604061207088828901611e29565b935050606061208188828901611e29565b925050608061209288828901611fe3565b9150509295509295909350565b600082825260208201905092915050565b7f4e6f7420656e6f756768204554482073656e7400000000000000000000000000600082015250565b60006120e660138361209f565b91506120f1826120b0565b602082019050919050565b60006020820190508181036000830152612115816120d9565b9050919050565b7f4e487b7100000000000000000000000000000000000000000000000000000000600052601260045260246000fd5b600061215682611899565b915061216183611899565b9250826121715761217061211c565b5b828204905092915050565b600061218782611899565b915061219283611899565b92508282019050808211156121aa576121a9611dc6565b5b92915050565b7f596f75206d757374207761697420323468206174206c65617374000000000000600082015250565b60006121e6601a8361209f565b91506121f1826121b0565b602082019050919050565b60006020820190508181036000830152612215816121d9565b9050919050565b7f6368616e6765537465702829206e6f7420706f737369626c6500000000000000600082015250565b600061225260198361209f565b915061225d8261221c565b602082019050919050565b6000602082019050818103600083015261228181612245565b9050919050565b600060408201905061229d60008301856119f5565b6122aa60208301846119f5565b9392505050565b6040820160008201516122c76000850182611c45565b5060208201516122da6020850182611c54565b50505050565b60006040820190506122f560008301846122b1565b9291505056fea2646970667358221220fe9ea506e56f0a0ea6aa9b17db217b2256c3863b45769f1d21f0f2e99824a8fa64736f6c63430008120033",
  "immutableReferences": {
    "124": [
      {
        "length": 32,
        "start": 2436
      },
      {
        "length": 32,
        "start": 2726
      },
      {
        "length": 32,
        "start": 3827
      }
    ]
  },
  "source": "// SPDX-License-Identifier: MIT\n//import \"@openzeppelin/contracts/utils/ReentrancyGuard.sol\";\nimport \"@chainlink/contracts/src/v0.8/interfaces/AggregatorV3Interface.sol\";\n\npragma solidity 0.8.18;\n    //------------------------------------------------------------------ INTERFACES\ninterface IERC20 {\n    function transferFrom(address sender, address recipient, uint256 amount) external returns (bool);\n    function approve(address spender, uint256 amount) external returns (bool);\n    function balanceOf(address account) external view returns (uint256);\n    //function totalSupply() external view returns (uint256);\n    function transfer(address recipient, uint256 amount) external returns (bool);\n    //function allowance(address owner, address spender) external view returns (uint256);\n}\n\ninterface IWETH {\n    function deposit() external payable;\n    function withdraw(uint wad) external;\n}\n\ninterface ISwapRouter {\n\n    struct ExactInputSingleParams {\n        address tokenIn;\n        address tokenOut;\n        uint24  fee;\n        address recipient;\n        uint256 deadline;\n        uint256 amountIn;\n        uint256 amountOutMinimum;\n        uint160 sqrtPriceLimitX96;\n    }\n\n\n    /// @notice Swaps `amountIn` of one token for as much as possible of another token\n    /// @param params The parameters necessary for the swap, encoded as `ExactInputSingleParams` in calldata\n    /// @return amountOut The amount of the received token\n    function exactInputSingle(ExactInputSingleParams calldata params) external payable returns (uint256 amountOut);\n}\n\ncontract WormHoleCash { // is ReentrancyGuard {\n    ISwapRouter public immutable swapRouter;\n    AggregatorV3Interface internal priceFeed;\n\n    //------------------------------------------------------------------ STRUCTURES\n    struct UserData {\n        TokenList[] tokenList;\n        address outputAddress;\n        uint depositStartTime;\n        Steps step;\n    }\n\n    struct TokenList {\n        //address From; address To;\n        address Token;\n        uint8 State; //1=selected 2=Swaped 3=BackSwaped 4=Error je pourais amliorer a en array outruct ou enum\n    }\n\n    mapping(address => UserData) private usersData;\n    mapping(address => Steps) private userSteps;\n\n    address public constant SwapRouterV3 = 0xE592427A0AEce92De3Edee1F18E0157C05861564;\n    address public constant WETH9 = 0xB4FBF271143F4FBf7B91A5ded31805e42b2208d6;\n    address public constant DAI = 0x11fE4B6AE13d2a6055C8D9cF65c55bac32B5d844;\n    address public constant LINK = 0x326C977E6efc84E512bB9C30f76E30c160eD06FB;\n\n    address public OuputAddress;\n    uint public mixingDuration = 1 minutes; // Only for Demo\n    //uint public entropy = 0;\n    uint256 public depositStartTime;\n    uint24 public constant poolFee = 3000;    // frais de pool standard Uniswap  0.3%\n    TokenList[] public tokenList;\n    Steps public step;\n\n    enum Steps {\n        TokenSelection, // slection des token que l'on souhaite utiliser   \n        Settings,        // Address Output, choix ETH ou StableCOins, Duration, Antropie, nombre de adresse de sortie\n        Swap,           // Swap sur Uni\n        DepositMixer,   // Tornado Cash dpo\n        //Waiting,        // Mixage Automation via Gelato\n        WithdrawMixer,  // Tornado Cash sortie\n        //FeesServices,   // Frais d'utilisation\n        SwapBack,       // Swap vers Tokens\n        Done            // Enjoy\n    }\n\n    //------------------------------------------------------------------ EVENTS\n    /*event StepChanged(\n        Steps previousStatus,\n        Steps newStatus\n    );*/\n    event StepChanged( address indexed user, Steps previousStatus, Steps newStatus );\n    event TokenListed( address indexed user,TokenList tokenSelected);\n    event OutputAddressSet( address indexed user, address outputAddress ); //event OutputAddressSeted(address OuputAddress);\n    event Received(address, uint); // Event mis lorsque des ETH sont reus\n    event Swaped( address indexed user,uint256 amountIn, address _token);\n \n    /*constructor(ISwapRouter _swapRouter) { swapRouter = _swapRouter; }*/\n    constructor() {\n        swapRouter = ISwapRouter(SwapRouterV3);\n        priceFeed = AggregatorV3Interface(  0xb4c4a493AB6356497713A78FFA6c60FB53517c63 );\n    }\n\n\n    //------------------------------------------------------------------ USER DATA\n    function getUserData(address userAddress) public view returns (TokenList[] memory tokenList, address outputAddress, uint depositStartTime, Steps step) {\n        UserData storage userData = usersData[userAddress];\n        tokenList = userData.tokenList;\n        outputAddress = userData.outputAddress;\n        depositStartTime = userData.depositStartTime;\n        step = userData.step;\n    }\n\n\n    //------------------------------------------------------------------ SETTING\n    /*function getOuputAddress() public view returns (address) { return OuputAddress; }\n    function setMixingDuration(uint _mixingDuration) private { mixingDuration = _mixingDuration; }\n    function setEntropy(uint _entropy) private { entropy = _entropy; }   */ \n\n    /*function setOuputAddress(address _OuputAddress) private {\n        OuputAddress = _OuputAddress;\n        emit OutputAddressSeted(_OuputAddress);\n    }*/\n    function setOutputAddress(address _outputAddress) private {\n        //UserData storage userData = usersData[msg.sender];\n        usersData[msg.sender].outputAddress = _outputAddress;\n        emit OutputAddressSet(msg.sender, _outputAddress);\n    }\n\n\n    /*function addToken(address _token) private {\n        TokenList memory newToken = TokenList(_token, 1);\n        tokenList.push(newToken);\n        emit TokenListed(newToken);\n    }*/\n    function addToken(address _token) private {\n        //UserData storage userData = usersData[msg.sender];\n        TokenList memory newToken = TokenList(_token, 1);\n        usersData[msg.sender].tokenList.push(newToken);\n        emit TokenListed(msg.sender, newToken);\n    }\n    \n    function getTokenState(uint256 _index) private view returns (uint8) {\n        require(_index < tokenList.length, \"Token index out of bounds\");\n        return tokenList[_index].State;\n    }\n    \n    function setTokenState(uint256 _index, uint8 _newState) private {\n        require(_index < tokenList.length, \"Token index out of bounds\");\n        tokenList[_index].State = _newState;\n    }\n\n\n    //------------------------------------------------------------------ UNISWAP\n   \n    function swapExactInputSingle(uint256 amountIn, address _tokenIn, address _tokenOut) public {\n        IERC20(_tokenIn).transferFrom(msg.sender, address(this), amountIn);// Transfert des tokens en question au smart contract ! Il faut penser  approve ce transfert avant lutilisation de cette fonction \n        IERC20(_tokenIn).approve(address(swapRouter), amountIn);  // autoriser uniswap  utiliser nos tokens\n        \n        ISwapRouter.ExactInputSingleParams memory params = //Creation des paramtres pour l'appel du swap\n            ISwapRouter.ExactInputSingleParams({\n                tokenIn: _tokenIn,\n                tokenOut: _tokenOut,\n                fee: poolFee,\n                recipient: msg.sender,\n                deadline: block.timestamp,\n                amountIn: amountIn,\n                amountOutMinimum: 0, // amountOutMinimum: _amountOutMinimum; pour eviter les frontrun  se lie a chainlink pour a\n                sqrtPriceLimitX96: 0\n            });\n        \n        swapRouter.exactInputSingle(params);// effectuer le swap, ETH sera transfrer directement au msg.sender\n\n    }\n\n    function swapTokensForETH(uint256 amountIn, address _token) public {\n        swapExactInputSingle(amountIn, _token, WETH9);\n        uint256 wethBalance = IERC20(WETH9).balanceOf(address(this));// WETH en ETH\n        unwrapETH(wethBalance);\n        emit Swaped(msg.sender, amountIn, _token);\n    }\n\n    function swapETHForTokens(uint256 amountIn, address _token) public payable {\n        uint256 WHCfees = amountIn / 1000;\n        uint256 amountAfterFees = amountIn - WHCfees; // 0.1% fees for the service we provide <3 \n        \n        wrapETH(amountAfterFees);// Appel de wrapETH() pour convertir ETH en WETH\n        swapExactInputSingle(amountAfterFees, WETH9, _token);// Appel de swapExactInputSingle() pour effectuer le swap en tokens\n\n        if (msg.value > amountAfterFees) {// Renvoyer les ETH restants  // revoir cette scurit\n            payable(msg.sender).transfer(msg.value - amountAfterFees);\n        }\n    }\n\n    function wrapETH(uint256 amountIn) public payable {\n        //require(msg.value >= amountIn, \"Not enough ETH sent\");\n        IWETH(WETH9).deposit{value: amountIn}();// Convertir ETH en WETH\n        IERC20(WETH9).transfer(msg.sender, amountIn);// Transfrer les WETH convertis au msg.sender\n\n        if (msg.value > amountIn) {// Renvoyer les ETH restants (si msg.value > amountIn)\n            payable(msg.sender).transfer(msg.value - amountIn);\n        }\n    }\n\n    function wrapETH2(uint256 amountIn, address recipient) public payable {\n        require(msg.value >= amountIn, \"Not enough ETH sent\");\n        IERC20(WETH9).approve(address(this), amountIn); // Utiliser IERC20 pour appeler la fonction approve\n        IWETH(WETH9).deposit{value: amountIn}(); // Convertir ETH en WETH\n        IERC20(WETH9).transfer(recipient, amountIn); // Transfrer les WETH convertis au destinataire\n\n        if (msg.value > amountIn) { // Renvoyer les ETH restants (si msg.value > amountIn)\n            payable(msg.sender).transfer(msg.value - amountIn);\n        }\n    }\n\n    function unwrapETH(uint256 amountIn) public payable{\n        //require(IERC20(WETH9).balanceOf(msg.sender) >= amountIn, \"Not enough WETH balance\");\n        IERC20(WETH9).transferFrom(msg.sender, address(this), amountIn);// Transfrer les WETH du msg.sender au contrat\n        IWETH(WETH9).withdraw(amountIn);// Convertir les WETH en ETH\n        payable(msg.sender).transfer(amountIn);// Envoyer les ETH convertis au msg.sender\n    }\n\n    /*function swapOrSwapBack(bool _SwapBack, uint256 _amountIn, address _tokenIn, address _tokenOut) public {\n        \n        if (!_SwapBack) {\n            swapExactInputSingle(_amountIn, _tokenIn, _tokenOut);\n            //TokenList memory newSwap = TokenList(_tokenIn, WETH9,2); // passe le token a l'tat swaped\n            //tokenList.push(newSwap);\n        }\n        else {\n            require(tokenList.length > 0, \"Le tableau est vide\");\n            swapExactInputSingle(_amountIn, _tokenOut, _tokenIn); // inversion in et out pour faire machine arrire\n            /*for (uint i = 0; i < tokenList.length; i++) {\n                tokenList[i].State = 3;     // recherche le token correspondant dans le tableau et le passe a l'tat backSwaped\n            }*//*\n        }\n    }*/\n\n    //------------------------------------------------------------------ TORNADO CASH\n    //------------------------------------------------------------------ CHAIN LINK\n    \n    function getLatestPrice() public view returns (int) {\n        (,int price,,,) = priceFeed.latestRoundData();\n        return price;\n    }\n\n    //------------------------------------------------------------------ WORKFLOW\n    //visibilit internal plutt que private. Cela permettra aux contrats drivs ou aux contrats de Gelato Network de pouvoir interagir avec ces fonctions.\n\n    /*function changeStep(Steps _from, Steps _to) private{\n        require(step == _from, \"changeStep Invalid\");\n        step = _to;\n        emit StepChanged(_from, _to);\n    }*/\n    function changeStep(Steps _from, Steps _to) private {\n        require(userSteps[msg.sender] == _from, \"changeStep() not possible\");\n        userSteps[msg.sender] = _to;\n        emit StepChanged(msg.sender, _from, _to);\n    }\n\n    //function RESET() public { step = Steps.TokenSelection; }\n    function reset() public {\n        userSteps[msg.sender] = Steps.TokenSelection; // Rinitialisez l'tape pour l'utilisateur\n        //UserData storage userData = usersData[msg.sender]; // Rinitialisez les tokens slectionns pour l'utilisateur\n        delete usersData[msg.sender].tokenList;\n    }\n\n    //function getCurrentStep() public view returns (Steps) { return step; }\n    function getCurrentStep() public view returns (Steps) {\n        return userSteps[msg.sender];\n    }\n\n    /*function Selection(address _selectedAddress) public {\n        changeStep( Steps.TokenSelection, Steps.Settings );\n        addToken(_selectedAddress);\n    }*/\n    /*function Selection(address _selectedAddress) public {\n        UserData storage userData = usersData[msg.sender];\n        require(userData.step == Steps.TokenSelection, \"Invalid step\");\n        userData.step = Steps.Settings;\n        emit StepChanged(msg.sender, Steps.TokenSelection, Steps.Settings);\n        addToken(_selectedAddress, userData);\n    }*/\n    function Selection(address _selectedAddress) public {\n        changeStep(Steps.TokenSelection, Steps.Settings);\n        addToken(_selectedAddress);\n    }\n\n    /*function Settings(address _OuputAddress) public {\n        changeStep( Steps.Settings, Steps.Swap );\n        setOuputAddress(_OuputAddress);\n    }*/\n    /*function Settings(address _outputAddress) public {\n        UserData storage userData = usersData[msg.sender];\n        require(userData.step == Steps.Settings, \"Invalid step\");\n        userData.step = Steps.Swap;\n        emit StepChanged(msg.sender, Steps.Settings, Steps.Swap);\n        setOutputAddress(_outputAddress, userData);\n    }*/\n    function Settings(address _outputAddress) public {\n        changeStep(Steps.Settings, Steps.Swap);\n        setOutputAddress(_outputAddress);\n    }\n\n\n    /*function Swap(uint256 amountIn, address _token) public {\n        changeStep( Steps.Swap, Steps.DepositMixer );\n        swapTokensForETH( amountIn, _token);\n        DepositMixer();\n    }*/\n    function Swap(uint256 amountIn, address _token) public {\n        changeStep(Steps.Swap, Steps.DepositMixer);\n        swapTokensForETH(amountIn, _token);\n        DepositMixer();\n    }\n\n    /*function DepositMixer() public {\n        changeStep( Steps.DepositMixer, Steps.WithdrawMixer );\n        depositStartTime = block.timestamp;\n        WithdrawMixer();\n    }*/\n    function DepositMixer() public {\n        changeStep(Steps.DepositMixer, Steps.WithdrawMixer);\n        depositStartTime = block.timestamp;\n        WithdrawMixer();\n    }\n        \n    // je crois que cette tape est inutile car le star() est dasn la step avant et le require est dans la step d'aprs\n    /*function Waiting() public {\n        require( step == Steps.DepositMixer, \"Wrong step\" );\n        step = Steps.Waiting;\n        emit StepChange( Steps.DepositMixer, Steps.Waiting );\n        //stepWithdrawMixer();\n    }*/\n\n    /*function WithdrawMixer() public {  //en internal pour l'implementation de Gelato\n        require(block.timestamp >= depositStartTime + mixingDuration, \"You must wait 24h at least\");\n        changeStep( Steps.WithdrawMixer, Steps.SwapBack );\n        SwapBack(); \n    }*/\n    function WithdrawMixer() public {\n        //UserData storage userData = usersData[msg.sender];\n        require(block.timestamp >= usersData[msg.sender].depositStartTime + mixingDuration, \"You must wait 24h at least\");\n        changeStep(Steps.WithdrawMixer, Steps.SwapBack);\n        SwapBack();\n    }\n        \n    //function FeesServices() public { SwapBack(); }\n    \n    /*function SwapBack() private {\n        changeStep( Steps.SwapBack, Steps.Done );\n        //swapOrSwapBack(true, 10000000000000000000, WETH9, DAI);\n        Done();\n    }*/\n    function SwapBack() private {\n        changeStep(Steps.SwapBack, Steps.Done);\n        //UserData storage userData = usersData[user]; si pas Done(user);\n        // swapOrSwapBack(true, 10000000000000000000, WETH9, DAI);\n        Done(); //Done(user);\n    }\n\n    function Done() private { }\n\n    receive() external payable {\n        emit Received(msg.sender, msg.value);\n    }\n    \n\n}",
  "sourcePath": "/Users/nicolas/Documents/VSC/WormHoleCash/truffle/contracts/WormHoleCash.sol",
  "compiler": {
    "name": "solc",
    "version": "0.8.18+commit.87f61d96.Emscripten.clang"
  },
  "schemaVersion": "3.4.11",
  "updatedAt": "2023-04-07T10:28:59.530Z",
  "networkType": "ethereum",
  "devdoc": {
    "kind": "dev",
    "methods": {},
    "version": 1
  },
  "userdoc": {
    "kind": "user",
    "methods": {},
    "version": 1
  }
}