{
  "contractName": "WormHoleCash",
  "abi": [
    {
      "inputs": [],
      "stateMutability": "nonpayable",
      "type": "constructor"
    },
    {
      "anonymous": false,
      "inputs": [
        {
          "indexed": false,
          "internalType": "address",
          "name": "OuputAddress",
          "type": "address"
        }
      ],
      "name": "OutputAddressSeted",
      "type": "event"
    },
    {
      "anonymous": false,
      "inputs": [
        {
          "indexed": false,
          "internalType": "address",
          "name": "",
          "type": "address"
        },
        {
          "indexed": false,
          "internalType": "uint256",
          "name": "",
          "type": "uint256"
        }
      ],
      "name": "Received",
      "type": "event"
    },
    {
      "anonymous": false,
      "inputs": [
        {
          "indexed": false,
          "internalType": "enum WormHoleCash.Steps",
          "name": "previousStatus",
          "type": "uint8"
        },
        {
          "indexed": false,
          "internalType": "enum WormHoleCash.Steps",
          "name": "newStatus",
          "type": "uint8"
        }
      ],
      "name": "StepChanged",
      "type": "event"
    },
    {
      "anonymous": false,
      "inputs": [
        {
          "indexed": false,
          "internalType": "uint256",
          "name": "amountIn",
          "type": "uint256"
        },
        {
          "indexed": false,
          "internalType": "address",
          "name": "_token",
          "type": "address"
        }
      ],
      "name": "Swaped",
      "type": "event"
    },
    {
      "anonymous": false,
      "inputs": [
        {
          "components": [
            {
              "internalType": "address",
              "name": "Token",
              "type": "address"
            },
            {
              "internalType": "uint8",
              "name": "State",
              "type": "uint8"
            }
          ],
          "indexed": false,
          "internalType": "struct WormHoleCash.TokenList",
          "name": "tokenSelected",
          "type": "tuple"
        }
      ],
      "name": "TokenListed",
      "type": "event"
    },
    {
      "inputs": [],
      "name": "DAI",
      "outputs": [
        {
          "internalType": "address",
          "name": "",
          "type": "address"
        }
      ],
      "stateMutability": "view",
      "type": "function",
      "constant": true
    },
    {
      "inputs": [],
      "name": "LINK",
      "outputs": [
        {
          "internalType": "address",
          "name": "",
          "type": "address"
        }
      ],
      "stateMutability": "view",
      "type": "function",
      "constant": true
    },
    {
      "inputs": [],
      "name": "OuputAddress",
      "outputs": [
        {
          "internalType": "address",
          "name": "",
          "type": "address"
        }
      ],
      "stateMutability": "view",
      "type": "function",
      "constant": true
    },
    {
      "inputs": [],
      "name": "SwapRouterV3",
      "outputs": [
        {
          "internalType": "address",
          "name": "",
          "type": "address"
        }
      ],
      "stateMutability": "view",
      "type": "function",
      "constant": true
    },
    {
      "inputs": [],
      "name": "WETH9",
      "outputs": [
        {
          "internalType": "address",
          "name": "",
          "type": "address"
        }
      ],
      "stateMutability": "view",
      "type": "function",
      "constant": true
    },
    {
      "inputs": [],
      "name": "depositStartTime",
      "outputs": [
        {
          "internalType": "uint256",
          "name": "",
          "type": "uint256"
        }
      ],
      "stateMutability": "view",
      "type": "function",
      "constant": true
    },
    {
      "inputs": [],
      "name": "entropy",
      "outputs": [
        {
          "internalType": "uint256",
          "name": "",
          "type": "uint256"
        }
      ],
      "stateMutability": "view",
      "type": "function",
      "constant": true
    },
    {
      "inputs": [],
      "name": "mixingDuration",
      "outputs": [
        {
          "internalType": "uint256",
          "name": "",
          "type": "uint256"
        }
      ],
      "stateMutability": "view",
      "type": "function",
      "constant": true
    },
    {
      "inputs": [],
      "name": "poolFee",
      "outputs": [
        {
          "internalType": "uint24",
          "name": "",
          "type": "uint24"
        }
      ],
      "stateMutability": "view",
      "type": "function",
      "constant": true
    },
    {
      "inputs": [],
      "name": "step",
      "outputs": [
        {
          "internalType": "enum WormHoleCash.Steps",
          "name": "",
          "type": "uint8"
        }
      ],
      "stateMutability": "view",
      "type": "function",
      "constant": true
    },
    {
      "inputs": [],
      "name": "swapRouter",
      "outputs": [
        {
          "internalType": "contract ISwapRouter",
          "name": "",
          "type": "address"
        }
      ],
      "stateMutability": "view",
      "type": "function",
      "constant": true
    },
    {
      "inputs": [
        {
          "internalType": "uint256",
          "name": "",
          "type": "uint256"
        }
      ],
      "name": "tokenList",
      "outputs": [
        {
          "internalType": "address",
          "name": "Token",
          "type": "address"
        },
        {
          "internalType": "uint8",
          "name": "State",
          "type": "uint8"
        }
      ],
      "stateMutability": "view",
      "type": "function",
      "constant": true
    },
    {
      "stateMutability": "payable",
      "type": "receive",
      "payable": true
    },
    {
      "inputs": [
        {
          "internalType": "uint256",
          "name": "amountIn",
          "type": "uint256"
        },
        {
          "internalType": "address",
          "name": "_tokenIn",
          "type": "address"
        },
        {
          "internalType": "address",
          "name": "_tokenOut",
          "type": "address"
        }
      ],
      "name": "swapExactInputSingle",
      "outputs": [],
      "stateMutability": "nonpayable",
      "type": "function"
    },
    {
      "inputs": [
        {
          "internalType": "uint256",
          "name": "amountIn",
          "type": "uint256"
        },
        {
          "internalType": "address",
          "name": "_token",
          "type": "address"
        }
      ],
      "name": "swapTokensForETH",
      "outputs": [],
      "stateMutability": "nonpayable",
      "type": "function"
    },
    {
      "inputs": [
        {
          "internalType": "uint256",
          "name": "amountIn",
          "type": "uint256"
        },
        {
          "internalType": "address",
          "name": "_token",
          "type": "address"
        }
      ],
      "name": "swapETHForTokens",
      "outputs": [],
      "stateMutability": "payable",
      "type": "function",
      "payable": true
    },
    {
      "inputs": [
        {
          "internalType": "uint256",
          "name": "amountIn",
          "type": "uint256"
        }
      ],
      "name": "wrapETH",
      "outputs": [],
      "stateMutability": "payable",
      "type": "function",
      "payable": true
    },
    {
      "inputs": [
        {
          "internalType": "uint256",
          "name": "amountIn",
          "type": "uint256"
        },
        {
          "internalType": "address",
          "name": "recipient",
          "type": "address"
        }
      ],
      "name": "wrapETH2",
      "outputs": [],
      "stateMutability": "payable",
      "type": "function",
      "payable": true
    },
    {
      "inputs": [
        {
          "internalType": "uint256",
          "name": "amountIn",
          "type": "uint256"
        }
      ],
      "name": "unwrapETH",
      "outputs": [],
      "stateMutability": "payable",
      "type": "function",
      "payable": true
    },
    {
      "inputs": [],
      "name": "getLatestPrice",
      "outputs": [
        {
          "internalType": "int256",
          "name": "",
          "type": "int256"
        }
      ],
      "stateMutability": "view",
      "type": "function",
      "constant": true
    },
    {
      "inputs": [],
      "name": "RESET",
      "outputs": [],
      "stateMutability": "nonpayable",
      "type": "function"
    },
    {
      "inputs": [],
      "name": "getCurrentStep",
      "outputs": [
        {
          "internalType": "enum WormHoleCash.Steps",
          "name": "",
          "type": "uint8"
        }
      ],
      "stateMutability": "view",
      "type": "function",
      "constant": true
    },
    {
      "inputs": [
        {
          "internalType": "address",
          "name": "_selectedAddress",
          "type": "address"
        }
      ],
      "name": "Selection",
      "outputs": [],
      "stateMutability": "nonpayable",
      "type": "function"
    },
    {
      "inputs": [
        {
          "internalType": "address",
          "name": "_OuputAddress",
          "type": "address"
        }
      ],
      "name": "Settings",
      "outputs": [],
      "stateMutability": "nonpayable",
      "type": "function"
    },
    {
      "inputs": [
        {
          "internalType": "uint256",
          "name": "amountIn",
          "type": "uint256"
        },
        {
          "internalType": "address",
          "name": "_token",
          "type": "address"
        }
      ],
      "name": "Swap",
      "outputs": [],
      "stateMutability": "nonpayable",
      "type": "function"
    },
    {
      "inputs": [],
      "name": "DepositMixer",
      "outputs": [],
      "stateMutability": "nonpayable",
      "type": "function"
    },
    {
      "inputs": [],
      "name": "WithdrawMixer",
      "outputs": [],
      "stateMutability": "nonpayable",
      "type": "function"
    }
  ],
  "bytecode": "0x60a0604052603c600255600060035534801561001a57600080fd5b5073e592427a0aece92de3edee1f18e0157c0586156473ffffffffffffffffffffffffffffffffffffffff1660808173ffffffffffffffffffffffffffffffffffffffff168152505073b4c4a493ab6356497713a78ffa6c60fb53517c636000806101000a81548173ffffffffffffffffffffffffffffffffffffffff021916908373ffffffffffffffffffffffffffffffffffffffff160217905550608051611dc96100e06000396000818161092101528181610a430152610ebd0152611dc96000f3fe6080604052600436106101855760003560e01c806392f23918116100d1578063c644ee6f1161008a578063d1a3925a11610064578063d1a3925a1461051c578063d2a6950114610547578063e0bab4c414610563578063e25fe1751461058e576101c5565b8063c644ee6f146104c0578063c88da83d146104dc578063cba2a85a146104f3576101c5565b806392f23918146103e25780639863b8dc1461040d5780639ead722214610429578063a27486ea14610467578063af2aae451461047e578063c31c9c0714610495576101c5565b80634aa4a4fc1161013e578063587419d511610118578063587419d514610338578063757e61e01461036357806388d538361461038c5780638e15f473146103b7576101c5565b80634aa4a4fc146102bb5780634cc40312146102e65780634ce4dca51461030f576101c5565b8063089fe6aa146101ca5780631b6b6d23146101f55780631c58db4f146102205780631d3824ea1461023c57806323aad1841461026757806347ce07cc14610290576101c5565b366101c5577f88a5966d370b9919b20f3e2c13ff65706f196a4e32cc2c12bf57088f8852587433346040516101bb929190611474565b60405180910390a1005b600080fd5b3480156101d657600080fd5b506101df6105b9565b6040516101ec91906114bb565b60405180910390f35b34801561020157600080fd5b5061020a6105bf565b60405161021791906114d6565b60405180910390f35b61023a60048036038101906102359190611522565b6105d7565b005b34801561024857600080fd5b5061025161073d565b60405161025e91906115c6565b60405180910390f35b34801561027357600080fd5b5061028e6004803603810190610289919061160d565b610754565b005b34801561029c57600080fd5b506102a561084c565b6040516102b2919061164d565b60405180910390f35b3480156102c757600080fd5b506102d0610852565b6040516102dd91906114d6565b60405180910390f35b3480156102f257600080fd5b5061030d60048036038101906103089190611668565b61086a565b005b34801561031b57600080fd5b5061033660048036038101906103319190611695565b610882565b005b34801561034457600080fd5b5061034d610ae4565b60405161035a919061164d565b60405180910390f35b34801561036f57600080fd5b5061038a6004803603810190610385919061160d565b610aea565b005b34801561039857600080fd5b506103a1610b0c565b6040516103ae91906114d6565b60405180910390f35b3480156103c357600080fd5b506103cc610b32565b6040516103d99190611701565b60405180910390f35b3480156103ee57600080fd5b506103f7610bd1565b604051610404919061164d565b60405180910390f35b6104276004803603810190610422919061160d565b610bd7565b005b34801561043557600080fd5b50610450600480360381019061044b9190611522565b610e14565b60405161045e929190611738565b60405180910390f35b34801561047357600080fd5b5061047c610e71565b005b34801561048a57600080fd5b50610493610e8e565b005b3480156104a157600080fd5b506104aa610ebb565b6040516104b791906117c0565b60405180910390f35b6104da60048036038101906104d5919061160d565b610edf565b005b3480156104e857600080fd5b506104f1610f8a565b005b3480156104ff57600080fd5b5061051a60048036038101906105159190611668565b610ff2565b005b34801561052857600080fd5b5061053161100a565b60405161053e91906114d6565b60405180910390f35b610561600480360381019061055c9190611522565b611022565b005b34801561056f57600080fd5b50610578611180565b60405161058591906114d6565b60405180910390f35b34801561059a57600080fd5b506105a3611198565b6040516105b091906115c6565b60405180910390f35b610bb881565b73326c977e6efc84e512bb9c30f76e30c160ed06fb81565b73b4fbf271143f4fbf7b91a5ded31805e42b2208d673ffffffffffffffffffffffffffffffffffffffff1663d0e30db0826040518263ffffffff1660e01b81526004016000604051808303818588803b15801561063357600080fd5b505af1158015610647573d6000803e3d6000fd5b505050505073b4fbf271143f4fbf7b91a5ded31805e42b2208d673ffffffffffffffffffffffffffffffffffffffff1663a9059cbb33836040518363ffffffff1660e01b815260040161069b929190611474565b6020604051808303816000875af11580156106ba573d6000803e3d6000fd5b505050506040513d601f19601f820116820180604052508101906106de9190611813565b508034111561073a573373ffffffffffffffffffffffffffffffffffffffff166108fc823461070d919061186f565b9081150290604051600060405180830381858888f19350505050158015610738573d6000803e3d6000fd5b505b50565b6000600660009054906101000a900460ff16905090565b610773828273b4fbf271143f4fbf7b91a5ded31805e42b2208d6610882565b600073b4fbf271143f4fbf7b91a5ded31805e42b2208d673ffffffffffffffffffffffffffffffffffffffff166370a08231306040518263ffffffff1660e01b81526004016107c291906114d6565b602060405180830381865afa1580156107df573d6000803e3d6000fd5b505050506040513d601f19601f8201168201806040525081019061080391906118b8565b905061080e81611022565b7f34298633609b7e88fa9416f7bb838f82b46bfc3451cd1004b5e4c9970093a153838360405161083f9291906118e5565b60405180910390a1505050565b60035481565b73b4fbf271143f4fbf7b91a5ded31805e42b2208d681565b610876600060016111ab565b61087f81611287565b50565b8173ffffffffffffffffffffffffffffffffffffffff166323b872dd3330866040518463ffffffff1660e01b81526004016108bf9392919061190e565b6020604051808303816000875af11580156108de573d6000803e3d6000fd5b505050506040513d601f19601f820116820180604052508101906109029190611813565b508173ffffffffffffffffffffffffffffffffffffffff1663095ea7b37f0000000000000000000000000000000000000000000000000000000000000000856040518363ffffffff1660e01b815260040161095e929190611474565b6020604051808303816000875af115801561097d573d6000803e3d6000fd5b505050506040513d601f19601f820116820180604052508101906109a19190611813565b5060006040518061010001604052808473ffffffffffffffffffffffffffffffffffffffff1681526020018373ffffffffffffffffffffffffffffffffffffffff168152602001610bb862ffffff1681526020013373ffffffffffffffffffffffffffffffffffffffff16815260200142815260200185815260200160008152602001600073ffffffffffffffffffffffffffffffffffffffff1681525090507f000000000000000000000000000000000000000000000000000000000000000073ffffffffffffffffffffffffffffffffffffffff1663414bf389826040518263ffffffff1660e01b8152600401610a9a9190611a23565b6020604051808303816000875af1158015610ab9573d6000803e3d6000fd5b505050506040513d601f19601f82011682018060405250810190610add91906118b8565b5050505050565b60045481565b610af6600260036111ab565b610b008282610754565b610b08610e71565b5050565b600160009054906101000a900473ffffffffffffffffffffffffffffffffffffffff1681565b60008060008054906101000a900473ffffffffffffffffffffffffffffffffffffffff1673ffffffffffffffffffffffffffffffffffffffff1663feaf968c6040518163ffffffff1660e01b815260040160a060405180830381865afa158015610ba0573d6000803e3d6000fd5b505050506040513d601f19601f82011682018060405250810190610bc49190611aad565b5050509150508091505090565b60025481565b81341015610c1a576040517f08c379a0000000000000000000000000000000000000000000000000000000008152600401610c1190611b85565b60405180910390fd5b73b4fbf271143f4fbf7b91a5ded31805e42b2208d673ffffffffffffffffffffffffffffffffffffffff1663095ea7b330846040518363ffffffff1660e01b8152600401610c69929190611474565b6020604051808303816000875af1158015610c88573d6000803e3d6000fd5b505050506040513d601f19601f82011682018060405250810190610cac9190611813565b5073b4fbf271143f4fbf7b91a5ded31805e42b2208d673ffffffffffffffffffffffffffffffffffffffff1663d0e30db0836040518263ffffffff1660e01b81526004016000604051808303818588803b158015610d0957600080fd5b505af1158015610d1d573d6000803e3d6000fd5b505050505073b4fbf271143f4fbf7b91a5ded31805e42b2208d673ffffffffffffffffffffffffffffffffffffffff1663a9059cbb82846040518363ffffffff1660e01b8152600401610d71929190611474565b6020604051808303816000875af1158015610d90573d6000803e3d6000fd5b505050506040513d601f19601f82011682018060405250810190610db49190611813565b5081341115610e10573373ffffffffffffffffffffffffffffffffffffffff166108fc8334610de3919061186f565b9081150290604051600060405180830381858888f19350505050158015610e0e573d6000803e3d6000fd5b505b5050565b60058181548110610e2457600080fd5b906000526020600020016000915090508060000160009054906101000a900473ffffffffffffffffffffffffffffffffffffffff16908060000160149054906101000a900460ff16905082565b610e7d600360046111ab565b42600481905550610e8c610f8a565b565b6000600660006101000a81548160ff02191690836006811115610eb457610eb361154f565b5b0217905550565b7f000000000000000000000000000000000000000000000000000000000000000081565b60006103e883610eef9190611bd4565b905060008184610eff919061186f565b9050610f0a816105d7565b610f298173b4fbf271143f4fbf7b91a5ded31805e42b2208d685610882565b80341115610f84573373ffffffffffffffffffffffffffffffffffffffff166108fc8234610f57919061186f565b9081150290604051600060405180830381858888f19350505050158015610f82573d6000803e3d6000fd5b505b50505050565b600254600454610f9a9190611c05565b421015610fdc576040517f08c379a0000000000000000000000000000000000000000000000000000000008152600401610fd390611c85565b60405180910390fd5b610fe8600460056111ab565b610ff0611387565b565b610ffe600160026111ab565b6110078161139d565b50565b73e592427a0aece92de3edee1f18e0157c0586156481565b73b4fbf271143f4fbf7b91a5ded31805e42b2208d673ffffffffffffffffffffffffffffffffffffffff166323b872dd3330846040518463ffffffff1660e01b81526004016110739392919061190e565b6020604051808303816000875af1158015611092573d6000803e3d6000fd5b505050506040513d601f19601f820116820180604052508101906110b69190611813565b5073b4fbf271143f4fbf7b91a5ded31805e42b2208d673ffffffffffffffffffffffffffffffffffffffff16632e1a7d4d826040518263ffffffff1660e01b8152600401611104919061164d565b600060405180830381600087803b15801561111e57600080fd5b505af1158015611132573d6000803e3d6000fd5b505050503373ffffffffffffffffffffffffffffffffffffffff166108fc829081150290604051600060405180830381858888f1935050505015801561117c573d6000803e3d6000fd5b5050565b7311fe4b6ae13d2a6055c8d9cf65c55bac32b5d84481565b600660009054906101000a900460ff1681565b8160068111156111be576111bd61154f565b5b600660009054906101000a900460ff1660068111156111e0576111df61154f565b5b14611220576040517f08c379a000000000000000000000000000000000000000000000000000000000815260040161121790611cf1565b60405180910390fd5b80600660006101000a81548160ff021916908360068111156112455761124461154f565b5b02179055507f7e6a055d6853c399de1ac874b41d9eab489d3bfc1563b1ae093d9244dcbcdc3c828260405161127b929190611d11565b60405180910390a15050565b600060405180604001604052808373ffffffffffffffffffffffffffffffffffffffff168152602001600160ff1681525090506005819080600181540180825580915050600190039060005260206000200160009091909190915060008201518160000160006101000a81548173ffffffffffffffffffffffffffffffffffffffff021916908373ffffffffffffffffffffffffffffffffffffffff16021790555060208201518160000160146101000a81548160ff021916908360ff16021790555050507f5cc9bfef82d2aa0e0eed2bd0b055a7bc09d27d8ae10e980b7d6c1e0fc45277338160405161137b9190611d78565b60405180910390a15050565b611393600560066111ab565b61139b611418565b565b80600160006101000a81548173ffffffffffffffffffffffffffffffffffffffff021916908373ffffffffffffffffffffffffffffffffffffffff1602179055507f13d11dc688a0c4308bda63cf234666d65fe45f7deb7a249b4bf525b1985023b78160405161140d91906114d6565b60405180910390a150565b565b600073ffffffffffffffffffffffffffffffffffffffff82169050919050565b60006114458261141a565b9050919050565b6114558161143a565b82525050565b6000819050919050565b61146e8161145b565b82525050565b6000604082019050611489600083018561144c565b6114966020830184611465565b9392505050565b600062ffffff82169050919050565b6114b58161149d565b82525050565b60006020820190506114d060008301846114ac565b92915050565b60006020820190506114eb600083018461144c565b92915050565b600080fd5b6114ff8161145b565b811461150a57600080fd5b50565b60008135905061151c816114f6565b92915050565b600060208284031215611538576115376114f1565b5b60006115468482850161150d565b91505092915050565b7f4e487b7100000000000000000000000000000000000000000000000000000000600052602160045260246000fd5b6007811061158f5761158e61154f565b5b50565b60008190506115a08261157e565b919050565b60006115b082611592565b9050919050565b6115c0816115a5565b82525050565b60006020820190506115db60008301846115b7565b92915050565b6115ea8161143a565b81146115f557600080fd5b50565b600081359050611607816115e1565b92915050565b60008060408385031215611624576116236114f1565b5b60006116328582860161150d565b9250506020611643858286016115f8565b9150509250929050565b60006020820190506116626000830184611465565b92915050565b60006020828403121561167e5761167d6114f1565b5b600061168c848285016115f8565b91505092915050565b6000806000606084860312156116ae576116ad6114f1565b5b60006116bc8682870161150d565b93505060206116cd868287016115f8565b92505060406116de868287016115f8565b9150509250925092565b6000819050919050565b6116fb816116e8565b82525050565b600060208201905061171660008301846116f2565b92915050565b600060ff82169050919050565b6117328161171c565b82525050565b600060408201905061174d600083018561144c565b61175a6020830184611729565b9392505050565b6000819050919050565b600061178661178161177c8461141a565b611761565b61141a565b9050919050565b60006117988261176b565b9050919050565b60006117aa8261178d565b9050919050565b6117ba8161179f565b82525050565b60006020820190506117d560008301846117b1565b92915050565b60008115159050919050565b6117f0816117db565b81146117fb57600080fd5b50565b60008151905061180d816117e7565b92915050565b600060208284031215611829576118286114f1565b5b6000611837848285016117fe565b91505092915050565b7f4e487b7100000000000000000000000000000000000000000000000000000000600052601160045260246000fd5b600061187a8261145b565b91506118858361145b565b925082820390508181111561189d5761189c611840565b5b92915050565b6000815190506118b2816114f6565b92915050565b6000602082840312156118ce576118cd6114f1565b5b60006118dc848285016118a3565b91505092915050565b60006040820190506118fa6000830185611465565b611907602083018461144c565b9392505050565b6000606082019050611923600083018661144c565b611930602083018561144c565b61193d6040830184611465565b949350505050565b61194e8161143a565b82525050565b61195d8161149d565b82525050565b61196c8161145b565b82525050565b61197b8161141a565b82525050565b610100820160008201516119986000850182611945565b5060208201516119ab6020850182611945565b5060408201516119be6040850182611954565b5060608201516119d16060850182611945565b5060808201516119e46080850182611963565b5060a08201516119f760a0850182611963565b5060c0820151611a0a60c0850182611963565b5060e0820151611a1d60e0850182611972565b50505050565b600061010082019050611a396000830184611981565b92915050565b600069ffffffffffffffffffff82169050919050565b611a5e81611a3f565b8114611a6957600080fd5b50565b600081519050611a7b81611a55565b92915050565b611a8a816116e8565b8114611a9557600080fd5b50565b600081519050611aa781611a81565b92915050565b600080600080600060a08688031215611ac957611ac86114f1565b5b6000611ad788828901611a6c565b9550506020611ae888828901611a98565b9450506040611af9888289016118a3565b9350506060611b0a888289016118a3565b9250506080611b1b88828901611a6c565b9150509295509295909350565b600082825260208201905092915050565b7f4e6f7420656e6f756768204554482073656e7400000000000000000000000000600082015250565b6000611b6f601383611b28565b9150611b7a82611b39565b602082019050919050565b60006020820190508181036000830152611b9e81611b62565b9050919050565b7f4e487b7100000000000000000000000000000000000000000000000000000000600052601260045260246000fd5b6000611bdf8261145b565b9150611bea8361145b565b925082611bfa57611bf9611ba5565b5b828204905092915050565b6000611c108261145b565b9150611c1b8361145b565b9250828201905080821115611c3357611c32611840565b5b92915050565b7f596f75206d757374207761697420323468206174206c65617374000000000000600082015250565b6000611c6f601a83611b28565b9150611c7a82611c39565b602082019050919050565b60006020820190508181036000830152611c9e81611c62565b9050919050565b7f6368616e67655374657020496e76616c69640000000000000000000000000000600082015250565b6000611cdb601283611b28565b9150611ce682611ca5565b602082019050919050565b60006020820190508181036000830152611d0a81611cce565b9050919050565b6000604082019050611d2660008301856115b7565b611d3360208301846115b7565b9392505050565b611d438161171c565b82525050565b604082016000820151611d5f6000850182611945565b506020820151611d726020850182611d3a565b50505050565b6000604082019050611d8d6000830184611d49565b9291505056fea2646970667358221220a113372b5a08719e9120db1f64e414d002540812cbad77752235cda6ef96d75964736f6c63430008120033",
  "immutableReferences": {
    "124": [
      {
        "length": 32,
        "start": 2337
      },
      {
        "length": 32,
        "start": 2627
      },
      {
        "length": 32,
        "start": 3773
      }
    ]
  },
  "source": "// SPDX-License-Identifier: MIT\n//import \"@openzeppelin/contracts/utils/ReentrancyGuard.sol\";\nimport \"@chainlink/contracts/src/v0.8/interfaces/AggregatorV3Interface.sol\";\n\npragma solidity 0.8.18;\n    //------------------------------------------------------------------ INTERFACES\ninterface IERC20 {\n    function transferFrom(address sender, address recipient, uint256 amount) external returns (bool);\n    function approve(address spender, uint256 amount) external returns (bool);\n    function balanceOf(address account) external view returns (uint256);\n    //function totalSupply() external view returns (uint256);\n    function transfer(address recipient, uint256 amount) external returns (bool);\n    //function allowance(address owner, address spender) external view returns (uint256);\n}\n\ninterface IWETH {\n    function deposit() external payable;\n    function withdraw(uint wad) external;\n}\n\ninterface ISwapRouter {\n    struct ExactInputSingleParams {\n        address tokenIn;\n        address tokenOut;\n        uint24  fee;\n        address recipient;\n        uint256 deadline;\n        uint256 amountIn;\n        uint256 amountOutMinimum;\n        uint160 sqrtPriceLimitX96;\n    }\n\n\n    /// @notice Swaps `amountIn` of one token for as much as possible of another token\n    /// @param params The parameters necessary for the swap, encoded as `ExactInputSingleParams` in calldata\n    /// @return amountOut The amount of the received token\n    function exactInputSingle(ExactInputSingleParams calldata params) external payable returns (uint256 amountOut);\n}\n\ncontract WormHoleCash { // is ReentrancyGuard {\n    ISwapRouter public immutable swapRouter;\n    AggregatorV3Interface internal priceFeed;\n\n\n    struct TokenList {\n        //address From; address To;\n        address Token;\n        uint8 State; //1=selected 2=Swaped 3=BackSwaped 4=Error je pourais amliorer a en array outruct ou enum\n    }\n\n    address public constant SwapRouterV3 = 0xE592427A0AEce92De3Edee1F18E0157C05861564;\n    address public constant WETH9 = 0xB4FBF271143F4FBf7B91A5ded31805e42b2208d6;\n    address public constant DAI = 0x11fE4B6AE13d2a6055C8D9cF65c55bac32B5d844;\n    address public constant LINK = 0x326C977E6efc84E512bB9C30f76E30c160eD06FB;\n\n    address public OuputAddress;\n    uint public mixingDuration = 1 minutes;\n    uint public entropy = 0;\n    uint256 public depositStartTime;\n    uint24 public constant poolFee = 3000;    // frais de pool standard Uniswap  0.3%\n    TokenList[] public tokenList;\n    Steps public step;\n\n    enum Steps {\n        TokenSelection, // slection des token que l'on souhaite utiliser   \n        Settings,        // Address Output, choix ETH ou StableCOins, Duration, Antropie, nombre de adresse de sortie\n        Swap,           // Swap sur Uni\n        DepositMixer,   // Tornado Cash dpo\n        //Waiting,        // Mixage Automation via Gelato\n        WithdrawMixer,  // Tornado Cash sortie\n        //FeesServices,   // Frais d'utilisation\n        SwapBack,       // Swap vers Tokens\n        Done            // Enjoy\n    }\n\n    //------------------------------------------------------------------ EVENTS\n    event StepChanged(\n        Steps previousStatus,\n        Steps newStatus\n    );\n\n    event TokenListed(TokenList tokenSelected);\n    event OutputAddressSeted(address OuputAddress);\n    event Received(address, uint); // Event mis lorsque des ETH sont reus\n    event Swaped(uint256 amountIn, address _token);\n \n    /*constructor(ISwapRouter _swapRouter) { swapRouter = _swapRouter; }*/\n    constructor() {\n        swapRouter = ISwapRouter(SwapRouterV3);\n        priceFeed = AggregatorV3Interface(  0xb4c4a493AB6356497713A78FFA6c60FB53517c63 );\n    }\n    //------------------------------------------------------------------ SETTING\n    /*function getOuputAddress() public view returns (address) { return OuputAddress; }\n    function setMixingDuration(uint _mixingDuration) private { mixingDuration = _mixingDuration; }\n    function setEntropy(uint _entropy) private { entropy = _entropy; }   */ \n\n    function setOuputAddress(address _OuputAddress) private {\n        OuputAddress = _OuputAddress;\n        emit OutputAddressSeted(_OuputAddress);\n    }\n\n    function addToken(address _token) private {\n        TokenList memory newToken = TokenList(_token, 1);\n        tokenList.push(newToken);\n        emit TokenListed(newToken);\n    }\n    \n    function getTokenState(uint256 _index) private view returns (uint8) {\n        require(_index < tokenList.length, \"Token index out of bounds\");\n        return tokenList[_index].State;\n    }\n    \n    function setTokenState(uint256 _index, uint8 _newState) private {\n        require(_index < tokenList.length, \"Token index out of bounds\");\n        tokenList[_index].State = _newState;\n    }\n\n    //------------------------------------------------------------------ UNISWAP\n   \n    function swapExactInputSingle(uint256 amountIn, address _tokenIn, address _tokenOut) public {\n        IERC20(_tokenIn).transferFrom(msg.sender, address(this), amountIn);// Transfert des tokens en question au smart contract ! Il faut penser  approve ce transfert avant lutilisation de cette fonction \n        IERC20(_tokenIn).approve(address(swapRouter), amountIn);  // autoriser uniswap  utiliser nos tokens\n        \n        ISwapRouter.ExactInputSingleParams memory params = //Creation des paramtres pour l'appel du swap\n            ISwapRouter.ExactInputSingleParams({\n                tokenIn: _tokenIn,\n                tokenOut: _tokenOut,\n                fee: poolFee,\n                recipient: msg.sender,\n                deadline: block.timestamp,\n                amountIn: amountIn,\n                amountOutMinimum: 0, // amountOutMinimum: _amountOutMinimum; pour eviter les frontrun  se lie a chainlink pour a\n                sqrtPriceLimitX96: 0\n            });\n        \n        swapRouter.exactInputSingle(params);// effectuer le swap, ETH sera transfrer directement au msg.sender\n\n    }\n\n    function swapTokensForETH(uint256 amountIn, address _token) public {\n        swapExactInputSingle(amountIn, _token, WETH9);\n        uint256 wethBalance = IERC20(WETH9).balanceOf(address(this));// WETH en ETH\n        unwrapETH(wethBalance);\n        emit Swaped(amountIn, _token);\n    }\n\n    function swapETHForTokens(uint256 amountIn, address _token) public payable {\n        uint256 WHCfees = amountIn / 1000;\n        uint256 amountAfterFees = amountIn - WHCfees; // 0.1% fees for the service we provide <3 \n        \n        wrapETH(amountAfterFees);// Appel de wrapETH() pour convertir ETH en WETH\n        swapExactInputSingle(amountAfterFees, WETH9, _token);// Appel de swapExactInputSingle() pour effectuer le swap en tokens\n\n        if (msg.value > amountAfterFees) {// Renvoyer les ETH restants  // revoir cette scurit\n            payable(msg.sender).transfer(msg.value - amountAfterFees);\n        }\n    }\n\n    function wrapETH(uint256 amountIn) public payable {\n        //require(msg.value >= amountIn, \"Not enough ETH sent\");\n        IWETH(WETH9).deposit{value: amountIn}();// Convertir ETH en WETH\n        IERC20(WETH9).transfer(msg.sender, amountIn);// Transfrer les WETH convertis au msg.sender\n\n        if (msg.value > amountIn) {// Renvoyer les ETH restants (si msg.value > amountIn)\n            payable(msg.sender).transfer(msg.value - amountIn);\n        }\n    }\n\n    function wrapETH2(uint256 amountIn, address recipient) public payable {\n        require(msg.value >= amountIn, \"Not enough ETH sent\");\n        IERC20(WETH9).approve(address(this), amountIn); // Utiliser IERC20 pour appeler la fonction approve\n        IWETH(WETH9).deposit{value: amountIn}(); // Convertir ETH en WETH\n        IERC20(WETH9).transfer(recipient, amountIn); // Transfrer les WETH convertis au destinataire\n\n        if (msg.value > amountIn) { // Renvoyer les ETH restants (si msg.value > amountIn)\n            payable(msg.sender).transfer(msg.value - amountIn);\n        }\n    }\n\n    function unwrapETH(uint256 amountIn) public payable{\n        //require(IERC20(WETH9).balanceOf(msg.sender) >= amountIn, \"Not enough WETH balance\");\n        IERC20(WETH9).transferFrom(msg.sender, address(this), amountIn);// Transfrer les WETH du msg.sender au contrat\n        IWETH(WETH9).withdraw(amountIn);// Convertir les WETH en ETH\n        payable(msg.sender).transfer(amountIn);// Envoyer les ETH convertis au msg.sender\n    }\n\n    /*function swapOrSwapBack(bool _SwapBack, uint256 _amountIn, address _tokenIn, address _tokenOut) public {\n        \n        if (!_SwapBack) {\n            swapExactInputSingle(_amountIn, _tokenIn, _tokenOut);\n            //TokenList memory newSwap = TokenList(_tokenIn, WETH9,2); // passe le token a l'tat swaped\n            //tokenList.push(newSwap);\n        }\n        else {\n            require(tokenList.length > 0, \"Le tableau est vide\");\n            swapExactInputSingle(_amountIn, _tokenOut, _tokenIn); // inversion in et out pour faire machine arrire\n            /*for (uint i = 0; i < tokenList.length; i++) {\n                tokenList[i].State = 3;     // recherche le token correspondant dans le tableau et le passe a l'tat backSwaped\n            }*//*\n        }\n    }*/\n\n    //------------------------------------------------------------------ TORNADO CASH\n    //------------------------------------------------------------------ CHAIN LINK\n    \n    function getLatestPrice() public view returns (int) {\n        (,int price,,,) = priceFeed.latestRoundData();\n        return price;\n    }\n\n    //------------------------------------------------------------------ WORKFLOW\n    //visibilit internal plutt que private. Cela permettra aux contrats drivs ou aux contrats de Gelato Network de pouvoir interagir avec ces fonctions.\n\n    function changeStep(Steps _from, Steps _to) private{\n        require(step == _from, \"changeStep Invalid\");\n        step = _to;\n        emit StepChanged(_from, _to);\n    }\n    function RESET() public { step = Steps.TokenSelection; }\n\n    function getCurrentStep() public view returns (Steps) { return step; }\n\n    function Selection(address _selectedAddress) public {\n        changeStep( Steps.TokenSelection, Steps.Settings );\n        addToken(_selectedAddress);\n    }\n\n    function Settings(address _OuputAddress) public {\n        changeStep( Steps.Settings, Steps.Swap );\n        setOuputAddress(_OuputAddress);\n    }\n\n    function Swap(uint256 amountIn, address _token) public {\n        changeStep( Steps.Swap, Steps.DepositMixer );\n        swapTokensForETH( amountIn, _token);\n        DepositMixer();\n    }\n    \n    function DepositMixer() public {\n        changeStep( Steps.DepositMixer, Steps.WithdrawMixer );\n        depositStartTime = block.timestamp;\n        WithdrawMixer();\n    }\n        \n    // je crois que cette tape est inutile car le star() est dasn la step avant et le require est dans la step d'aprs\n    /*function Waiting() public {\n        require( step == Steps.DepositMixer, \"Wrong step\" );\n        step = Steps.Waiting;\n        emit StepChange( Steps.DepositMixer, Steps.Waiting );\n        //stepWithdrawMixer();\n    }*/\n\n    function WithdrawMixer() public {  //en internal pour l'implementation de Gelato\n        require(block.timestamp >= depositStartTime + mixingDuration, \"You must wait 24h at least\");\n        changeStep( Steps.WithdrawMixer, Steps.SwapBack );\n        SwapBack(); \n    }\n    \n    //function FeesServices() public { SwapBack(); }\n    \n    function SwapBack() private {\n        changeStep( Steps.SwapBack, Steps.Done );\n        //swapOrSwapBack(true, 10000000000000000000, WETH9, DAI);\n        Done();\n    }\n    \n    function Done() private { }\n\n       receive() external payable {\n        emit Received(msg.sender, msg.value);\n    }\n    \n\n}",
  "sourcePath": "/Users/nicolas/Documents/VSC/WormHoleCash/truffle/contracts/WormHoleCash.sol",
  "compiler": {
    "name": "solc",
    "version": "0.8.18+commit.87f61d96.Emscripten.clang"
  },
  "schemaVersion": "3.4.11",
  "updatedAt": "2023-04-06T14:30:06.262Z",
  "networkType": "ethereum",
  "devdoc": {
    "kind": "dev",
    "methods": {},
    "version": 1
  },
  "userdoc": {
    "kind": "user",
    "methods": {},
    "version": 1
  }
}