{
  "contractName": "WormHoleCash",
  "abi": [
    {
      "inputs": [
        {
          "internalType": "address",
          "name": "_swapRouterV3",
          "type": "address"
        },
        {
          "internalType": "address",
          "name": "_weth9",
          "type": "address"
        },
        {
          "internalType": "address",
          "name": "_dai",
          "type": "address"
        },
        {
          "internalType": "address",
          "name": "_link",
          "type": "address"
        },
        {
          "internalType": "address",
          "name": "_priceFeed",
          "type": "address"
        }
      ],
      "stateMutability": "nonpayable",
      "type": "constructor"
    },
    {
      "anonymous": false,
      "inputs": [
        {
          "indexed": true,
          "internalType": "address",
          "name": "user",
          "type": "address"
        },
        {
          "indexed": false,
          "internalType": "uint256",
          "name": "amount",
          "type": "uint256"
        },
        {
          "indexed": false,
          "internalType": "address",
          "name": "_token",
          "type": "address"
        }
      ],
      "name": "Deposited",
      "type": "event"
    },
    {
      "anonymous": false,
      "inputs": [
        {
          "indexed": true,
          "internalType": "address",
          "name": "user",
          "type": "address"
        },
        {
          "indexed": false,
          "internalType": "address",
          "name": "outputAddress",
          "type": "address"
        }
      ],
      "name": "OutputAddressSet",
      "type": "event"
    },
    {
      "anonymous": false,
      "inputs": [
        {
          "indexed": false,
          "internalType": "address",
          "name": "",
          "type": "address"
        },
        {
          "indexed": false,
          "internalType": "uint256",
          "name": "",
          "type": "uint256"
        }
      ],
      "name": "Received",
      "type": "event"
    },
    {
      "anonymous": false,
      "inputs": [
        {
          "indexed": true,
          "internalType": "address",
          "name": "user",
          "type": "address"
        },
        {
          "indexed": false,
          "internalType": "enum WormHoleCash.Steps",
          "name": "previousStatus",
          "type": "uint8"
        },
        {
          "indexed": false,
          "internalType": "enum WormHoleCash.Steps",
          "name": "newStatus",
          "type": "uint8"
        }
      ],
      "name": "StepChanged",
      "type": "event"
    },
    {
      "anonymous": false,
      "inputs": [
        {
          "indexed": true,
          "internalType": "address",
          "name": "user",
          "type": "address"
        },
        {
          "indexed": false,
          "internalType": "uint256",
          "name": "amountIn",
          "type": "uint256"
        },
        {
          "indexed": false,
          "internalType": "address",
          "name": "_token",
          "type": "address"
        }
      ],
      "name": "Swaped",
      "type": "event"
    },
    {
      "anonymous": false,
      "inputs": [
        {
          "indexed": true,
          "internalType": "address",
          "name": "user",
          "type": "address"
        },
        {
          "components": [
            {
              "internalType": "address",
              "name": "Token",
              "type": "address"
            },
            {
              "internalType": "uint8",
              "name": "State",
              "type": "uint8"
            },
            {
              "internalType": "uint256",
              "name": "ethAmount",
              "type": "uint256"
            }
          ],
          "indexed": false,
          "internalType": "struct WormHoleCash.TokenList",
          "name": "tokenSelected",
          "type": "tuple"
        }
      ],
      "name": "TokenListed",
      "type": "event"
    },
    {
      "inputs": [],
      "name": "DAI",
      "outputs": [
        {
          "internalType": "address",
          "name": "",
          "type": "address"
        }
      ],
      "stateMutability": "view",
      "type": "function",
      "constant": true
    },
    {
      "inputs": [],
      "name": "LINK",
      "outputs": [
        {
          "internalType": "address",
          "name": "",
          "type": "address"
        }
      ],
      "stateMutability": "view",
      "type": "function",
      "constant": true
    },
    {
      "inputs": [],
      "name": "OuputAddress",
      "outputs": [
        {
          "internalType": "address",
          "name": "",
          "type": "address"
        }
      ],
      "stateMutability": "view",
      "type": "function",
      "constant": true
    },
    {
      "inputs": [],
      "name": "SwapRouterV3",
      "outputs": [
        {
          "internalType": "address",
          "name": "",
          "type": "address"
        }
      ],
      "stateMutability": "view",
      "type": "function",
      "constant": true
    },
    {
      "inputs": [],
      "name": "WETH9",
      "outputs": [
        {
          "internalType": "address",
          "name": "",
          "type": "address"
        }
      ],
      "stateMutability": "view",
      "type": "function",
      "constant": true
    },
    {
      "inputs": [],
      "name": "depositStartTime",
      "outputs": [
        {
          "internalType": "uint256",
          "name": "",
          "type": "uint256"
        }
      ],
      "stateMutability": "view",
      "type": "function",
      "constant": true
    },
    {
      "inputs": [],
      "name": "mixingDuration",
      "outputs": [
        {
          "internalType": "uint256",
          "name": "",
          "type": "uint256"
        }
      ],
      "stateMutability": "view",
      "type": "function",
      "constant": true
    },
    {
      "inputs": [],
      "name": "poolFee",
      "outputs": [
        {
          "internalType": "uint16",
          "name": "",
          "type": "uint16"
        }
      ],
      "stateMutability": "view",
      "type": "function",
      "constant": true
    },
    {
      "inputs": [],
      "name": "priceFeed",
      "outputs": [
        {
          "internalType": "contract AggregatorV3Interface",
          "name": "",
          "type": "address"
        }
      ],
      "stateMutability": "view",
      "type": "function",
      "constant": true
    },
    {
      "inputs": [],
      "name": "step",
      "outputs": [
        {
          "internalType": "enum WormHoleCash.Steps",
          "name": "",
          "type": "uint8"
        }
      ],
      "stateMutability": "view",
      "type": "function",
      "constant": true
    },
    {
      "inputs": [],
      "name": "swapRouter",
      "outputs": [
        {
          "internalType": "contract ISwapRouter",
          "name": "",
          "type": "address"
        }
      ],
      "stateMutability": "view",
      "type": "function",
      "constant": true
    },
    {
      "inputs": [
        {
          "internalType": "uint256",
          "name": "",
          "type": "uint256"
        }
      ],
      "name": "tokenList",
      "outputs": [
        {
          "internalType": "address",
          "name": "Token",
          "type": "address"
        },
        {
          "internalType": "uint8",
          "name": "State",
          "type": "uint8"
        },
        {
          "internalType": "uint256",
          "name": "ethAmount",
          "type": "uint256"
        }
      ],
      "stateMutability": "view",
      "type": "function",
      "constant": true
    },
    {
      "stateMutability": "payable",
      "type": "receive",
      "payable": true
    },
    {
      "inputs": [
        {
          "internalType": "address",
          "name": "userAddress",
          "type": "address"
        }
      ],
      "name": "getUserData",
      "outputs": [
        {
          "components": [
            {
              "internalType": "address",
              "name": "Token",
              "type": "address"
            },
            {
              "internalType": "uint8",
              "name": "State",
              "type": "uint8"
            },
            {
              "internalType": "uint256",
              "name": "ethAmount",
              "type": "uint256"
            }
          ],
          "internalType": "struct WormHoleCash.TokenList[]",
          "name": "userTokenList",
          "type": "tuple[]"
        },
        {
          "internalType": "address",
          "name": "userOutputAddress",
          "type": "address"
        },
        {
          "internalType": "uint256",
          "name": "userDepositStartTime",
          "type": "uint256"
        },
        {
          "internalType": "enum WormHoleCash.Steps",
          "name": "userStep",
          "type": "uint8"
        }
      ],
      "stateMutability": "view",
      "type": "function",
      "constant": true
    },
    {
      "inputs": [
        {
          "internalType": "uint256",
          "name": "amountIn",
          "type": "uint256"
        },
        {
          "internalType": "address",
          "name": "_token",
          "type": "address"
        }
      ],
      "name": "swapTokensForETH",
      "outputs": [],
      "stateMutability": "nonpayable",
      "type": "function"
    },
    {
      "inputs": [
        {
          "internalType": "uint256",
          "name": "amountIn",
          "type": "uint256"
        },
        {
          "internalType": "address",
          "name": "_tokenIn",
          "type": "address"
        }
      ],
      "name": "swapTokenToWethToEthToWalletForDemo",
      "outputs": [],
      "stateMutability": "nonpayable",
      "type": "function"
    },
    {
      "inputs": [
        {
          "internalType": "uint256",
          "name": "amountIn",
          "type": "uint256"
        },
        {
          "internalType": "address",
          "name": "_token",
          "type": "address"
        }
      ],
      "name": "swapETHForTokens",
      "outputs": [],
      "stateMutability": "payable",
      "type": "function",
      "payable": true
    },
    {
      "inputs": [],
      "name": "getLatestPrice",
      "outputs": [
        {
          "internalType": "int256",
          "name": "",
          "type": "int256"
        }
      ],
      "stateMutability": "view",
      "type": "function",
      "constant": true
    },
    {
      "inputs": [
        {
          "internalType": "uint256",
          "name": "amount",
          "type": "uint256"
        },
        {
          "internalType": "address",
          "name": "_token",
          "type": "address"
        }
      ],
      "name": "depositConvertedTokens",
      "outputs": [],
      "stateMutability": "nonpayable",
      "type": "function"
    },
    {
      "inputs": [],
      "name": "reset",
      "outputs": [],
      "stateMutability": "nonpayable",
      "type": "function"
    },
    {
      "inputs": [],
      "name": "getCurrentStep",
      "outputs": [
        {
          "internalType": "enum WormHoleCash.Steps",
          "name": "",
          "type": "uint8"
        }
      ],
      "stateMutability": "view",
      "type": "function",
      "constant": true
    },
    {
      "inputs": [
        {
          "internalType": "address",
          "name": "_selectedAddress",
          "type": "address"
        }
      ],
      "name": "Selection",
      "outputs": [],
      "stateMutability": "nonpayable",
      "type": "function"
    },
    {
      "inputs": [
        {
          "internalType": "address",
          "name": "_outputAddress",
          "type": "address"
        }
      ],
      "name": "Settings",
      "outputs": [],
      "stateMutability": "nonpayable",
      "type": "function"
    },
    {
      "inputs": [
        {
          "internalType": "uint256",
          "name": "amountIn",
          "type": "uint256"
        },
        {
          "internalType": "address",
          "name": "_token",
          "type": "address"
        }
      ],
      "name": "Swap",
      "outputs": [],
      "stateMutability": "nonpayable",
      "type": "function"
    },
    {
      "inputs": [
        {
          "internalType": "uint256",
          "name": "amountIn",
          "type": "uint256"
        },
        {
          "internalType": "address",
          "name": "_token",
          "type": "address"
        }
      ],
      "name": "SwapDemo",
      "outputs": [],
      "stateMutability": "nonpayable",
      "type": "function"
    },
    {
      "inputs": [],
      "name": "DepositMixer",
      "outputs": [],
      "stateMutability": "nonpayable",
      "type": "function"
    },
    {
      "inputs": [],
      "name": "WithdrawMixer",
      "outputs": [],
      "stateMutability": "nonpayable",
      "type": "function"
    },
    {
      "inputs": [
        {
          "internalType": "uint256",
          "name": "amountIn",
          "type": "uint256"
        },
        {
          "internalType": "address",
          "name": "_token",
          "type": "address"
        }
      ],
      "name": "SwapBack",
      "outputs": [],
      "stateMutability": "nonpayable",
      "type": "function"
    }
  ],
  "bytecode": "0x610120604052603c6006553480156200001757600080fd5b506040516200451b3803806200451b83398181016040528101906200003d91906200043c565b6001600081905550600073ffffffffffffffffffffffffffffffffffffffff168573ffffffffffffffffffffffffffffffffffffffff1603620000b7576040517f08c379a0000000000000000000000000000000000000000000000000000000008152600401620000ae906200054b565b60405180910390fd5b600073ffffffffffffffffffffffffffffffffffffffff168473ffffffffffffffffffffffffffffffffffffffff160362000129576040517f08c379a00000000000000000000000000000000000000000000000000000000081526004016200012090620005bd565b60405180910390fd5b600073ffffffffffffffffffffffffffffffffffffffff168373ffffffffffffffffffffffffffffffffffffffff16036200019b576040517f08c379a000000000000000000000000000000000000000000000000000000000815260040162000192906200062f565b60405180910390fd5b600073ffffffffffffffffffffffffffffffffffffffff168273ffffffffffffffffffffffffffffffffffffffff16036200020d576040517f08c379a00000000000000000000000000000000000000000000000000000000081526004016200020490620006a1565b60405180910390fd5b600073ffffffffffffffffffffffffffffffffffffffff168173ffffffffffffffffffffffffffffffffffffffff16036200027f576040517f08c379a0000000000000000000000000000000000000000000000000000000008152600401620002769062000713565b60405180910390fd5b8473ffffffffffffffffffffffffffffffffffffffff1660a08173ffffffffffffffffffffffffffffffffffffffff168152505060a05173ffffffffffffffffffffffffffffffffffffffff1660808173ffffffffffffffffffffffffffffffffffffffff16815250508373ffffffffffffffffffffffffffffffffffffffff1660c08173ffffffffffffffffffffffffffffffffffffffff16815250508273ffffffffffffffffffffffffffffffffffffffff1660e08173ffffffffffffffffffffffffffffffffffffffff16815250508173ffffffffffffffffffffffffffffffffffffffff166101008173ffffffffffffffffffffffffffffffffffffffff168152505080600460006101000a81548173ffffffffffffffffffffffffffffffffffffffff021916908373ffffffffffffffffffffffffffffffffffffffff160217905550505050505062000735565b600080fd5b600073ffffffffffffffffffffffffffffffffffffffff82169050919050565b60006200040482620003d7565b9050919050565b6200041681620003f7565b81146200042257600080fd5b50565b60008151905062000436816200040b565b92915050565b600080600080600060a086880312156200045b576200045a620003d2565b5b60006200046b8882890162000425565b95505060206200047e8882890162000425565b9450506040620004918882890162000425565b9350506060620004a48882890162000425565b9250506080620004b78882890162000425565b9150509295509295909350565b600082825260208201905092915050565b7f53776170526f75746572563320616464726573732063616e6e6f74206265206e60008201527f756c6c0000000000000000000000000000000000000000000000000000000000602082015250565b600062000533602383620004c4565b91506200054082620004d5565b604082019050919050565b60006020820190508181036000830152620005668162000524565b9050919050565b7f574554483920616464726573732063616e6e6f74206265206e756c6c00000000600082015250565b6000620005a5601c83620004c4565b9150620005b2826200056d565b602082019050919050565b60006020820190508181036000830152620005d88162000596565b9050919050565b7f44414920616464726573732063616e6e6f74206265206e756c6c000000000000600082015250565b600062000617601a83620004c4565b91506200062482620005df565b602082019050919050565b600060208201905081810360008301526200064a8162000608565b9050919050565b7f4c494e4b20616464726573732063616e6e6f74206265206e756c6c0000000000600082015250565b600062000689601b83620004c4565b9150620006968262000651565b602082019050919050565b60006020820190508181036000830152620006bc816200067a565b9050919050565b7f50726963654665656420616464726573732063616e6e6f74206265206e756c6c600082015250565b6000620006fb602083620004c4565b91506200070882620006c3565b602082019050919050565b600060208201905081810360008301526200072e81620006ec565b9050919050565b60805160a05160c05160e05161010051613d3f620007dc6000396000610644015260006120e40152600081816107730152818161079b015281816108590152818161098201528181610c2a01528181610d6201528181610dfe01528181611a7501528181611af60152611bb901526000611f86015260008181610b7d01528181610cc30152818161161b01528181611b32015281816124af01526125d50152613d3f6000f3fe6080604052600436106101a05760003560e01c80638e15f473116100ec578063c88da83d1161008a578063d826f88f11610064578063d826f88f1461058f578063e0bab4c4146105a6578063e25fe175146105d1578063ffc9896b146105fc576101e0565b8063c88da83d14610524578063cba2a85a1461053b578063d1a3925a14610564576101e0565b8063a27486ea116100c6578063a27486ea1461049d578063c31c9c07146104b4578063c3325e46146104df578063c644ee6f14610508576101e0565b80638e15f4731461040857806392f23918146104335780639ead72221461045e576101e0565b806351c3aa4711610159578063741bef1a11610133578063741bef1a14610360578063757e61e01461038b5780638050f5f1146103b457806388d53836146103dd576101e0565b806351c3aa47146102e3578063587419d51461030c57806373c2ea0214610337576101e0565b8063089fe6aa146101e55780631b6b6d23146102105780631d3824ea1461023b57806323aad184146102665780634aa4a4fc1461028f5780634cc40312146102ba576101e0565b366101e0577f88a5966d370b9919b20f3e2c13ff65706f196a4e32cc2c12bf57088f8852587433346040516101d6929190612cfc565b60405180910390a1005b600080fd5b3480156101f157600080fd5b506101fa61063c565b6040516102079190612d42565b60405180910390f35b34801561021c57600080fd5b50610225610642565b6040516102329190612d5d565b60405180910390f35b34801561024757600080fd5b50610250610666565b60405161025d9190612def565b60405180910390f35b34801561027257600080fd5b5061028d60048036038101906102889190612e67565b6106ba565b005b34801561029b57600080fd5b506102a4610980565b6040516102b19190612d5d565b60405180910390f35b3480156102c657600080fd5b506102e160048036038101906102dc9190612ea7565b6109a4565b005b3480156102ef57600080fd5b5061030a60048036038101906103059190612e67565b610ade565b005b34801561031857600080fd5b50610321610ed4565b60405161032e9190612ed4565b60405180910390f35b34801561034357600080fd5b5061035e60048036038101906103599190612e67565b610eda565b005b34801561036c57600080fd5b506103756110a9565b6040516103829190612f4e565b60405180910390f35b34801561039757600080fd5b506103b260048036038101906103ad9190612e67565b6110cf565b005b3480156103c057600080fd5b506103db60048036038101906103d69190612e67565b61129e565b005b3480156103e957600080fd5b506103f261141d565b6040516103ff9190612d5d565b60405180910390f35b34801561041457600080fd5b5061041d611443565b60405161042a9190612f82565b60405180910390f35b34801561043f57600080fd5b506104486114e4565b6040516104559190612ed4565b60405180910390f35b34801561046a57600080fd5b5061048560048036038101906104809190612f9d565b6114ea565b60405161049493929190612fe6565b60405180910390f35b3480156104a957600080fd5b506104b2611551565b005b3480156104c057600080fd5b506104c9611619565b6040516104d6919061303e565b60405180910390f35b3480156104eb57600080fd5b5061050660048036038101906105019190612e67565b61163d565b005b610522600480360381019061051d9190612e67565b61199f565b005b34801561053057600080fd5b50610539611c8f565b005b34801561054757600080fd5b50610562600480360381019061055d9190612ea7565b611e4a565b005b34801561057057600080fd5b50610579611f84565b6040516105869190612d5d565b60405180910390f35b34801561059b57600080fd5b506105a4611fa8565b005b3480156105b257600080fd5b506105bb6120e2565b6040516105c89190612d5d565b60405180910390f35b3480156105dd57600080fd5b506105e6612106565b6040516105f39190612def565b60405180910390f35b34801561060857600080fd5b50610623600480360381019061061e9190612ea7565b612119565b6040516106339493929190613177565b60405180910390f35b610bb881565b7f000000000000000000000000000000000000000000000000000000000000000081565b6000600360003373ffffffffffffffffffffffffffffffffffffffff1673ffffffffffffffffffffffffffffffffffffffff16815260200190815260200160002060009054906101000a900460ff16905090565b600082116106fd576040517f08c379a00000000000000000000000000000000000000000000000000000000081526004016106f490613246565b60405180910390fd5b600073ffffffffffffffffffffffffffffffffffffffff168173ffffffffffffffffffffffffffffffffffffffff160361076c576040517f08c379a0000000000000000000000000000000000000000000000000000000008152600401610763906132b2565b60405180910390fd5b61079782827f0000000000000000000000000000000000000000000000000000000000000000612285565b60007f000000000000000000000000000000000000000000000000000000000000000073ffffffffffffffffffffffffffffffffffffffff166370a08231306040518263ffffffff1660e01b81526004016107f29190612d5d565b602060405180830381865afa15801561080f573d6000803e3d6000fd5b505050506040513d601f19601f8201168201806040525081019061083391906132e7565b905060006103e8826108459190613372565b90506000818561085591906133a3565b90507f000000000000000000000000000000000000000000000000000000000000000073ffffffffffffffffffffffffffffffffffffffff16632e1a7d4d826040518263ffffffff1660e01b81526004016108b09190612ed4565b600060405180830381600087803b1580156108ca57600080fd5b505af11580156108de573d6000803e3d6000fd5b505050503373ffffffffffffffffffffffffffffffffffffffff166108fc829081150290604051600060405180830381858888f19350505050158015610928573d6000803e3d6000fd5b503373ffffffffffffffffffffffffffffffffffffffff167f1a198c38fdbbe5c8aed6492f511de47f6443716bb632161eaa137fbf0caf676386866040516109719291906133d7565b60405180910390a25050505050565b7f000000000000000000000000000000000000000000000000000000000000000081565b600060068111156109b8576109b7612d78565b5b600360003373ffffffffffffffffffffffffffffffffffffffff1673ffffffffffffffffffffffffffffffffffffffff16815260200190815260200160002060009054906101000a900460ff166006811115610a1757610a16612d78565b5b14610a57576040517f08c379a0000000000000000000000000000000000000000000000000000000008152600401610a4e9061344c565b60405180910390fd5b600073ffffffffffffffffffffffffffffffffffffffff168173ffffffffffffffffffffffffffffffffffffffff1603610ac6576040517f08c379a0000000000000000000000000000000000000000000000000000000008152600401610abd906134de565b60405180910390fd5b610ad260006001612691565b610adb816127fe565b50565b8073ffffffffffffffffffffffffffffffffffffffff166323b872dd3330856040518463ffffffff1660e01b8152600401610b1b939291906134fe565b6020604051808303816000875af1158015610b3a573d6000803e3d6000fd5b505050506040513d601f19601f82011682018060405250810190610b5e919061356d565b508073ffffffffffffffffffffffffffffffffffffffff1663095ea7b37f0000000000000000000000000000000000000000000000000000000000000000846040518363ffffffff1660e01b8152600401610bba929190612cfc565b6020604051808303816000875af1158015610bd9573d6000803e3d6000fd5b505050506040513d601f19601f82011682018060405250810190610bfd919061356d565b5060006040518061010001604052808373ffffffffffffffffffffffffffffffffffffffff1681526020017f000000000000000000000000000000000000000000000000000000000000000073ffffffffffffffffffffffffffffffffffffffff168152602001610bb861ffff1662ffffff1681526020013073ffffffffffffffffffffffffffffffffffffffff16815260200142815260200184815260200160008152602001600073ffffffffffffffffffffffffffffffffffffffff1681525090507f000000000000000000000000000000000000000000000000000000000000000073ffffffffffffffffffffffffffffffffffffffff1663414bf389826040518263ffffffff1660e01b8152600401610d1a9190613669565b6020604051808303816000875af1158015610d39573d6000803e3d6000fd5b505050506040513d601f19601f82011682018060405250810190610d5d91906132e7565b5060007f000000000000000000000000000000000000000000000000000000000000000073ffffffffffffffffffffffffffffffffffffffff166370a08231306040518263ffffffff1660e01b8152600401610db99190612d5d565b602060405180830381865afa158015610dd6573d6000803e3d6000fd5b505050506040513d601f19601f82011682018060405250810190610dfa91906132e7565b90507f000000000000000000000000000000000000000000000000000000000000000073ffffffffffffffffffffffffffffffffffffffff16632e1a7d4d826040518263ffffffff1660e01b8152600401610e559190612ed4565b600060405180830381600087803b158015610e6f57600080fd5b505af1158015610e83573d6000803e3d6000fd5b505050503373ffffffffffffffffffffffffffffffffffffffff166108fc829081150290604051600060405180830381858888f19350505050158015610ecd573d6000803e3d6000fd5b5050505050565b60075481565b60026006811115610eee57610eed612d78565b5b600360003373ffffffffffffffffffffffffffffffffffffffff1673ffffffffffffffffffffffffffffffffffffffff16815260200190815260200160002060009054906101000a900460ff166006811115610f4d57610f4c612d78565b5b14610f8d576040517f08c379a0000000000000000000000000000000000000000000000000000000008152600401610f849061344c565b60405180910390fd5b600073ffffffffffffffffffffffffffffffffffffffff168173ffffffffffffffffffffffffffffffffffffffff1603610ffc576040517f08c379a0000000000000000000000000000000000000000000000000000000008152600401610ff3906132b2565b60405180910390fd5b6000821161103f576040517f08c379a000000000000000000000000000000000000000000000000000000000815260040161103690613246565b60405180910390fd5b61104b60026003612691565b6110558282610ade565b3373ffffffffffffffffffffffffffffffffffffffff167f1a198c38fdbbe5c8aed6492f511de47f6443716bb632161eaa137fbf0caf6763838360405161109d9291906133d7565b60405180910390a25050565b600460009054906101000a900473ffffffffffffffffffffffffffffffffffffffff1681565b600260068111156110e3576110e2612d78565b5b600360003373ffffffffffffffffffffffffffffffffffffffff1673ffffffffffffffffffffffffffffffffffffffff16815260200190815260200160002060009054906101000a900460ff16600681111561114257611141612d78565b5b14611182576040517f08c379a00000000000000000000000000000000000000000000000000000000081526004016111799061344c565b60405180910390fd5b600073ffffffffffffffffffffffffffffffffffffffff168173ffffffffffffffffffffffffffffffffffffffff16036111f1576040517f08c379a00000000000000000000000000000000000000000000000000000000081526004016111e8906132b2565b60405180910390fd5b60008211611234576040517f08c379a000000000000000000000000000000000000000000000000000000000815260040161122b90613246565b60405180910390fd5b61124060026003612691565b61124a82826106ba565b3373ffffffffffffffffffffffffffffffffffffffff167f1a198c38fdbbe5c8aed6492f511de47f6443716bb632161eaa137fbf0caf676383836040516112929291906133d7565b60405180910390a25050565b600560068111156112b2576112b1612d78565b5b600360003373ffffffffffffffffffffffffffffffffffffffff1673ffffffffffffffffffffffffffffffffffffffff16815260200190815260200160002060009054906101000a900460ff16600681111561131157611310612d78565b5b14611351576040517f08c379a00000000000000000000000000000000000000000000000000000000081526004016113489061344c565b60405180910390fd5b600073ffffffffffffffffffffffffffffffffffffffff168173ffffffffffffffffffffffffffffffffffffffff16036113c0576040517f08c379a00000000000000000000000000000000000000000000000000000000081526004016113b7906132b2565b60405180910390fd5b60008211611403576040517f08c379a00000000000000000000000000000000000000000000000000000000081526004016113fa90613246565b60405180910390fd5b61140f60056006612691565b611419828261199f565b5050565b600560009054906101000a900473ffffffffffffffffffffffffffffffffffffffff1681565b600080600460009054906101000a900473ffffffffffffffffffffffffffffffffffffffff1673ffffffffffffffffffffffffffffffffffffffff1663feaf968c6040518163ffffffff1660e01b815260040160a060405180830381865afa1580156114b3573d6000803e3d6000fd5b505050506040513d601f19601f820116820180604052508101906114d791906136f3565b5050509150508091505090565b60065481565b600881815481106114fa57600080fd5b90600052602060002090600202016000915090508060000160009054906101000a900473ffffffffffffffffffffffffffffffffffffffff16908060000160149054906101000a900460ff16908060010154905083565b6003600681111561156557611564612d78565b5b600360003373ffffffffffffffffffffffffffffffffffffffff1673ffffffffffffffffffffffffffffffffffffffff16815260200190815260200160002060009054906101000a900460ff1660068111156115c4576115c3612d78565b5b14611604576040517f08c379a00000000000000000000000000000000000000000000000000000000081526004016115fb9061344c565b60405180910390fd5b61161060036004612691565b42600781905550565b7f000000000000000000000000000000000000000000000000000000000000000081565b600160009054906101000a900460ff161561168d576040517f08c379a0000000000000000000000000000000000000000000000000000000008152600401611684906137e0565b60405180910390fd5b60018060006101000a81548160ff021916908315150217905550600082116116ea576040517f08c379a00000000000000000000000000000000000000000000000000000000081526004016116e190613872565b60405180910390fd5b600073ffffffffffffffffffffffffffffffffffffffff168173ffffffffffffffffffffffffffffffffffffffff1603611759576040517f08c379a0000000000000000000000000000000000000000000000000000000008152600401611750906132b2565b60405180910390fd5b8073ffffffffffffffffffffffffffffffffffffffff166323b872dd3330856040518463ffffffff1660e01b8152600401611796939291906134fe565b6020604051808303816000875af11580156117b5573d6000803e3d6000fd5b505050506040513d601f19601f820116820180604052508101906117d9919061356d565b506000600260003373ffffffffffffffffffffffffffffffffffffffff1673ffffffffffffffffffffffffffffffffffffffff168152602001908152602001600020905060005b816000018054905081101561192e578273ffffffffffffffffffffffffffffffffffffffff1682600001828154811061185c5761185b613892565b5b906000526020600020906002020160000160009054906101000a900473ffffffffffffffffffffffffffffffffffffffff1673ffffffffffffffffffffffffffffffffffffffff160361191b57838260000182815481106118c0576118bf613892565b5b90600052602060002090600202016001018190555060028260000182815481106118ed576118ec613892565b5b906000526020600020906002020160000160146101000a81548160ff021916908360ff16021790555061192e565b8080611926906138c1565b915050611820565b503373ffffffffffffffffffffffffffffffffffffffff167fb4e1304f97b5093610f51b33ddab6622388422e2dac138b0d32f93dcfbd39edf84846040516119779291906133d7565b60405180910390a2506000600160006101000a81548160ff0219169083151502179055505050565b600082116119e2576040517f08c379a00000000000000000000000000000000000000000000000000000000081526004016119d990613246565b60405180910390fd5b600073ffffffffffffffffffffffffffffffffffffffff168173ffffffffffffffffffffffffffffffffffffffff1603611a51576040517f08c379a0000000000000000000000000000000000000000000000000000000008152600401611a48906132b2565b60405180910390fd5b60006103e883611a619190613372565b905060008184611a7191906133a3565b90507f000000000000000000000000000000000000000000000000000000000000000073ffffffffffffffffffffffffffffffffffffffff1663d0e30db0826040518263ffffffff1660e01b81526004016000604051808303818588803b158015611adb57600080fd5b505af1158015611aef573d6000803e3d6000fd5b50505050507f000000000000000000000000000000000000000000000000000000000000000073ffffffffffffffffffffffffffffffffffffffff1663095ea7b37f0000000000000000000000000000000000000000000000000000000000000000866040518363ffffffff1660e01b8152600401611b6f929190612cfc565b6020604051808303816000875af1158015611b8e573d6000803e3d6000fd5b505050506040513d601f19601f82011682018060405250810190611bb2919061356d565b50611bde817f000000000000000000000000000000000000000000000000000000000000000085612285565b80341115611c39573373ffffffffffffffffffffffffffffffffffffffff166108fc8234611c0c91906133a3565b9081150290604051600060405180830381858888f19350505050158015611c37573d6000803e3d6000fd5b505b3373ffffffffffffffffffffffffffffffffffffffff167f1a198c38fdbbe5c8aed6492f511de47f6443716bb632161eaa137fbf0caf67638585604051611c819291906133d7565b60405180910390a250505050565b60046006811115611ca357611ca2612d78565b5b600360003373ffffffffffffffffffffffffffffffffffffffff1673ffffffffffffffffffffffffffffffffffffffff16815260200190815260200160002060009054906101000a900460ff166006811115611d0257611d01612d78565b5b14611d42576040517f08c379a0000000000000000000000000000000000000000000000000000000008152600401611d399061344c565b60405180910390fd5b600654600260003373ffffffffffffffffffffffffffffffffffffffff1673ffffffffffffffffffffffffffffffffffffffff16815260200190815260200160002060020154611d929190613909565b421015611dd4576040517f08c379a0000000000000000000000000000000000000000000000000000000008152600401611dcb906139af565b60405180910390fd5b6000600260003373ffffffffffffffffffffffffffffffffffffffff1673ffffffffffffffffffffffffffffffffffffffff16815260200190815260200160002060010160009054906101000a900473ffffffffffffffffffffffffffffffffffffffff169050611e4760046005612691565b50565b60016006811115611e5e57611e5d612d78565b5b600360003373ffffffffffffffffffffffffffffffffffffffff1673ffffffffffffffffffffffffffffffffffffffff16815260200190815260200160002060009054906101000a900460ff166006811115611ebd57611ebc612d78565b5b14611efd576040517f08c379a0000000000000000000000000000000000000000000000000000000008152600401611ef49061344c565b60405180910390fd5b600073ffffffffffffffffffffffffffffffffffffffff168173ffffffffffffffffffffffffffffffffffffffff1603611f6c576040517f08c379a0000000000000000000000000000000000000000000000000000000008152600401611f6390613a41565b60405180910390fd5b611f7860016002612691565b611f8181612a5e565b50565b7f000000000000000000000000000000000000000000000000000000000000000081565b6000600360003373ffffffffffffffffffffffffffffffffffffffff1673ffffffffffffffffffffffffffffffffffffffff16815260200190815260200160002060006101000a81548160ff0219169083600681111561200b5761200a612d78565b5b0217905550600260003373ffffffffffffffffffffffffffffffffffffffff1673ffffffffffffffffffffffffffffffffffffffff168152602001908152602001600020600001600061205e9190612c24565b6000600260003373ffffffffffffffffffffffffffffffffffffffff1673ffffffffffffffffffffffffffffffffffffffff16815260200190815260200160002060010160006101000a81548173ffffffffffffffffffffffffffffffffffffffff021916908373ffffffffffffffffffffffffffffffffffffffff160217905550565b7f000000000000000000000000000000000000000000000000000000000000000081565b600960009054906101000a900460ff1681565b6060600080600080600260008773ffffffffffffffffffffffffffffffffffffffff1673ffffffffffffffffffffffffffffffffffffffff168152602001908152602001600020905080600001805480602002602001604051908101604052809291908181526020016000905b8282101561223557838290600052602060002090600202016040518060600160405290816000820160009054906101000a900473ffffffffffffffffffffffffffffffffffffffff1673ffffffffffffffffffffffffffffffffffffffff1673ffffffffffffffffffffffffffffffffffffffff1681526020016000820160149054906101000a900460ff1660ff1660ff16815260200160018201548152505081526020019060010190612186565b5050505094508060010160009054906101000a900473ffffffffffffffffffffffffffffffffffffffff169350806002015492508060030160009054906101000a900460ff169150509193509193565b600160009054906101000a900460ff16156122d5576040517f08c379a00000000000000000000000000000000000000000000000000000000081526004016122cc906137e0565b60405180910390fd5b60018060006101000a81548160ff02191690831515021790555060008311612332576040517f08c379a000000000000000000000000000000000000000000000000000000000815260040161232990613246565b60405180910390fd5b600073ffffffffffffffffffffffffffffffffffffffff168273ffffffffffffffffffffffffffffffffffffffff16036123a1576040517f08c379a000000000000000000000000000000000000000000000000000000000815260040161239890613ad3565b60405180910390fd5b600073ffffffffffffffffffffffffffffffffffffffff168173ffffffffffffffffffffffffffffffffffffffff1603612410576040517f08c379a000000000000000000000000000000000000000000000000000000000815260040161240790613b65565b60405180910390fd5b8173ffffffffffffffffffffffffffffffffffffffff166323b872dd3330866040518463ffffffff1660e01b815260040161244d939291906134fe565b6020604051808303816000875af115801561246c573d6000803e3d6000fd5b505050506040513d601f19601f82011682018060405250810190612490919061356d565b508173ffffffffffffffffffffffffffffffffffffffff1663095ea7b37f0000000000000000000000000000000000000000000000000000000000000000856040518363ffffffff1660e01b81526004016124ec929190612cfc565b6020604051808303816000875af115801561250b573d6000803e3d6000fd5b505050506040513d601f19601f8201168201806040525081019061252f919061356d565b5060006040518061010001604052808473ffffffffffffffffffffffffffffffffffffffff1681526020018373ffffffffffffffffffffffffffffffffffffffff168152602001610bb861ffff1662ffffff1681526020013073ffffffffffffffffffffffffffffffffffffffff16815260200142815260200185815260200160008152602001600073ffffffffffffffffffffffffffffffffffffffff1681525090507f000000000000000000000000000000000000000000000000000000000000000073ffffffffffffffffffffffffffffffffffffffff1663414bf389826040518263ffffffff1660e01b815260040161262c9190613669565b6020604051808303816000875af115801561264b573d6000803e3d6000fd5b505050506040513d601f19601f8201168201806040525081019061266f91906132e7565b50506000600160006101000a81548160ff021916908315150217905550505050565b8160068111156126a4576126a3612d78565b5b600360003373ffffffffffffffffffffffffffffffffffffffff1673ffffffffffffffffffffffffffffffffffffffff16815260200190815260200160002060009054906101000a900460ff16600681111561270357612702612d78565b5b14612743576040517f08c379a000000000000000000000000000000000000000000000000000000000815260040161273a90613bd1565b60405180910390fd5b80600360003373ffffffffffffffffffffffffffffffffffffffff1673ffffffffffffffffffffffffffffffffffffffff16815260200190815260200160002060006101000a81548160ff021916908360068111156127a5576127a4612d78565b5b02179055503373ffffffffffffffffffffffffffffffffffffffff167f1760e9f51927ce74cbf718ce51630e2cf6dac75a7a31ebebff9b91b3c41a096683836040516127f2929190613bf1565b60405180910390a25050565b600160009054906101000a900460ff161561284e576040517f08c379a0000000000000000000000000000000000000000000000000000000008152600401612845906137e0565b60405180910390fd5b60018060006101000a81548160ff021916908315150217905550600073ffffffffffffffffffffffffffffffffffffffff168173ffffffffffffffffffffffffffffffffffffffff16036128d7576040517f08c379a00000000000000000000000000000000000000000000000000000000081526004016128ce906132b2565b60405180910390fd5b600060405180606001604052808373ffffffffffffffffffffffffffffffffffffffff168152602001600160ff16815260200160008152509050600260003373ffffffffffffffffffffffffffffffffffffffff1673ffffffffffffffffffffffffffffffffffffffff16815260200190815260200160002060000181908060018154018082558091505060019003906000526020600020906002020160009091909190915060008201518160000160006101000a81548173ffffffffffffffffffffffffffffffffffffffff021916908373ffffffffffffffffffffffffffffffffffffffff16021790555060208201518160000160146101000a81548160ff021916908360ff1602179055506040820151816001015550503373ffffffffffffffffffffffffffffffffffffffff167fe3f48b807439fa69e9c3d506c5fc8d5d7c2bd478ab2b65b33452d4992576a69782604051612a379190613c5c565b60405180910390a2506000600160006101000a81548160ff02191690831515021790555050565b600160009054906101000a900460ff1615612aae576040517f08c379a0000000000000000000000000000000000000000000000000000000008152600401612aa5906137e0565b60405180910390fd5b60018060006101000a81548160ff021916908315150217905550600073ffffffffffffffffffffffffffffffffffffffff168173ffffffffffffffffffffffffffffffffffffffff1603612b37576040517f08c379a0000000000000000000000000000000000000000000000000000000008152600401612b2e90613ce9565b60405180910390fd5b80600260003373ffffffffffffffffffffffffffffffffffffffff1673ffffffffffffffffffffffffffffffffffffffff16815260200190815260200160002060010160006101000a81548173ffffffffffffffffffffffffffffffffffffffff021916908373ffffffffffffffffffffffffffffffffffffffff1602179055503373ffffffffffffffffffffffffffffffffffffffff167fc395278804de156198ca2eb5fb947e17d0ebb6fc2cefd765748e6b0230c2621682604051612bfe9190612d5d565b60405180910390a26000600160006101000a81548160ff02191690831515021790555050565b5080546000825560020290600052602060002090810190612c459190612c48565b50565b5b80821115612c9e57600080820160006101000a81549073ffffffffffffffffffffffffffffffffffffffff02191690556000820160146101000a81549060ff0219169055600182016000905550600201612c49565b5090565b600073ffffffffffffffffffffffffffffffffffffffff82169050919050565b6000612ccd82612ca2565b9050919050565b612cdd81612cc2565b82525050565b6000819050919050565b612cf681612ce3565b82525050565b6000604082019050612d116000830185612cd4565b612d1e6020830184612ced565b9392505050565b600061ffff82169050919050565b612d3c81612d25565b82525050565b6000602082019050612d576000830184612d33565b92915050565b6000602082019050612d726000830184612cd4565b92915050565b7f4e487b7100000000000000000000000000000000000000000000000000000000600052602160045260246000fd5b60078110612db857612db7612d78565b5b50565b6000819050612dc982612da7565b919050565b6000612dd982612dbb565b9050919050565b612de981612dce565b82525050565b6000602082019050612e046000830184612de0565b92915050565b600080fd5b612e1881612ce3565b8114612e2357600080fd5b50565b600081359050612e3581612e0f565b92915050565b612e4481612cc2565b8114612e4f57600080fd5b50565b600081359050612e6181612e3b565b92915050565b60008060408385031215612e7e57612e7d612e0a565b5b6000612e8c85828601612e26565b9250506020612e9d85828601612e52565b9150509250929050565b600060208284031215612ebd57612ebc612e0a565b5b6000612ecb84828501612e52565b91505092915050565b6000602082019050612ee96000830184612ced565b92915050565b6000819050919050565b6000612f14612f0f612f0a84612ca2565b612eef565b612ca2565b9050919050565b6000612f2682612ef9565b9050919050565b6000612f3882612f1b565b9050919050565b612f4881612f2d565b82525050565b6000602082019050612f636000830184612f3f565b92915050565b6000819050919050565b612f7c81612f69565b82525050565b6000602082019050612f976000830184612f73565b92915050565b600060208284031215612fb357612fb2612e0a565b5b6000612fc184828501612e26565b91505092915050565b600060ff82169050919050565b612fe081612fca565b82525050565b6000606082019050612ffb6000830186612cd4565b6130086020830185612fd7565b6130156040830184612ced565b949350505050565b600061302882612f1b565b9050919050565b6130388161301d565b82525050565b6000602082019050613053600083018461302f565b92915050565b600081519050919050565b600082825260208201905092915050565b6000819050602082019050919050565b61308e81612cc2565b82525050565b61309d81612fca565b82525050565b6130ac81612ce3565b82525050565b6060820160008201516130c86000850182613085565b5060208201516130db6020850182613094565b5060408201516130ee60408501826130a3565b50505050565b600061310083836130b2565b60608301905092915050565b6000602082019050919050565b600061312482613059565b61312e8185613064565b935061313983613075565b8060005b8381101561316a57815161315188826130f4565b975061315c8361310c565b92505060018101905061313d565b5085935050505092915050565b600060808201905081810360008301526131918187613119565b90506131a06020830186612cd4565b6131ad6040830185612ced565b6131ba6060830184612de0565b95945050505050565b600082825260208201905092915050565b7f616d6f756e74496e20706172616d206d7573742062652067726561746572207460008201527f68616e2030000000000000000000000000000000000000000000000000000000602082015250565b60006132306025836131c3565b915061323b826131d4565b604082019050919050565b6000602082019050818103600083015261325f81613223565b9050919050565b7f54686520746f6b656e20616464726573732063616e6e6f74206265206e756c6c600082015250565b600061329c6020836131c3565b91506132a782613266565b602082019050919050565b600060208201905081810360008301526132cb8161328f565b9050919050565b6000815190506132e181612e0f565b92915050565b6000602082840312156132fd576132fc612e0a565b5b600061330b848285016132d2565b91505092915050565b7f4e487b7100000000000000000000000000000000000000000000000000000000600052601260045260246000fd5b7f4e487b7100000000000000000000000000000000000000000000000000000000600052601160045260246000fd5b600061337d82612ce3565b915061338883612ce3565b92508261339857613397613314565b5b828204905092915050565b60006133ae82612ce3565b91506133b983612ce3565b92508282039050818111156133d1576133d0613343565b5b92915050565b60006040820190506133ec6000830185612ced565b6133f96020830184612cd4565b9392505050565b7f57726f6e67207374657000000000000000000000000000000000000000000000600082015250565b6000613436600a836131c3565b915061344182613400565b602082019050919050565b6000602082019050818103600083015261346581613429565b9050919050565b7f5468652073656c656374656420616464726573732063616e6e6f74206265206e60008201527f756c6c0000000000000000000000000000000000000000000000000000000000602082015250565b60006134c86023836131c3565b91506134d38261346c565b604082019050919050565b600060208201905081810360008301526134f7816134bb565b9050919050565b60006060820190506135136000830186612cd4565b6135206020830185612cd4565b61352d6040830184612ced565b949350505050565b60008115159050919050565b61354a81613535565b811461355557600080fd5b50565b60008151905061356781613541565b92915050565b60006020828403121561358357613582612e0a565b5b600061359184828501613558565b91505092915050565b600062ffffff82169050919050565b6135b28161359a565b82525050565b6135c181612ca2565b82525050565b610100820160008201516135de6000850182613085565b5060208201516135f16020850182613085565b50604082015161360460408501826135a9565b5060608201516136176060850182613085565b50608082015161362a60808501826130a3565b5060a082015161363d60a08501826130a3565b5060c082015161365060c08501826130a3565b5060e082015161366360e08501826135b8565b50505050565b60006101008201905061367f60008301846135c7565b92915050565b600069ffffffffffffffffffff82169050919050565b6136a481613685565b81146136af57600080fd5b50565b6000815190506136c18161369b565b92915050565b6136d081612f69565b81146136db57600080fd5b50565b6000815190506136ed816136c7565b92915050565b600080600080600060a0868803121561370f5761370e612e0a565b5b600061371d888289016136b2565b955050602061372e888289016136de565b945050604061373f888289016132d2565b9350506060613750888289016132d2565b9250506080613761888289016136b2565b9150509295509295909350565b7f5468652066756e6374696f6e20697320616c726561647920696e2070726f677260008201527f6573730000000000000000000000000000000000000000000000000000000000602082015250565b60006137ca6023836131c3565b91506137d58261376e565b604082019050919050565b600060208201905081810360008301526137f9816137bd565b9050919050565b7f616d6f756e7420706172616d206d75737420626520677265617465722074686160008201527f6e20300000000000000000000000000000000000000000000000000000000000602082015250565b600061385c6023836131c3565b915061386782613800565b604082019050919050565b6000602082019050818103600083015261388b8161384f565b9050919050565b7f4e487b7100000000000000000000000000000000000000000000000000000000600052603260045260246000fd5b60006138cc82612ce3565b91507fffffffffffffffffffffffffffffffffffffffffffffffffffffffffffffffff82036138fe576138fd613343565b5b600182019050919050565b600061391482612ce3565b915061391f83612ce3565b925082820190508082111561393757613936613343565b5b92915050565b7f596f75206d757374207761697420746865206d696e696d756d206d6978696e6760008201527f206475726174696f6e2073657474656400000000000000000000000000000000602082015250565b60006139996030836131c3565b91506139a48261393d565b604082019050919050565b600060208201905081810360008301526139c88161398c565b9050919050565b7f546865206f757470757420616464726573732063616e6e6f74206265206e756c60008201527f6c00000000000000000000000000000000000000000000000000000000000000602082015250565b6000613a2b6021836131c3565b9150613a36826139cf565b604082019050919050565b60006020820190508181036000830152613a5a81613a1e565b9050919050565b7f54686520746f6b656e496e20616464726573732063616e6e6f74206265206e7560008201527f6c6c000000000000000000000000000000000000000000000000000000000000602082015250565b6000613abd6022836131c3565b9150613ac882613a61565b604082019050919050565b60006020820190508181036000830152613aec81613ab0565b9050919050565b7f54686520746f6b656e4f757420616464726573732063616e6e6f74206265206e60008201527f756c6c0000000000000000000000000000000000000000000000000000000000602082015250565b6000613b4f6023836131c3565b9150613b5a82613af3565b604082019050919050565b60006020820190508181036000830152613b7e81613b42565b9050919050565b7f6368616e6765537465702829206e6f7420706f737369626c6500000000000000600082015250565b6000613bbb6019836131c3565b9150613bc682613b85565b602082019050919050565b60006020820190508181036000830152613bea81613bae565b9050919050565b6000604082019050613c066000830185612de0565b613c136020830184612de0565b9392505050565b606082016000820151613c306000850182613085565b506020820151613c436020850182613094565b506040820151613c5660408501826130a3565b50505050565b6000606082019050613c716000830184613c1a565b92915050565b7f54686520726563697069656e7420616464726573732063616e6e6f742062652060008201527f6e756c6c00000000000000000000000000000000000000000000000000000000602082015250565b6000613cd36024836131c3565b9150613cde82613c77565b604082019050919050565b60006020820190508181036000830152613d0281613cc6565b905091905056fea26469706673582212209d9dcd0c7260bd5efc873a6ec4fca225cd271325d73461e63a8825387ffe724d64736f6c63430008120033",
  "immutableReferences": {
    "870": [
      {
        "length": 32,
        "start": 2941
      },
      {
        "length": 32,
        "start": 3267
      },
      {
        "length": 32,
        "start": 5659
      },
      {
        "length": 32,
        "start": 6962
      },
      {
        "length": 32,
        "start": 9391
      },
      {
        "length": 32,
        "start": 9685
      }
    ],
    "904": [
      {
        "length": 32,
        "start": 8070
      }
    ],
    "906": [
      {
        "length": 32,
        "start": 1907
      },
      {
        "length": 32,
        "start": 1947
      },
      {
        "length": 32,
        "start": 2137
      },
      {
        "length": 32,
        "start": 2434
      },
      {
        "length": 32,
        "start": 3114
      },
      {
        "length": 32,
        "start": 3426
      },
      {
        "length": 32,
        "start": 3582
      },
      {
        "length": 32,
        "start": 6773
      },
      {
        "length": 32,
        "start": 6902
      },
      {
        "length": 32,
        "start": 7097
      }
    ],
    "908": [
      {
        "length": 32,
        "start": 8420
      }
    ],
    "910": [
      {
        "length": 32,
        "start": 1604
      }
    ]
  },
  "source": "/// @notice SPDX-License-Identifier: MIT\n/// @title WORM HOLE CASH\n/// @author Peytavin Nicolas \n/// @notice Dapp for the final project of the ALYRA Blockchain Developer training\n/// @dev Use of OpenZe ppelin, CHainLink libraries\n/// @dev Interfaces Uniswap V3 SwapRouter, CHainLink AggregatorV3Interface, ERC20, WETH\n/// @custom:experimental This smart contract is experimental.\n\n\nimport \"@openzeppelin/contracts/security/ReentrancyGuard.sol\";\nimport \"@chainlink/contracts/src/v0.8/interfaces/AggregatorV3Interface.sol\";\nimport \"@openzeppelin/contracts/token/ERC20/utils/SafeERC20.sol\";\n\npragma solidity 0.8.18;\n    //------------------------------------------------------------------ INTERFACES\n\ninterface IWETH {\n    function deposit() external payable;\n    function withdraw(uint wad) external;\n}\n\ninterface ISwapRouter {\n    struct ExactInputSingleParams {\n        address tokenIn;\n        address tokenOut;\n        uint24  fee;\n        address recipient;\n        uint256 deadline;\n        uint256 amountIn;\n        uint256 amountOutMinimum;\n        uint160 sqrtPriceLimitX96;\n    }\n    /// @notice Swaps `amountIn` of one token for as much as possible of another token\n    /// @param params The parameters necessary for the swap, encoded as `ExactInputSingleParams` in calldata\n    /// @return amountOut The amount of the received token\n    function exactInputSingle(ExactInputSingleParams calldata params) external payable returns (uint256 amountOut);\n}\n\ncontract WormHoleCash is ReentrancyGuard {\n    ISwapRouter public immutable swapRouter;\n    /// @dev bollean against the reentrancy attack\n    bool private isInProgress;\n\n    //------------------------------------------------------------------ STRUCTURES\n    struct UserData {\n        TokenList[] tokenList;\n        address outputAddress;\n        uint depositStartTime;\n        Steps step;\n    }\n\n    struct TokenList {\n        address Token;\n        uint8 State; //1=selected 2=Swaped 3=BackSwaped 4=Error je pourais amliorer a en array ou struct ou enum\n        uint256 ethAmount; //Quantit d'ETH obtenue\n    }\n    \n    \n    mapping(address => UserData) private usersData;\n    mapping(address => Steps) private userSteps;\n\n    address public immutable SwapRouterV3;\n    address public immutable WETH9;\n    address public immutable DAI;\n    address public immutable LINK;\n    AggregatorV3Interface public priceFeed;\n\n    address public OuputAddress;\n    uint public mixingDuration = 1 minutes; // Only for Demo\n    uint256 public depositStartTime;\n    uint16 public constant poolFee = 3000; // frais de pool standard Uniswap  0.3%\n    TokenList[] public tokenList;\n    Steps public step;\n\n    enum Steps {\n        TokenSelection, // slection des token que l'on souhaite utiliser   \n        Settings,       // Address Output, choix ETH ou StableCOins, Duration, Antropie, nombre de adresse de sortie\n        Swap,           // Swap sur Uni\n        DepositMixer,   // Tornado Cash dpot\n        WithdrawMixer,  // Tornado Cash sortie\n        SwapBack,       // Swap vers Tokens\n        Done            // Enjoy\n    }\n\n    //------------------------------------------------------------------ EVENTS\n    /// @dev Event emitted when a step is changed for the user\n    event StepChanged( address indexed user, Steps previousStatus, Steps newStatus );\n\n    /// @dev Event emitted when a token is listed for the user\n    event TokenListed( address indexed user,TokenList tokenSelected);\n\n    /// @dev Event emitted when the output address is set for the user\n    event OutputAddressSet( address indexed user, address outputAddress );\n\n    /// @dev Event emitted when a token is swapped\n    event Swaped( address indexed user,uint256 amountIn, address _token);\n\n    /// @dev Event emitted when a token is deposited\n    event Deposited(address indexed user, uint256 amount, address _token);\n\n    /// @dev Event Emitted whe this Smart Contract reveive ETH\n    event Received(address, uint);\n \n    constructor(address _swapRouterV3, address _weth9, address _dai, address _link, address _priceFeed) {\n    require(_swapRouterV3 != address(0), \"SwapRouterV3 address cannot be null\");\n    require(_weth9 != address(0), \"WETH9 address cannot be null\");\n    require(_dai != address(0), \"DAI address cannot be null\");\n    require(_link != address(0), \"LINK address cannot be null\");\n    require(_priceFeed != address(0), \"PriceFeed address cannot be null\");\n\n\n    SwapRouterV3 = _swapRouterV3;\n    swapRouter = ISwapRouter(SwapRouterV3);\n    WETH9 = _weth9;\n    DAI = _dai;\n    LINK = _link;\n    priceFeed = AggregatorV3Interface(_priceFeed);\n}\n\n    //------------------------------------------------------------------ MODIFIERS\n    /// @dev Modifier to check to protect against reentrancy attacks\n    modifier WHC_ReentranceGuard {\n        require(!isInProgress, \"The function is already in progress\");\n        isInProgress = true;\n        _;\n        isInProgress = false;\n    }\n\n    //------------------------------------------------------------------ USER DATA\n    /// @notice Returns an array of informations for the given user\n    /// @return userTokenList The array of token information\n    /// @return userOutputAddress The address to send the tokens after mixing\n    /// @return userDepositStartTime The time at which the user started the deposit\n    /// @return userStep The current step of the user\n    function getUserData(address userAddress) public view returns (TokenList[] memory userTokenList, address userOutputAddress, uint userDepositStartTime, Steps userStep) {\n        UserData storage userData = usersData[userAddress];\n        userTokenList = userData.tokenList;\n        userOutputAddress = userData.outputAddress;\n        userDepositStartTime = userData.depositStartTime;\n        userStep = userData.step;\n    }\n\n    //------------------------------------------------------------------ SETTING\n    /// @notice Sets the output address for the given user\n    /// @param _outputAddress The address to send the tokens after mixing\n    function setOutputAddress(address _outputAddress) private WHC_ReentranceGuard{\n        require(_outputAddress != address(0), \"The recipient address cannot be null\");\n        usersData[msg.sender].outputAddress = _outputAddress;\n        emit OutputAddressSet(msg.sender, _outputAddress);\n    }\n\n    /// @notice Adds a token for the given user\n    /// @param _token The token address to add\n    function addToken(address _token) private WHC_ReentranceGuard {\n        require(_token != address(0), \"The token address cannot be null\");\n        TokenList memory newToken = TokenList(_token, 1,0);\n        usersData[msg.sender].tokenList.push(newToken);\n        emit TokenListed(msg.sender, newToken);\n    }\n\n    //------------------------------------------------------------------ UNISWAP\n    /// @notice Performs a swap between 2 tokens for the exact input single for the given user\n    /// @param _tokenIn The token to swap from\n    /// @param _tokenOut The token to swap to\n    /// @param amountIn The amount of the input token to swap\n    function swapExactInputSingle(uint256 amountIn, address _tokenIn, address _tokenOut) private WHC_ReentranceGuard{\n        require(amountIn > 0, \"amountIn param must be greater than 0\");\n        require(_tokenIn != address(0), \"The tokenIn address cannot be null\");\n        require(_tokenOut != address(0), \"The tokenOut address cannot be null\");\n        IERC20(_tokenIn).transferFrom(msg.sender, address(this), amountIn);// Transfert des tokens en question au smart contract ! Il faut penser  approve ce transfert avant lutilisation de cette fonction \n        IERC20(_tokenIn).approve(address(swapRouter), amountIn);  // autoriser uniswap  utiliser nos tokens\n        \n        ISwapRouter.ExactInputSingleParams memory params = //Creation des paramtres pour l'appel du swap\n            ISwapRouter.ExactInputSingleParams({\n                tokenIn: _tokenIn,\n                tokenOut: _tokenOut,\n                fee: poolFee,\n                recipient: address(this),\n                deadline: block.timestamp,\n                amountIn: amountIn,\n                amountOutMinimum: 0, // amountOutMinimum: _amountOutMinimum; getLatestPrice() de Chainlink pour eviter les frontruns\n                sqrtPriceLimitX96: 0\n            });\n        swapRouter.exactInputSingle(params);// Swap\n    }\n\n    // version sans le stockage des WETH Obtenu et Unwrap interne\n    /// @notice Swaps tokens for ETH for the given user\n    /// @param amountIn The amount of tokens to swap\n    /// @param _token The token to swap\n    function swapTokensForETH(uint256 amountIn, address _token) public { \n        require(amountIn > 0, \"amountIn param must be greater than 0\");\n        require(_token != address(0), \"The token address cannot be null\");\n        swapExactInputSingle(amountIn, _token, WETH9);\n        uint256 wethBalance = IERC20(WETH9).balanceOf(address(this)); \n\n        uint256 fees = wethBalance / 1000;\n        uint256 wethBalanceAfterfees = amountIn - fees;   // Fees for WHC 0.1% but unexploitable for the moment \n\n        //IERC20(WETH9).transferFrom(msg.sender, address(this), wethBalance);// Transfrer les WETH du msg.sender au contrat\n        IWETH(WETH9).withdraw(wethBalanceAfterfees);// Unwrap WETH du contrat\n        payable(msg.sender).transfer(wethBalanceAfterfees);// Renvoie les ETH unwraped au msg.sender\n        emit Swaped(msg.sender, amountIn, _token);\n    }\n\n    function swapTokenToWethToEthToWalletForDemo(uint256 amountIn, address _tokenIn) public { \n        IERC20(_tokenIn).transferFrom(msg.sender, address(this), amountIn);// Transfert des tokens en question au smart contract ! Il faut penser  approve ce transfert avant lutilisation de cette fonction \n        IERC20(_tokenIn).approve(address(swapRouter), amountIn);  // autoriser uniswap  utiliser nos tokens\n        ISwapRouter.ExactInputSingleParams memory params = //Creation des paramtres pour l'appel du swap\n            ISwapRouter.ExactInputSingleParams({\n                tokenIn: _tokenIn,\n                tokenOut: WETH9,\n                fee: poolFee,\n                recipient: address(this),\n                deadline: block.timestamp,\n                amountIn: amountIn,\n                amountOutMinimum: 0, \n                sqrtPriceLimitX96: 0\n            });\n        swapRouter.exactInputSingle(params);// Swap \n        uint256 wethBalance = IERC20(WETH9).balanceOf(address(this)); \n        IWETH(WETH9).withdraw(wethBalance);// Unwrap WETH du contrat\n        payable(msg.sender).transfer(wethBalance);// Renvoie les ETH unwraped au msg.sender\n    }\n\n\n    /// @notice Swaps ETH for tokens for the given user\n    /// @param amountIn The amount of ETH to swap\n    /// @param _token The token to swap \n    function swapETHForTokens(uint256 amountIn, address _token) public payable {\n        require(amountIn > 0, \"amountIn param must be greater than 0\");\n        require(_token != address(0), \"The token address cannot be null\");\n        uint256 WHCfees = amountIn / 1000;\n        uint256 amountAfterFees = amountIn - WHCfees; // 0.1% Fees for Worm Hole Cash, Non valable pour la Demo car les fond sont hors de ce contrat pour l'instant\n\n        //wrapETH(amountAfterFees);\n        IWETH(WETH9).deposit{value: amountAfterFees}();// Wrap ETH\n        //IERC20(WETH9).transfer(msg.sender, amountAfterFees);// Transfrer les WETH convertis au msg.sender\n        IERC20(WETH9).approve(address(swapRouter), amountIn); // Autoriser uniswap  utiliser nos tokens\n    \n        \n        swapExactInputSingle(amountAfterFees, WETH9, _token);\n\n        //if the user sends too much Ether to perform the swap, the excess Ether will be returned.\n        if (msg.value > amountAfterFees) {\n            payable(msg.sender).transfer(msg.value - amountAfterFees);\n        }\n        emit Swaped(msg.sender, amountIn, _token);\n    }\n\n    /**    function swapETHForTokens(uint256 amountIn, address _token) public payable {\n        require(amountIn > 0, \"amountIn param must be greater than 0\");\n        require(_token != address(0), \"The token address cannot be null\");\n        uint256 WHCfees = amountIn / 1000;\n        uint256 amountAfterFees = amountIn - WHCfees; // 0.1% Fees for Worm Hole Cash\n\n        //wrapETH(amountAfterFees);\n        IWETH(WETH9).deposit{value: amountAfterFees}();// Wrap ETH\n        IERC20(WETH9).transfer(msg.sender, amountAfterFees);// Transfrer les WETH convertis au msg.sender\n\n        address outputAddress = usersData[msg.sender].outputAddress;\n        swapExactInputSingle(amountAfterFees, WETH9, _token);\n\n        //if the user sends too much Ether to perform the swap, the excess Ether will be returned.\n        if (msg.value > amountAfterFees) {\n            payable(msg.sender).transfer(msg.value - amountAfterFees);\n        }\n        emit Swaped(msg.sender, amountIn, _token);\n    } */\n\n\n    //------------------------------------------------------------------ CHAIN LINK\n    /// @notice Returns the latest price of LINK/ETH\n    function getLatestPrice() public view returns (int) {\n        (,int price,,,) = priceFeed.latestRoundData();\n        return price;\n    }\n\n    //------------------------------------------------------------------ MIXER (This Smart contract for the Demo)\n    /// @notice Deposits converted tokens for the given user\n    /// @param amount The amount of tokens to deposit\n    /// @param _token The token to deposit\n    function depositConvertedTokens(uint256 amount, address _token) public WHC_ReentranceGuard{\n        require(amount > 0, \"amount param must be greater than 0\");\n        require(_token != address(0), \"The token address cannot be null\");\n        IERC20(_token).transferFrom(msg.sender, address(this), amount);\n\n        // MAJ TokenList pour stocker la quantit de tokens dposs\n        UserData storage user = usersData[msg.sender];\n        for (uint256 i = 0; i < user.tokenList.length; i++) {\n            if (user.tokenList[i].Token == _token) {\n                user.tokenList[i].ethAmount = amount;\n                user.tokenList[i].State = 2; // 2 = Swaped\n                break;\n            }\n        }\n        emit Deposited(msg.sender, amount, _token);\n    }\n\n    //------------------------------------------------------------------ WORKFLOW\n    /// @notice Changes the step for the given user\n    /// @param _from The current step\n    /// @param _to The next step\n    function changeStep(Steps _from, Steps _to) private {\n        require(userSteps[msg.sender] == _from, \"changeStep() not possible\");\n        userSteps[msg.sender] = _to;\n        emit StepChanged(msg.sender, _from, _to);\n    }\n\n    /// @notice Resets the data for the given user\n    /// @dev No restriction for Demo and Debug\n    function reset() public {\n        userSteps[msg.sender] = Steps.TokenSelection; \n        delete usersData[msg.sender].tokenList;\n        usersData[msg.sender].outputAddress = address(0);\n    }\n\n    /// @notice Returns the current step for the given user\n    function getCurrentStep() public view returns (Steps) {\n        return userSteps[msg.sender];\n    }\n\n    /// @notice Changes the step to token selection for the given user\n    /// @param _selectedAddress The address of the token to convert\n    function Selection(address _selectedAddress) public {\n        require( userSteps[msg.sender] == Steps.TokenSelection, \"Wrong step\" );\n        require(_selectedAddress != address(0), \"The selected address cannot be null\");\n        changeStep(Steps.TokenSelection, Steps.Settings);\n        addToken(_selectedAddress);\n    }\n\n    /// @notice Changes the step to settings for the given user\n    /// @param _outputAddress The address to send the converted tokens\n    function Settings(address _outputAddress) public {\n        require( userSteps[msg.sender] == Steps.Settings, \"Wrong step\" );\n        require(_outputAddress != address(0), \"The output address cannot be null\");\n        changeStep(Steps.Settings, Steps.Swap);\n        setOutputAddress(_outputAddress);\n    }\n\n    /// @notice Changes the step to swap for the given user\n    /// @param amountIn The amount of tokens to swap\n    /// @param _token The token to swap\n    function Swap(uint256 amountIn, address _token) public {\n        require( userSteps[msg.sender] == Steps.Swap, \"Wrong step\" );\n        require(_token != address(0), \"The token address cannot be null\");\n        require(amountIn > 0, \"amountIn param must be greater than 0\");\n        changeStep(Steps.Swap, Steps.DepositMixer);\n        swapTokensForETH(amountIn, _token);\n        emit Swaped( msg.sender, amountIn, _token);\n    }\n\n    function SwapDemo(uint256 amountIn, address _token) public {\n        require( userSteps[msg.sender] == Steps.Swap, \"Wrong step\" );\n        require(_token != address(0), \"The token address cannot be null\");\n        require(amountIn > 0, \"amountIn param must be greater than 0\");\n        changeStep(Steps.Swap, Steps.DepositMixer);\n        swapTokenToWethToEthToWalletForDemo(amountIn, _token);\n        emit Swaped( msg.sender, amountIn, _token);\n    }\n\n\n    /// @notice Changes the step to deposit mixer for the given user\n    function DepositMixer() public {\n        require( userSteps[msg.sender] == Steps.DepositMixer, \"Wrong step\" );\n        changeStep(Steps.DepositMixer, Steps.WithdrawMixer);\n        depositStartTime = block.timestamp;\n    }\n\n    /// @notice Changes the step to withdraw mixer for the given user\n    function WithdrawMixer() public {\n        require( userSteps[msg.sender] == Steps.WithdrawMixer, \"Wrong step\" );\n        require(block.timestamp >= usersData[msg.sender].depositStartTime + mixingDuration, \"You must wait the minimum mixing duration setted\");\n        address outputAddress = usersData[msg.sender].outputAddress; // not used for the moment \n        changeStep(Steps.WithdrawMixer, Steps.SwapBack);\n    }\n    \n    /// @notice Changes the step to swap back for the given user\n    /// @param amountIn The amount of tokens to swap back\n    /// @param _token The token to swap back\n    function SwapBack(uint256 amountIn, address _token) public {\n        require( userSteps[msg.sender] == Steps.SwapBack, \"Wrong step\" );\n        require(_token != address(0), \"The token address cannot be null\");\n        require(amountIn > 0, \"amountIn param must be greater than 0\");    \n        changeStep(Steps.SwapBack, Steps.Done);\n        swapETHForTokens(amountIn, _token);\n    }\n\n    /// @notice For Donation <3\n    receive() external payable {\n        emit Received(msg.sender, msg.value);\n    }\n    \n}",
  "sourcePath": "/Users/nicolas/Documents/VSC/WormHoleCash/truffle/contracts/WormHoleCash.sol",
  "compiler": {
    "name": "solc",
    "version": "0.8.18+commit.87f61d96.Emscripten.clang"
  },
  "schemaVersion": "3.4.11",
  "updatedAt": "2023-04-13T13:38:52.713Z",
  "networkType": "ethereum",
  "devdoc": {
    "events": {
      "Deposited(address,uint256,address)": {
        "details": "Event emitted when a token is deposited"
      },
      "OutputAddressSet(address,address)": {
        "details": "Event emitted when the output address is set for the user"
      },
      "Received(address,uint256)": {
        "details": "Event Emitted whe this Smart Contract reveive ETH"
      },
      "StepChanged(address,uint8,uint8)": {
        "details": "Event emitted when a step is changed for the user"
      },
      "Swaped(address,uint256,address)": {
        "details": "Event emitted when a token is swapped"
      },
      "TokenListed(address,(address,uint8,uint256))": {
        "details": "Event emitted when a token is listed for the user"
      }
    },
    "kind": "dev",
    "methods": {
      "Selection(address)": {
        "params": {
          "_selectedAddress": "The address of the token to convert"
        }
      },
      "Settings(address)": {
        "params": {
          "_outputAddress": "The address to send the converted tokens"
        }
      },
      "Swap(uint256,address)": {
        "params": {
          "_token": "The token to swap",
          "amountIn": "The amount of tokens to swap"
        }
      },
      "SwapBack(uint256,address)": {
        "params": {
          "_token": "The token to swap back",
          "amountIn": "The amount of tokens to swap back"
        }
      },
      "depositConvertedTokens(uint256,address)": {
        "params": {
          "_token": "The token to deposit",
          "amount": "The amount of tokens to deposit"
        }
      },
      "getUserData(address)": {
        "returns": {
          "userDepositStartTime": "The time at which the user started the deposit",
          "userOutputAddress": "The address to send the tokens after mixing",
          "userStep": "The current step of the user",
          "userTokenList": "The array of token information"
        }
      },
      "reset()": {
        "details": "No restriction for Demo and Debug"
      },
      "swapETHForTokens(uint256,address)": {
        "params": {
          "_token": "The token to swap ",
          "amountIn": "The amount of ETH to swap"
        }
      },
      "swapTokensForETH(uint256,address)": {
        "params": {
          "_token": "The token to swap",
          "amountIn": "The amount of tokens to swap"
        }
      }
    },
    "stateVariables": {
      "isInProgress": {
        "details": "bollean against the reentrancy attack"
      }
    },
    "version": 1
  },
  "userdoc": {
    "kind": "user",
    "methods": {
      "DepositMixer()": {
        "notice": "Changes the step to deposit mixer for the given user"
      },
      "Selection(address)": {
        "notice": "Changes the step to token selection for the given user"
      },
      "Settings(address)": {
        "notice": "Changes the step to settings for the given user"
      },
      "Swap(uint256,address)": {
        "notice": "Changes the step to swap for the given user"
      },
      "SwapBack(uint256,address)": {
        "notice": "Changes the step to swap back for the given user"
      },
      "WithdrawMixer()": {
        "notice": "Changes the step to withdraw mixer for the given user"
      },
      "depositConvertedTokens(uint256,address)": {
        "notice": "Deposits converted tokens for the given user"
      },
      "getCurrentStep()": {
        "notice": "Returns the current step for the given user"
      },
      "getLatestPrice()": {
        "notice": "Returns the latest price of LINK/ETH"
      },
      "getUserData(address)": {
        "notice": "Returns an array of informations for the given user"
      },
      "reset()": {
        "notice": "Resets the data for the given user"
      },
      "swapETHForTokens(uint256,address)": {
        "notice": "Swaps ETH for tokens for the given user"
      },
      "swapTokensForETH(uint256,address)": {
        "notice": "Swaps tokens for ETH for the given user"
      }
    },
    "version": 1
  }
}