{
  "contractName": "WormHoleCash",
  "abi": [
    {
      "inputs": [],
      "stateMutability": "nonpayable",
      "type": "constructor"
    },
    {
      "anonymous": false,
      "inputs": [
        {
          "indexed": true,
          "internalType": "address",
          "name": "user",
          "type": "address"
        },
        {
          "indexed": false,
          "internalType": "uint256",
          "name": "amount",
          "type": "uint256"
        },
        {
          "indexed": false,
          "internalType": "address",
          "name": "_token",
          "type": "address"
        }
      ],
      "name": "Deposited",
      "type": "event"
    },
    {
      "anonymous": false,
      "inputs": [
        {
          "indexed": true,
          "internalType": "address",
          "name": "user",
          "type": "address"
        },
        {
          "indexed": false,
          "internalType": "address",
          "name": "outputAddress",
          "type": "address"
        }
      ],
      "name": "OutputAddressSet",
      "type": "event"
    },
    {
      "anonymous": false,
      "inputs": [
        {
          "indexed": false,
          "internalType": "address",
          "name": "",
          "type": "address"
        },
        {
          "indexed": false,
          "internalType": "uint256",
          "name": "",
          "type": "uint256"
        }
      ],
      "name": "Received",
      "type": "event"
    },
    {
      "anonymous": false,
      "inputs": [
        {
          "indexed": true,
          "internalType": "address",
          "name": "user",
          "type": "address"
        },
        {
          "indexed": false,
          "internalType": "enum WormHoleCash.Steps",
          "name": "previousStatus",
          "type": "uint8"
        },
        {
          "indexed": false,
          "internalType": "enum WormHoleCash.Steps",
          "name": "newStatus",
          "type": "uint8"
        }
      ],
      "name": "StepChanged",
      "type": "event"
    },
    {
      "anonymous": false,
      "inputs": [
        {
          "indexed": true,
          "internalType": "address",
          "name": "user",
          "type": "address"
        },
        {
          "indexed": false,
          "internalType": "uint256",
          "name": "amountIn",
          "type": "uint256"
        },
        {
          "indexed": false,
          "internalType": "address",
          "name": "_token",
          "type": "address"
        }
      ],
      "name": "Swaped",
      "type": "event"
    },
    {
      "anonymous": false,
      "inputs": [
        {
          "indexed": true,
          "internalType": "address",
          "name": "user",
          "type": "address"
        },
        {
          "components": [
            {
              "internalType": "address",
              "name": "Token",
              "type": "address"
            },
            {
              "internalType": "uint8",
              "name": "State",
              "type": "uint8"
            },
            {
              "internalType": "uint256",
              "name": "ethAmount",
              "type": "uint256"
            }
          ],
          "indexed": false,
          "internalType": "struct WormHoleCash.TokenList",
          "name": "tokenSelected",
          "type": "tuple"
        }
      ],
      "name": "TokenListed",
      "type": "event"
    },
    {
      "inputs": [],
      "name": "DAI",
      "outputs": [
        {
          "internalType": "address",
          "name": "",
          "type": "address"
        }
      ],
      "stateMutability": "view",
      "type": "function",
      "constant": true
    },
    {
      "inputs": [],
      "name": "LINK",
      "outputs": [
        {
          "internalType": "address",
          "name": "",
          "type": "address"
        }
      ],
      "stateMutability": "view",
      "type": "function",
      "constant": true
    },
    {
      "inputs": [],
      "name": "OuputAddress",
      "outputs": [
        {
          "internalType": "address",
          "name": "",
          "type": "address"
        }
      ],
      "stateMutability": "view",
      "type": "function",
      "constant": true
    },
    {
      "inputs": [],
      "name": "SwapRouterV3",
      "outputs": [
        {
          "internalType": "address",
          "name": "",
          "type": "address"
        }
      ],
      "stateMutability": "view",
      "type": "function",
      "constant": true
    },
    {
      "inputs": [],
      "name": "WETH9",
      "outputs": [
        {
          "internalType": "address",
          "name": "",
          "type": "address"
        }
      ],
      "stateMutability": "view",
      "type": "function",
      "constant": true
    },
    {
      "inputs": [],
      "name": "depositStartTime",
      "outputs": [
        {
          "internalType": "uint256",
          "name": "",
          "type": "uint256"
        }
      ],
      "stateMutability": "view",
      "type": "function",
      "constant": true
    },
    {
      "inputs": [],
      "name": "mixingDuration",
      "outputs": [
        {
          "internalType": "uint256",
          "name": "",
          "type": "uint256"
        }
      ],
      "stateMutability": "view",
      "type": "function",
      "constant": true
    },
    {
      "inputs": [],
      "name": "poolFee",
      "outputs": [
        {
          "internalType": "uint16",
          "name": "",
          "type": "uint16"
        }
      ],
      "stateMutability": "view",
      "type": "function",
      "constant": true
    },
    {
      "inputs": [],
      "name": "step",
      "outputs": [
        {
          "internalType": "enum WormHoleCash.Steps",
          "name": "",
          "type": "uint8"
        }
      ],
      "stateMutability": "view",
      "type": "function",
      "constant": true
    },
    {
      "inputs": [],
      "name": "swapRouter",
      "outputs": [
        {
          "internalType": "contract ISwapRouter",
          "name": "",
          "type": "address"
        }
      ],
      "stateMutability": "view",
      "type": "function",
      "constant": true
    },
    {
      "inputs": [
        {
          "internalType": "uint256",
          "name": "",
          "type": "uint256"
        }
      ],
      "name": "tokenList",
      "outputs": [
        {
          "internalType": "address",
          "name": "Token",
          "type": "address"
        },
        {
          "internalType": "uint8",
          "name": "State",
          "type": "uint8"
        },
        {
          "internalType": "uint256",
          "name": "ethAmount",
          "type": "uint256"
        }
      ],
      "stateMutability": "view",
      "type": "function",
      "constant": true
    },
    {
      "stateMutability": "payable",
      "type": "receive",
      "payable": true
    },
    {
      "inputs": [
        {
          "internalType": "address",
          "name": "userAddress",
          "type": "address"
        }
      ],
      "name": "getUserData",
      "outputs": [
        {
          "components": [
            {
              "internalType": "address",
              "name": "Token",
              "type": "address"
            },
            {
              "internalType": "uint8",
              "name": "State",
              "type": "uint8"
            },
            {
              "internalType": "uint256",
              "name": "ethAmount",
              "type": "uint256"
            }
          ],
          "internalType": "struct WormHoleCash.TokenList[]",
          "name": "userTokenList",
          "type": "tuple[]"
        },
        {
          "internalType": "address",
          "name": "userOutputAddress",
          "type": "address"
        },
        {
          "internalType": "uint256",
          "name": "userDepositStartTime",
          "type": "uint256"
        },
        {
          "internalType": "enum WormHoleCash.Steps",
          "name": "userStep",
          "type": "uint8"
        }
      ],
      "stateMutability": "view",
      "type": "function",
      "constant": true
    },
    {
      "inputs": [
        {
          "internalType": "uint256",
          "name": "amountIn",
          "type": "uint256"
        },
        {
          "internalType": "address",
          "name": "_token",
          "type": "address"
        }
      ],
      "name": "swapTokensForETH",
      "outputs": [],
      "stateMutability": "nonpayable",
      "type": "function"
    },
    {
      "inputs": [
        {
          "internalType": "uint256",
          "name": "amountIn",
          "type": "uint256"
        },
        {
          "internalType": "address",
          "name": "_tokenIn",
          "type": "address"
        }
      ],
      "name": "swapTokenToWethToEthToWalletForDemo",
      "outputs": [],
      "stateMutability": "nonpayable",
      "type": "function"
    },
    {
      "inputs": [
        {
          "internalType": "uint256",
          "name": "amountIn",
          "type": "uint256"
        },
        {
          "internalType": "address",
          "name": "_token",
          "type": "address"
        }
      ],
      "name": "swapETHForTokens",
      "outputs": [],
      "stateMutability": "payable",
      "type": "function",
      "payable": true
    },
    {
      "inputs": [],
      "name": "getLatestPrice",
      "outputs": [
        {
          "internalType": "int256",
          "name": "",
          "type": "int256"
        }
      ],
      "stateMutability": "view",
      "type": "function",
      "constant": true
    },
    {
      "inputs": [
        {
          "internalType": "uint256",
          "name": "amount",
          "type": "uint256"
        },
        {
          "internalType": "address",
          "name": "_token",
          "type": "address"
        }
      ],
      "name": "depositConvertedTokens",
      "outputs": [],
      "stateMutability": "nonpayable",
      "type": "function"
    },
    {
      "inputs": [],
      "name": "reset",
      "outputs": [],
      "stateMutability": "nonpayable",
      "type": "function"
    },
    {
      "inputs": [],
      "name": "getCurrentStep",
      "outputs": [
        {
          "internalType": "enum WormHoleCash.Steps",
          "name": "",
          "type": "uint8"
        }
      ],
      "stateMutability": "view",
      "type": "function",
      "constant": true
    },
    {
      "inputs": [
        {
          "internalType": "address",
          "name": "_selectedAddress",
          "type": "address"
        }
      ],
      "name": "Selection",
      "outputs": [],
      "stateMutability": "nonpayable",
      "type": "function"
    },
    {
      "inputs": [
        {
          "internalType": "address",
          "name": "_outputAddress",
          "type": "address"
        }
      ],
      "name": "Settings",
      "outputs": [],
      "stateMutability": "nonpayable",
      "type": "function"
    },
    {
      "inputs": [
        {
          "internalType": "uint256",
          "name": "amountIn",
          "type": "uint256"
        },
        {
          "internalType": "address",
          "name": "_token",
          "type": "address"
        }
      ],
      "name": "Swap",
      "outputs": [],
      "stateMutability": "nonpayable",
      "type": "function"
    },
    {
      "inputs": [
        {
          "internalType": "uint256",
          "name": "amountIn",
          "type": "uint256"
        },
        {
          "internalType": "address",
          "name": "_token",
          "type": "address"
        }
      ],
      "name": "SwapDemo",
      "outputs": [],
      "stateMutability": "nonpayable",
      "type": "function"
    },
    {
      "inputs": [],
      "name": "DepositMixer",
      "outputs": [],
      "stateMutability": "nonpayable",
      "type": "function"
    },
    {
      "inputs": [],
      "name": "WithdrawMixer",
      "outputs": [],
      "stateMutability": "nonpayable",
      "type": "function"
    },
    {
      "inputs": [
        {
          "internalType": "uint256",
          "name": "amountIn",
          "type": "uint256"
        },
        {
          "internalType": "address",
          "name": "_token",
          "type": "address"
        }
      ],
      "name": "SwapBack",
      "outputs": [],
      "stateMutability": "nonpayable",
      "type": "function"
    }
  ],
  "bytecode": "0x60a0604052603c60055534801561001557600080fd5b50600160008190555073e592427a0aece92de3edee1f18e0157c0586156473ffffffffffffffffffffffffffffffffffffffff1660808173ffffffffffffffffffffffffffffffffffffffff168152505073b4c4a493ab6356497713a78ffa6c60fb53517c63600160006101000a81548173ffffffffffffffffffffffffffffffffffffffff021916908373ffffffffffffffffffffffffffffffffffffffff160217905550608051613bfb6100f960003960008181610afb01528181610c350152818161154f01528181611a4e015281816123a701526124cd0152613bfb6000f3fe6080604052600436106101855760003560e01c806392f23918116100d1578063c88da83d1161008a578063d826f88f11610064578063d826f88f14610549578063e0bab4c414610560578063e25fe1751461058b578063ffc9896b146105b6576101c5565b8063c88da83d146104de578063cba2a85a146104f5578063d1a3925a1461051e576101c5565b806392f23918146103ed5780639ead722214610418578063a27486ea14610457578063c31c9c071461046e578063c3325e4614610499578063c644ee6f146104c2576101c5565b806351c3aa471161013e578063757e61e011610118578063757e61e0146103455780638050f5f11461036e57806388d53836146103975780638e15f473146103c2576101c5565b806351c3aa47146102c8578063587419d5146102f157806373c2ea021461031c576101c5565b8063089fe6aa146101ca5780631b6b6d23146101f55780631d3824ea1461022057806323aad1841461024b5780634aa4a4fc146102745780634cc403121461029f576101c5565b366101c5577f88a5966d370b9919b20f3e2c13ff65706f196a4e32cc2c12bf57088f8852587433346040516101bb929190612bf4565b60405180910390a1005b600080fd5b3480156101d657600080fd5b506101df6105f6565b6040516101ec9190612c3a565b60405180910390f35b34801561020157600080fd5b5061020a6105fc565b6040516102179190612c55565b60405180910390f35b34801561022c57600080fd5b50610235610614565b6040516102429190612ce7565b60405180910390f35b34801561025757600080fd5b50610272600480360381019061026d9190612d5f565b610668565b005b34801561028057600080fd5b5061028961090a565b6040516102969190612c55565b60405180910390f35b3480156102ab57600080fd5b506102c660048036038101906102c19190612d9f565b610922565b005b3480156102d457600080fd5b506102ef60048036038101906102ea9190612d5f565b610a5c565b005b3480156102fd57600080fd5b50610306610e2e565b6040516103139190612dcc565b60405180910390f35b34801561032857600080fd5b50610343600480360381019061033e9190612d5f565b610e34565b005b34801561035157600080fd5b5061036c60048036038101906103679190612d5f565b611003565b005b34801561037a57600080fd5b5061039560048036038101906103909190612d5f565b6111d2565b005b3480156103a357600080fd5b506103ac611351565b6040516103b99190612c55565b60405180910390f35b3480156103ce57600080fd5b506103d7611377565b6040516103e49190612e00565b60405180910390f35b3480156103f957600080fd5b50610402611418565b60405161040f9190612dcc565b60405180910390f35b34801561042457600080fd5b5061043f600480360381019061043a9190612e1b565b61141e565b60405161044e93929190612e64565b60405180910390f35b34801561046357600080fd5b5061046c611485565b005b34801561047a57600080fd5b5061048361154d565b6040516104909190612efa565b60405180910390f35b3480156104a557600080fd5b506104c060048036038101906104bb9190612d5f565b611571565b005b6104dc60048036038101906104d79190612d5f565b6118d3565b005b3480156104ea57600080fd5b506104f3611b9f565b005b34801561050157600080fd5b5061051c60048036038101906105179190612d9f565b611d5a565b005b34801561052a57600080fd5b50610533611e94565b6040516105409190612c55565b60405180910390f35b34801561055557600080fd5b5061055e611eac565b005b34801561056c57600080fd5b50610575611fe6565b6040516105829190612c55565b60405180910390f35b34801561059757600080fd5b506105a0611ffe565b6040516105ad9190612ce7565b60405180910390f35b3480156105c257600080fd5b506105dd60048036038101906105d89190612d9f565b612011565b6040516105ed9493929190613033565b60405180910390f35b610bb881565b73326c977e6efc84e512bb9c30f76e30c160ed06fb81565b6000600360003373ffffffffffffffffffffffffffffffffffffffff1673ffffffffffffffffffffffffffffffffffffffff16815260200190815260200160002060009054906101000a900460ff16905090565b600082116106ab576040517f08c379a00000000000000000000000000000000000000000000000000000000081526004016106a290613102565b60405180910390fd5b600073ffffffffffffffffffffffffffffffffffffffff168173ffffffffffffffffffffffffffffffffffffffff160361071a576040517f08c379a00000000000000000000000000000000000000000000000000000000081526004016107119061316e565b60405180910390fd5b610739828273b4fbf271143f4fbf7b91a5ded31805e42b2208d661217d565b600073b4fbf271143f4fbf7b91a5ded31805e42b2208d673ffffffffffffffffffffffffffffffffffffffff166370a08231306040518263ffffffff1660e01b81526004016107889190612c55565b602060405180830381865afa1580156107a5573d6000803e3d6000fd5b505050506040513d601f19601f820116820180604052508101906107c991906131a3565b905060006103e8826107db919061322e565b9050600081856107eb919061325f565b905073b4fbf271143f4fbf7b91a5ded31805e42b2208d673ffffffffffffffffffffffffffffffffffffffff16632e1a7d4d826040518263ffffffff1660e01b815260040161083a9190612dcc565b600060405180830381600087803b15801561085457600080fd5b505af1158015610868573d6000803e3d6000fd5b505050503373ffffffffffffffffffffffffffffffffffffffff166108fc829081150290604051600060405180830381858888f193505050501580156108b2573d6000803e3d6000fd5b503373ffffffffffffffffffffffffffffffffffffffff167f1a198c38fdbbe5c8aed6492f511de47f6443716bb632161eaa137fbf0caf676386866040516108fb929190613293565b60405180910390a25050505050565b73b4fbf271143f4fbf7b91a5ded31805e42b2208d681565b6000600681111561093657610935612c70565b5b600360003373ffffffffffffffffffffffffffffffffffffffff1673ffffffffffffffffffffffffffffffffffffffff16815260200190815260200160002060009054906101000a900460ff16600681111561099557610994612c70565b5b146109d5576040517f08c379a00000000000000000000000000000000000000000000000000000000081526004016109cc90613308565b60405180910390fd5b600073ffffffffffffffffffffffffffffffffffffffff168173ffffffffffffffffffffffffffffffffffffffff1603610a44576040517f08c379a0000000000000000000000000000000000000000000000000000000008152600401610a3b9061339a565b60405180910390fd5b610a5060006001612589565b610a59816126f6565b50565b8073ffffffffffffffffffffffffffffffffffffffff166323b872dd3330856040518463ffffffff1660e01b8152600401610a99939291906133ba565b6020604051808303816000875af1158015610ab8573d6000803e3d6000fd5b505050506040513d601f19601f82011682018060405250810190610adc9190613429565b508073ffffffffffffffffffffffffffffffffffffffff1663095ea7b37f0000000000000000000000000000000000000000000000000000000000000000846040518363ffffffff1660e01b8152600401610b38929190612bf4565b6020604051808303816000875af1158015610b57573d6000803e3d6000fd5b505050506040513d601f19601f82011682018060405250810190610b7b9190613429565b5060006040518061010001604052808373ffffffffffffffffffffffffffffffffffffffff16815260200173b4fbf271143f4fbf7b91a5ded31805e42b2208d673ffffffffffffffffffffffffffffffffffffffff168152602001610bb861ffff1662ffffff1681526020013073ffffffffffffffffffffffffffffffffffffffff16815260200142815260200184815260200160008152602001600073ffffffffffffffffffffffffffffffffffffffff1681525090507f000000000000000000000000000000000000000000000000000000000000000073ffffffffffffffffffffffffffffffffffffffff1663414bf389826040518263ffffffff1660e01b8152600401610c8c9190613525565b6020604051808303816000875af1158015610cab573d6000803e3d6000fd5b505050506040513d601f19601f82011682018060405250810190610ccf91906131a3565b50600073b4fbf271143f4fbf7b91a5ded31805e42b2208d673ffffffffffffffffffffffffffffffffffffffff166370a08231306040518263ffffffff1660e01b8152600401610d1f9190612c55565b602060405180830381865afa158015610d3c573d6000803e3d6000fd5b505050506040513d601f19601f82011682018060405250810190610d6091906131a3565b905073b4fbf271143f4fbf7b91a5ded31805e42b2208d673ffffffffffffffffffffffffffffffffffffffff16632e1a7d4d826040518263ffffffff1660e01b8152600401610daf9190612dcc565b600060405180830381600087803b158015610dc957600080fd5b505af1158015610ddd573d6000803e3d6000fd5b505050503373ffffffffffffffffffffffffffffffffffffffff166108fc829081150290604051600060405180830381858888f19350505050158015610e27573d6000803e3d6000fd5b5050505050565b60065481565b60026006811115610e4857610e47612c70565b5b600360003373ffffffffffffffffffffffffffffffffffffffff1673ffffffffffffffffffffffffffffffffffffffff16815260200190815260200160002060009054906101000a900460ff166006811115610ea757610ea6612c70565b5b14610ee7576040517f08c379a0000000000000000000000000000000000000000000000000000000008152600401610ede90613308565b60405180910390fd5b600073ffffffffffffffffffffffffffffffffffffffff168173ffffffffffffffffffffffffffffffffffffffff1603610f56576040517f08c379a0000000000000000000000000000000000000000000000000000000008152600401610f4d9061316e565b60405180910390fd5b60008211610f99576040517f08c379a0000000000000000000000000000000000000000000000000000000008152600401610f9090613102565b60405180910390fd5b610fa560026003612589565b610faf8282610a5c565b3373ffffffffffffffffffffffffffffffffffffffff167f1a198c38fdbbe5c8aed6492f511de47f6443716bb632161eaa137fbf0caf67638383604051610ff7929190613293565b60405180910390a25050565b6002600681111561101757611016612c70565b5b600360003373ffffffffffffffffffffffffffffffffffffffff1673ffffffffffffffffffffffffffffffffffffffff16815260200190815260200160002060009054906101000a900460ff16600681111561107657611075612c70565b5b146110b6576040517f08c379a00000000000000000000000000000000000000000000000000000000081526004016110ad90613308565b60405180910390fd5b600073ffffffffffffffffffffffffffffffffffffffff168173ffffffffffffffffffffffffffffffffffffffff1603611125576040517f08c379a000000000000000000000000000000000000000000000000000000000815260040161111c9061316e565b60405180910390fd5b60008211611168576040517f08c379a000000000000000000000000000000000000000000000000000000000815260040161115f90613102565b60405180910390fd5b61117460026003612589565b61117e8282610668565b3373ffffffffffffffffffffffffffffffffffffffff167f1a198c38fdbbe5c8aed6492f511de47f6443716bb632161eaa137fbf0caf676383836040516111c6929190613293565b60405180910390a25050565b600560068111156111e6576111e5612c70565b5b600360003373ffffffffffffffffffffffffffffffffffffffff1673ffffffffffffffffffffffffffffffffffffffff16815260200190815260200160002060009054906101000a900460ff16600681111561124557611244612c70565b5b14611285576040517f08c379a000000000000000000000000000000000000000000000000000000000815260040161127c90613308565b60405180910390fd5b600073ffffffffffffffffffffffffffffffffffffffff168173ffffffffffffffffffffffffffffffffffffffff16036112f4576040517f08c379a00000000000000000000000000000000000000000000000000000000081526004016112eb9061316e565b60405180910390fd5b60008211611337576040517f08c379a000000000000000000000000000000000000000000000000000000000815260040161132e90613102565b60405180910390fd5b61134360056006612589565b61134d82826118d3565b5050565b600460009054906101000a900473ffffffffffffffffffffffffffffffffffffffff1681565b600080600160009054906101000a900473ffffffffffffffffffffffffffffffffffffffff1673ffffffffffffffffffffffffffffffffffffffff1663feaf968c6040518163ffffffff1660e01b815260040160a060405180830381865afa1580156113e7573d6000803e3d6000fd5b505050506040513d601f19601f8201168201806040525081019061140b91906135af565b5050509150508091505090565b60055481565b6007818154811061142e57600080fd5b90600052602060002090600202016000915090508060000160009054906101000a900473ffffffffffffffffffffffffffffffffffffffff16908060000160149054906101000a900460ff16908060010154905083565b6003600681111561149957611498612c70565b5b600360003373ffffffffffffffffffffffffffffffffffffffff1673ffffffffffffffffffffffffffffffffffffffff16815260200190815260200160002060009054906101000a900460ff1660068111156114f8576114f7612c70565b5b14611538576040517f08c379a000000000000000000000000000000000000000000000000000000000815260040161152f90613308565b60405180910390fd5b61154460036004612589565b42600681905550565b7f000000000000000000000000000000000000000000000000000000000000000081565b600160149054906101000a900460ff16156115c1576040517f08c379a00000000000000000000000000000000000000000000000000000000081526004016115b89061369c565b60405180910390fd5b60018060146101000a81548160ff0219169083151502179055506000821161161e576040517f08c379a00000000000000000000000000000000000000000000000000000000081526004016116159061372e565b60405180910390fd5b600073ffffffffffffffffffffffffffffffffffffffff168173ffffffffffffffffffffffffffffffffffffffff160361168d576040517f08c379a00000000000000000000000000000000000000000000000000000000081526004016116849061316e565b60405180910390fd5b8073ffffffffffffffffffffffffffffffffffffffff166323b872dd3330856040518463ffffffff1660e01b81526004016116ca939291906133ba565b6020604051808303816000875af11580156116e9573d6000803e3d6000fd5b505050506040513d601f19601f8201168201806040525081019061170d9190613429565b506000600260003373ffffffffffffffffffffffffffffffffffffffff1673ffffffffffffffffffffffffffffffffffffffff168152602001908152602001600020905060005b8160000180549050811015611862578273ffffffffffffffffffffffffffffffffffffffff168260000182815481106117905761178f61374e565b5b906000526020600020906002020160000160009054906101000a900473ffffffffffffffffffffffffffffffffffffffff1673ffffffffffffffffffffffffffffffffffffffff160361184f57838260000182815481106117f4576117f361374e565b5b90600052602060002090600202016001018190555060028260000182815481106118215761182061374e565b5b906000526020600020906002020160000160146101000a81548160ff021916908360ff160217905550611862565b808061185a9061377d565b915050611754565b503373ffffffffffffffffffffffffffffffffffffffff167fb4e1304f97b5093610f51b33ddab6622388422e2dac138b0d32f93dcfbd39edf84846040516118ab929190613293565b60405180910390a2506000600160146101000a81548160ff0219169083151502179055505050565b60008211611916576040517f08c379a000000000000000000000000000000000000000000000000000000000815260040161190d90613102565b60405180910390fd5b600073ffffffffffffffffffffffffffffffffffffffff168173ffffffffffffffffffffffffffffffffffffffff1603611985576040517f08c379a000000000000000000000000000000000000000000000000000000000815260040161197c9061316e565b60405180910390fd5b60006103e883611995919061322e565b9050600081846119a5919061325f565b905073b4fbf271143f4fbf7b91a5ded31805e42b2208d673ffffffffffffffffffffffffffffffffffffffff1663d0e30db0826040518263ffffffff1660e01b81526004016000604051808303818588803b158015611a0357600080fd5b505af1158015611a17573d6000803e3d6000fd5b505050505073b4fbf271143f4fbf7b91a5ded31805e42b2208d673ffffffffffffffffffffffffffffffffffffffff1663095ea7b37f0000000000000000000000000000000000000000000000000000000000000000866040518363ffffffff1660e01b8152600401611a8b929190612bf4565b6020604051808303816000875af1158015611aaa573d6000803e3d6000fd5b505050506040513d601f19601f82011682018060405250810190611ace9190613429565b50611aee8173b4fbf271143f4fbf7b91a5ded31805e42b2208d68561217d565b80341115611b49573373ffffffffffffffffffffffffffffffffffffffff166108fc8234611b1c919061325f565b9081150290604051600060405180830381858888f19350505050158015611b47573d6000803e3d6000fd5b505b3373ffffffffffffffffffffffffffffffffffffffff167f1a198c38fdbbe5c8aed6492f511de47f6443716bb632161eaa137fbf0caf67638585604051611b91929190613293565b60405180910390a250505050565b60046006811115611bb357611bb2612c70565b5b600360003373ffffffffffffffffffffffffffffffffffffffff1673ffffffffffffffffffffffffffffffffffffffff16815260200190815260200160002060009054906101000a900460ff166006811115611c1257611c11612c70565b5b14611c52576040517f08c379a0000000000000000000000000000000000000000000000000000000008152600401611c4990613308565b60405180910390fd5b6000600260003373ffffffffffffffffffffffffffffffffffffffff1673ffffffffffffffffffffffffffffffffffffffff16815260200190815260200160002060010160009054906101000a900473ffffffffffffffffffffffffffffffffffffffff169050600554600260003373ffffffffffffffffffffffffffffffffffffffff1673ffffffffffffffffffffffffffffffffffffffff16815260200190815260200160002060020154611d0991906137c5565b421015611d4b576040517f08c379a0000000000000000000000000000000000000000000000000000000008152600401611d429061386b565b60405180910390fd5b611d5760046005612589565b50565b60016006811115611d6e57611d6d612c70565b5b600360003373ffffffffffffffffffffffffffffffffffffffff1673ffffffffffffffffffffffffffffffffffffffff16815260200190815260200160002060009054906101000a900460ff166006811115611dcd57611dcc612c70565b5b14611e0d576040517f08c379a0000000000000000000000000000000000000000000000000000000008152600401611e0490613308565b60405180910390fd5b600073ffffffffffffffffffffffffffffffffffffffff168173ffffffffffffffffffffffffffffffffffffffff1603611e7c576040517f08c379a0000000000000000000000000000000000000000000000000000000008152600401611e73906138fd565b60405180910390fd5b611e8860016002612589565b611e9181612956565b50565b73e592427a0aece92de3edee1f18e0157c0586156481565b6000600360003373ffffffffffffffffffffffffffffffffffffffff1673ffffffffffffffffffffffffffffffffffffffff16815260200190815260200160002060006101000a81548160ff02191690836006811115611f0f57611f0e612c70565b5b0217905550600260003373ffffffffffffffffffffffffffffffffffffffff1673ffffffffffffffffffffffffffffffffffffffff1681526020019081526020016000206000016000611f629190612b1c565b6000600260003373ffffffffffffffffffffffffffffffffffffffff1673ffffffffffffffffffffffffffffffffffffffff16815260200190815260200160002060010160006101000a81548173ffffffffffffffffffffffffffffffffffffffff021916908373ffffffffffffffffffffffffffffffffffffffff160217905550565b7311fe4b6ae13d2a6055c8d9cf65c55bac32b5d84481565b600860009054906101000a900460ff1681565b6060600080600080600260008773ffffffffffffffffffffffffffffffffffffffff1673ffffffffffffffffffffffffffffffffffffffff168152602001908152602001600020905080600001805480602002602001604051908101604052809291908181526020016000905b8282101561212d57838290600052602060002090600202016040518060600160405290816000820160009054906101000a900473ffffffffffffffffffffffffffffffffffffffff1673ffffffffffffffffffffffffffffffffffffffff1673ffffffffffffffffffffffffffffffffffffffff1681526020016000820160149054906101000a900460ff1660ff1660ff1681526020016001820154815250508152602001906001019061207e565b5050505094508060010160009054906101000a900473ffffffffffffffffffffffffffffffffffffffff169350806002015492508060030160009054906101000a900460ff169150509193509193565b600160149054906101000a900460ff16156121cd576040517f08c379a00000000000000000000000000000000000000000000000000000000081526004016121c49061369c565b60405180910390fd5b60018060146101000a81548160ff0219169083151502179055506000831161222a576040517f08c379a000000000000000000000000000000000000000000000000000000000815260040161222190613102565b60405180910390fd5b600073ffffffffffffffffffffffffffffffffffffffff168273ffffffffffffffffffffffffffffffffffffffff1603612299576040517f08c379a00000000000000000000000000000000000000000000000000000000081526004016122909061398f565b60405180910390fd5b600073ffffffffffffffffffffffffffffffffffffffff168173ffffffffffffffffffffffffffffffffffffffff1603612308576040517f08c379a00000000000000000000000000000000000000000000000000000000081526004016122ff90613a21565b60405180910390fd5b8173ffffffffffffffffffffffffffffffffffffffff166323b872dd3330866040518463ffffffff1660e01b8152600401612345939291906133ba565b6020604051808303816000875af1158015612364573d6000803e3d6000fd5b505050506040513d601f19601f820116820180604052508101906123889190613429565b508173ffffffffffffffffffffffffffffffffffffffff1663095ea7b37f0000000000000000000000000000000000000000000000000000000000000000856040518363ffffffff1660e01b81526004016123e4929190612bf4565b6020604051808303816000875af1158015612403573d6000803e3d6000fd5b505050506040513d601f19601f820116820180604052508101906124279190613429565b5060006040518061010001604052808473ffffffffffffffffffffffffffffffffffffffff1681526020018373ffffffffffffffffffffffffffffffffffffffff168152602001610bb861ffff1662ffffff1681526020013073ffffffffffffffffffffffffffffffffffffffff16815260200142815260200185815260200160008152602001600073ffffffffffffffffffffffffffffffffffffffff1681525090507f000000000000000000000000000000000000000000000000000000000000000073ffffffffffffffffffffffffffffffffffffffff1663414bf389826040518263ffffffff1660e01b81526004016125249190613525565b6020604051808303816000875af1158015612543573d6000803e3d6000fd5b505050506040513d601f19601f8201168201806040525081019061256791906131a3565b50506000600160146101000a81548160ff021916908315150217905550505050565b81600681111561259c5761259b612c70565b5b600360003373ffffffffffffffffffffffffffffffffffffffff1673ffffffffffffffffffffffffffffffffffffffff16815260200190815260200160002060009054906101000a900460ff1660068111156125fb576125fa612c70565b5b1461263b576040517f08c379a000000000000000000000000000000000000000000000000000000000815260040161263290613a8d565b60405180910390fd5b80600360003373ffffffffffffffffffffffffffffffffffffffff1673ffffffffffffffffffffffffffffffffffffffff16815260200190815260200160002060006101000a81548160ff0219169083600681111561269d5761269c612c70565b5b02179055503373ffffffffffffffffffffffffffffffffffffffff167f1760e9f51927ce74cbf718ce51630e2cf6dac75a7a31ebebff9b91b3c41a096683836040516126ea929190613aad565b60405180910390a25050565b600160149054906101000a900460ff1615612746576040517f08c379a000000000000000000000000000000000000000000000000000000000815260040161273d9061369c565b60405180910390fd5b60018060146101000a81548160ff021916908315150217905550600073ffffffffffffffffffffffffffffffffffffffff168173ffffffffffffffffffffffffffffffffffffffff16036127cf576040517f08c379a00000000000000000000000000000000000000000000000000000000081526004016127c69061316e565b60405180910390fd5b600060405180606001604052808373ffffffffffffffffffffffffffffffffffffffff168152602001600160ff16815260200160008152509050600260003373ffffffffffffffffffffffffffffffffffffffff1673ffffffffffffffffffffffffffffffffffffffff16815260200190815260200160002060000181908060018154018082558091505060019003906000526020600020906002020160009091909190915060008201518160000160006101000a81548173ffffffffffffffffffffffffffffffffffffffff021916908373ffffffffffffffffffffffffffffffffffffffff16021790555060208201518160000160146101000a81548160ff021916908360ff1602179055506040820151816001015550503373ffffffffffffffffffffffffffffffffffffffff167fe3f48b807439fa69e9c3d506c5fc8d5d7c2bd478ab2b65b33452d4992576a6978260405161292f9190613b18565b60405180910390a2506000600160146101000a81548160ff02191690831515021790555050565b600160149054906101000a900460ff16156129a6576040517f08c379a000000000000000000000000000000000000000000000000000000000815260040161299d9061369c565b60405180910390fd5b60018060146101000a81548160ff021916908315150217905550600073ffffffffffffffffffffffffffffffffffffffff168173ffffffffffffffffffffffffffffffffffffffff1603612a2f576040517f08c379a0000000000000000000000000000000000000000000000000000000008152600401612a2690613ba5565b60405180910390fd5b80600260003373ffffffffffffffffffffffffffffffffffffffff1673ffffffffffffffffffffffffffffffffffffffff16815260200190815260200160002060010160006101000a81548173ffffffffffffffffffffffffffffffffffffffff021916908373ffffffffffffffffffffffffffffffffffffffff1602179055503373ffffffffffffffffffffffffffffffffffffffff167fc395278804de156198ca2eb5fb947e17d0ebb6fc2cefd765748e6b0230c2621682604051612af69190612c55565b60405180910390a26000600160146101000a81548160ff02191690831515021790555050565b5080546000825560020290600052602060002090810190612b3d9190612b40565b50565b5b80821115612b9657600080820160006101000a81549073ffffffffffffffffffffffffffffffffffffffff02191690556000820160146101000a81549060ff0219169055600182016000905550600201612b41565b5090565b600073ffffffffffffffffffffffffffffffffffffffff82169050919050565b6000612bc582612b9a565b9050919050565b612bd581612bba565b82525050565b6000819050919050565b612bee81612bdb565b82525050565b6000604082019050612c096000830185612bcc565b612c166020830184612be5565b9392505050565b600061ffff82169050919050565b612c3481612c1d565b82525050565b6000602082019050612c4f6000830184612c2b565b92915050565b6000602082019050612c6a6000830184612bcc565b92915050565b7f4e487b7100000000000000000000000000000000000000000000000000000000600052602160045260246000fd5b60078110612cb057612caf612c70565b5b50565b6000819050612cc182612c9f565b919050565b6000612cd182612cb3565b9050919050565b612ce181612cc6565b82525050565b6000602082019050612cfc6000830184612cd8565b92915050565b600080fd5b612d1081612bdb565b8114612d1b57600080fd5b50565b600081359050612d2d81612d07565b92915050565b612d3c81612bba565b8114612d4757600080fd5b50565b600081359050612d5981612d33565b92915050565b60008060408385031215612d7657612d75612d02565b5b6000612d8485828601612d1e565b9250506020612d9585828601612d4a565b9150509250929050565b600060208284031215612db557612db4612d02565b5b6000612dc384828501612d4a565b91505092915050565b6000602082019050612de16000830184612be5565b92915050565b6000819050919050565b612dfa81612de7565b82525050565b6000602082019050612e156000830184612df1565b92915050565b600060208284031215612e3157612e30612d02565b5b6000612e3f84828501612d1e565b91505092915050565b600060ff82169050919050565b612e5e81612e48565b82525050565b6000606082019050612e796000830186612bcc565b612e866020830185612e55565b612e936040830184612be5565b949350505050565b6000819050919050565b6000612ec0612ebb612eb684612b9a565b612e9b565b612b9a565b9050919050565b6000612ed282612ea5565b9050919050565b6000612ee482612ec7565b9050919050565b612ef481612ed9565b82525050565b6000602082019050612f0f6000830184612eeb565b92915050565b600081519050919050565b600082825260208201905092915050565b6000819050602082019050919050565b612f4a81612bba565b82525050565b612f5981612e48565b82525050565b612f6881612bdb565b82525050565b606082016000820151612f846000850182612f41565b506020820151612f976020850182612f50565b506040820151612faa6040850182612f5f565b50505050565b6000612fbc8383612f6e565b60608301905092915050565b6000602082019050919050565b6000612fe082612f15565b612fea8185612f20565b9350612ff583612f31565b8060005b8381101561302657815161300d8882612fb0565b975061301883612fc8565b925050600181019050612ff9565b5085935050505092915050565b6000608082019050818103600083015261304d8187612fd5565b905061305c6020830186612bcc565b6130696040830185612be5565b6130766060830184612cd8565b95945050505050565b600082825260208201905092915050565b7f616d6f756e74496e20706172616d206d7573742062652067726561746572207460008201527f68616e2030000000000000000000000000000000000000000000000000000000602082015250565b60006130ec60258361307f565b91506130f782613090565b604082019050919050565b6000602082019050818103600083015261311b816130df565b9050919050565b7f54686520746f6b656e20616464726573732063616e6e6f74206265206e756c6c600082015250565b600061315860208361307f565b915061316382613122565b602082019050919050565b600060208201905081810360008301526131878161314b565b9050919050565b60008151905061319d81612d07565b92915050565b6000602082840312156131b9576131b8612d02565b5b60006131c78482850161318e565b91505092915050565b7f4e487b7100000000000000000000000000000000000000000000000000000000600052601260045260246000fd5b7f4e487b7100000000000000000000000000000000000000000000000000000000600052601160045260246000fd5b600061323982612bdb565b915061324483612bdb565b925082613254576132536131d0565b5b828204905092915050565b600061326a82612bdb565b915061327583612bdb565b925082820390508181111561328d5761328c6131ff565b5b92915050565b60006040820190506132a86000830185612be5565b6132b56020830184612bcc565b9392505050565b7f57726f6e67207374657000000000000000000000000000000000000000000000600082015250565b60006132f2600a8361307f565b91506132fd826132bc565b602082019050919050565b60006020820190508181036000830152613321816132e5565b9050919050565b7f5468652073656c656374656420616464726573732063616e6e6f74206265206e60008201527f756c6c0000000000000000000000000000000000000000000000000000000000602082015250565b600061338460238361307f565b915061338f82613328565b604082019050919050565b600060208201905081810360008301526133b381613377565b9050919050565b60006060820190506133cf6000830186612bcc565b6133dc6020830185612bcc565b6133e96040830184612be5565b949350505050565b60008115159050919050565b613406816133f1565b811461341157600080fd5b50565b600081519050613423816133fd565b92915050565b60006020828403121561343f5761343e612d02565b5b600061344d84828501613414565b91505092915050565b600062ffffff82169050919050565b61346e81613456565b82525050565b61347d81612b9a565b82525050565b6101008201600082015161349a6000850182612f41565b5060208201516134ad6020850182612f41565b5060408201516134c06040850182613465565b5060608201516134d36060850182612f41565b5060808201516134e66080850182612f5f565b5060a08201516134f960a0850182612f5f565b5060c082015161350c60c0850182612f5f565b5060e082015161351f60e0850182613474565b50505050565b60006101008201905061353b6000830184613483565b92915050565b600069ffffffffffffffffffff82169050919050565b61356081613541565b811461356b57600080fd5b50565b60008151905061357d81613557565b92915050565b61358c81612de7565b811461359757600080fd5b50565b6000815190506135a981613583565b92915050565b600080600080600060a086880312156135cb576135ca612d02565b5b60006135d98882890161356e565b95505060206135ea8882890161359a565b94505060406135fb8882890161318e565b935050606061360c8882890161318e565b925050608061361d8882890161356e565b9150509295509295909350565b7f5468652066756e6374696f6e20697320616c726561647920696e2070726f677260008201527f6573730000000000000000000000000000000000000000000000000000000000602082015250565b600061368660238361307f565b91506136918261362a565b604082019050919050565b600060208201905081810360008301526136b581613679565b9050919050565b7f616d6f756e7420706172616d206d75737420626520677265617465722074686160008201527f6e20300000000000000000000000000000000000000000000000000000000000602082015250565b600061371860238361307f565b9150613723826136bc565b604082019050919050565b600060208201905081810360008301526137478161370b565b9050919050565b7f4e487b7100000000000000000000000000000000000000000000000000000000600052603260045260246000fd5b600061378882612bdb565b91507fffffffffffffffffffffffffffffffffffffffffffffffffffffffffffffffff82036137ba576137b96131ff565b5b600182019050919050565b60006137d082612bdb565b91506137db83612bdb565b92508282019050808211156137f3576137f26131ff565b5b92915050565b7f596f75206d757374207761697420746865206d696e696d756d206d6978696e6760008201527f206475726174696f6e2073657474656400000000000000000000000000000000602082015250565b600061385560308361307f565b9150613860826137f9565b604082019050919050565b6000602082019050818103600083015261388481613848565b9050919050565b7f546865206f757470757420616464726573732063616e6e6f74206265206e756c60008201527f6c00000000000000000000000000000000000000000000000000000000000000602082015250565b60006138e760218361307f565b91506138f28261388b565b604082019050919050565b60006020820190508181036000830152613916816138da565b9050919050565b7f54686520746f6b656e496e20616464726573732063616e6e6f74206265206e7560008201527f6c6c000000000000000000000000000000000000000000000000000000000000602082015250565b600061397960228361307f565b91506139848261391d565b604082019050919050565b600060208201905081810360008301526139a88161396c565b9050919050565b7f54686520746f6b656e4f757420616464726573732063616e6e6f74206265206e60008201527f756c6c0000000000000000000000000000000000000000000000000000000000602082015250565b6000613a0b60238361307f565b9150613a16826139af565b604082019050919050565b60006020820190508181036000830152613a3a816139fe565b9050919050565b7f6368616e6765537465702829206e6f7420706f737369626c6500000000000000600082015250565b6000613a7760198361307f565b9150613a8282613a41565b602082019050919050565b60006020820190508181036000830152613aa681613a6a565b9050919050565b6000604082019050613ac26000830185612cd8565b613acf6020830184612cd8565b9392505050565b606082016000820151613aec6000850182612f41565b506020820151613aff6020850182612f50565b506040820151613b126040850182612f5f565b50505050565b6000606082019050613b2d6000830184613ad6565b92915050565b7f54686520726563697069656e7420616464726573732063616e6e6f742062652060008201527f6e756c6c00000000000000000000000000000000000000000000000000000000602082015250565b6000613b8f60248361307f565b9150613b9a82613b33565b604082019050919050565b60006020820190508181036000830152613bbe81613b82565b905091905056fea2646970667358221220aa6400b8aa46404d0a35c8f6d99302afe4ed5d744bfe2392db778f17f4a70b8d64736f6c63430008120033",
  "immutableReferences": {
    "870": [
      {
        "length": 32,
        "start": 2811
      },
      {
        "length": 32,
        "start": 3125
      },
      {
        "length": 32,
        "start": 5455
      },
      {
        "length": 32,
        "start": 6734
      },
      {
        "length": 32,
        "start": 9127
      },
      {
        "length": 32,
        "start": 9421
      }
    ]
  },
  "source": "/// @notice SPDX-License-Identifier: MIT\n/// @title WORM HOLE CASH\n/// @author Peytavin Nicolas \n/// @notice Dapp for the final project of the ALYRA Blockchain Developer training\n/// @dev Use of OpenZe ppelin, CHainLink libraries\n/// @dev Interfaces Uniswap V3 SwapRouter, CHainLink AggregatorV3Interface, ERC20, WETH\n/// @custom:experimental This smart contract is experimental.\n\n\nimport \"@openzeppelin/contracts/security/ReentrancyGuard.sol\";\nimport \"@chainlink/contracts/src/v0.8/interfaces/AggregatorV3Interface.sol\";\nimport \"@openzeppelin/contracts/token/ERC20/utils/SafeERC20.sol\";\n\npragma solidity 0.8.18;\n    //------------------------------------------------------------------ INTERFACES\n// impport via SafeERC20 de openzeppelin\n/*interface IERC20 {\n    function transferFrom(address sender, address recipient, uint256 amount) external returns (bool);\n    function approve(address spender, uint256 amount) external returns (bool);\n    function balanceOf(address account) external view returns (uint256);\n    //function totalSupply() external view returns (uint256);\n    function transfer(address recipient, uint256 amount) external returns (bool);\n    function allowance(address owner, address spender) external view returns (uint256);\n}*/\n\ninterface IWETH {\n    function deposit() external payable;\n    function withdraw(uint wad) external;\n}\n\ninterface ISwapRouter {\n    struct ExactInputSingleParams {\n        address tokenIn;\n        address tokenOut;\n        uint24  fee;\n        address recipient;\n        uint256 deadline;\n        uint256 amountIn;\n        uint256 amountOutMinimum;\n        uint160 sqrtPriceLimitX96;\n    }\n    /// @notice Swaps `amountIn` of one token for as much as possible of another token\n    /// @param params The parameters necessary for the swap, encoded as `ExactInputSingleParams` in calldata\n    /// @return amountOut The amount of the received token\n    function exactInputSingle(ExactInputSingleParams calldata params) external payable returns (uint256 amountOut);\n}\n\ncontract WormHoleCash is ReentrancyGuard {\n    ISwapRouter public immutable swapRouter;\n    AggregatorV3Interface internal priceFeed;\n    /// @dev bollean against the reentrancy attack\n    bool private isInProgress;\n\n    //------------------------------------------------------------------ STRUCTURES\n    struct UserData {\n        TokenList[] tokenList;\n        address outputAddress;\n        uint depositStartTime;\n        Steps step;\n    }\n\n    struct TokenList {\n        address Token;\n        uint8 State; //1=selected 2=Swaped 3=BackSwaped 4=Error je pourais amliorer a en array ou struct ou enum\n        uint256 ethAmount; //Quantit d'ETH obtenue\n    }\n    \n    \n    mapping(address => UserData) private usersData;\n    mapping(address => Steps) private userSteps;\n\n    address public constant SwapRouterV3 = 0xE592427A0AEce92De3Edee1F18E0157C05861564;\n    address public constant WETH9 = 0xB4FBF271143F4FBf7B91A5ded31805e42b2208d6;\n    address public constant DAI = 0x11fE4B6AE13d2a6055C8D9cF65c55bac32B5d844;\n    address public constant LINK = 0x326C977E6efc84E512bB9C30f76E30c160eD06FB;\n\n    address public OuputAddress;\n    uint public mixingDuration = 1 minutes; // Only for Demo\n    uint256 public depositStartTime;\n    uint16 public constant poolFee = 3000; // frais de pool standard Uniswap  0.3%\n    TokenList[] public tokenList;\n    Steps public step;\n\n    enum Steps {\n        TokenSelection, // slection des token que l'on souhaite utiliser   \n        Settings,       // Address Output, choix ETH ou StableCOins, Duration, Antropie, nombre de adresse de sortie\n        Swap,           // Swap sur Uni\n        DepositMixer,   // Tornado Cash dpot\n        WithdrawMixer,  // Tornado Cash sortie\n        SwapBack,       // Swap vers Tokens\n        Done            // Enjoy\n    }\n\n    //------------------------------------------------------------------ EVENTS\n    /// @dev Event emitted when a step is changed for the user\n    event StepChanged( address indexed user, Steps previousStatus, Steps newStatus );\n\n    /// @dev Event emitted when a token is listed for the user\n    event TokenListed( address indexed user,TokenList tokenSelected);\n\n    /// @dev Event emitted when the output address is set for the user\n    event OutputAddressSet( address indexed user, address outputAddress );\n\n    /// @dev Event emitted when a token is swapped\n    event Swaped( address indexed user,uint256 amountIn, address _token);\n\n    /// @dev Event emitted when a token is deposited\n    event Deposited(address indexed user, uint256 amount, address _token);\n\n    /// @dev Event Emitted whe this Smart Contract reveive ETH\n    event Received(address, uint);\n \n    constructor() {\n        swapRouter = ISwapRouter(SwapRouterV3);\n        priceFeed = AggregatorV3Interface(  0xb4c4a493AB6356497713A78FFA6c60FB53517c63 );\n    }\n\n    //------------------------------------------------------------------ MODIFIERS\n    /// @dev Modifier to check to protect against reentrancy attacks\n    modifier WHC_ReentranceGuard {\n        require(!isInProgress, \"The function is already in progress\");\n        isInProgress = true;\n        _;\n        isInProgress = false;\n    }\n\n    //------------------------------------------------------------------ USER DATA\n    /// @notice Returns an array of informations for the given user\n    /// @return userTokenList The array of token information\n    /// @return userOutputAddress The address to send the tokens after mixing\n    /// @return userDepositStartTime The time at which the user started the deposit\n    /// @return userStep The current step of the user\n    function getUserData(address userAddress) public view returns (TokenList[] memory userTokenList, address userOutputAddress, uint userDepositStartTime, Steps userStep) {\n        UserData storage userData = usersData[userAddress];\n        userTokenList = userData.tokenList;\n        userOutputAddress = userData.outputAddress;\n        userDepositStartTime = userData.depositStartTime;\n        userStep = userData.step;\n    }\n\n    //------------------------------------------------------------------ SETTING\n    /// @notice Sets the output address for the given user\n    /// @param _outputAddress The address to send the tokens after mixing\n    function setOutputAddress(address _outputAddress) private WHC_ReentranceGuard{\n        require(_outputAddress != address(0), \"The recipient address cannot be null\");\n        usersData[msg.sender].outputAddress = _outputAddress;\n        emit OutputAddressSet(msg.sender, _outputAddress);\n    }\n\n    /// @notice Adds a token for the given user\n    /// @param _token The token address to add\n    function addToken(address _token) private WHC_ReentranceGuard {\n        require(_token != address(0), \"The token address cannot be null\");\n        TokenList memory newToken = TokenList(_token, 1,0);\n        usersData[msg.sender].tokenList.push(newToken);\n        emit TokenListed(msg.sender, newToken);\n    }\n\n    //------------------------------------------------------------------ UNISWAP\n    /// @notice Performs a swap between 2 tokens for the exact input single for the given user\n    /// @param _tokenIn The token to swap from\n    /// @param _tokenOut The token to swap to\n    /// @param amountIn The amount of the input token to swap\n    function swapExactInputSingle(uint256 amountIn, address _tokenIn, address _tokenOut) private WHC_ReentranceGuard{\n        require(amountIn > 0, \"amountIn param must be greater than 0\");\n        require(_tokenIn != address(0), \"The tokenIn address cannot be null\");\n        require(_tokenOut != address(0), \"The tokenOut address cannot be null\");\n        IERC20(_tokenIn).transferFrom(msg.sender, address(this), amountIn);// Transfert des tokens en question au smart contract ! Il faut penser  approve ce transfert avant lutilisation de cette fonction \n        IERC20(_tokenIn).approve(address(swapRouter), amountIn);  // autoriser uniswap  utiliser nos tokens\n        \n        ISwapRouter.ExactInputSingleParams memory params = //Creation des paramtres pour l'appel du swap\n            ISwapRouter.ExactInputSingleParams({\n                tokenIn: _tokenIn,\n                tokenOut: _tokenOut,\n                fee: poolFee,\n                recipient: address(this),\n                deadline: block.timestamp,\n                amountIn: amountIn,\n                amountOutMinimum: 0, // amountOutMinimum: _amountOutMinimum; getLatestPrice() de Chainlink pour eviter les frontruns\n                sqrtPriceLimitX96: 0\n            });\n        swapRouter.exactInputSingle(params);// Swap\n    }\n\n    // version sans le stockage des WETH Obtenu et Unwrap interne\n    /// @notice Swaps tokens for ETH for the given user\n    /// @param amountIn The amount of tokens to swap\n    /// @param _token The token to swap\n    function swapTokensForETH(uint256 amountIn, address _token) public { \n        require(amountIn > 0, \"amountIn param must be greater than 0\");\n        require(_token != address(0), \"The token address cannot be null\");\n        swapExactInputSingle(amountIn, _token, WETH9);\n        uint256 wethBalance = IERC20(WETH9).balanceOf(address(this)); \n\n        uint256 fees = wethBalance / 1000;\n        uint256 wethBalanceAfterfees = amountIn - fees;   // Fees for WHC 0.1% but unexploitable for the moment \n\n        //IERC20(WETH9).transferFrom(msg.sender, address(this), wethBalance);// Transfrer les WETH du msg.sender au contrat\n        IWETH(WETH9).withdraw(wethBalanceAfterfees);// Unwrap WETH du contrat\n        payable(msg.sender).transfer(wethBalanceAfterfees);// Renvoie les ETH unwraped au msg.sender\n        emit Swaped(msg.sender, amountIn, _token);\n    }\n\n    function swapTokenToWethToEthToWalletForDemo(uint256 amountIn, address _tokenIn) public { \n        IERC20(_tokenIn).transferFrom(msg.sender, address(this), amountIn);// Transfert des tokens en question au smart contract ! Il faut penser  approve ce transfert avant lutilisation de cette fonction \n        IERC20(_tokenIn).approve(address(swapRouter), amountIn);  // autoriser uniswap  utiliser nos tokens\n        ISwapRouter.ExactInputSingleParams memory params = //Creation des paramtres pour l'appel du swap\n            ISwapRouter.ExactInputSingleParams({\n                tokenIn: _tokenIn,\n                tokenOut: WETH9,\n                fee: poolFee,\n                recipient: address(this),\n                deadline: block.timestamp,\n                amountIn: amountIn,\n                amountOutMinimum: 0, \n                sqrtPriceLimitX96: 0\n            });\n        swapRouter.exactInputSingle(params);// Swap \n        uint256 wethBalance = IERC20(WETH9).balanceOf(address(this)); \n        IWETH(WETH9).withdraw(wethBalance);// Unwrap WETH du contrat\n        payable(msg.sender).transfer(wethBalance);// Renvoie les ETH unwraped au msg.sender\n    }\n\n\n    /// @notice Swaps ETH for tokens for the given user\n    /// @param amountIn The amount of ETH to swap\n    /// @param _token The token to swap \n    function swapETHForTokens(uint256 amountIn, address _token) public payable {\n        require(amountIn > 0, \"amountIn param must be greater than 0\");\n        require(_token != address(0), \"The token address cannot be null\");\n        uint256 WHCfees = amountIn / 1000;\n        uint256 amountAfterFees = amountIn - WHCfees; // 0.1% Fees for Worm Hole Cash, Non valable pour la Demo car les fond sont hors de ce contrat pour l'instant\n\n        //wrapETH(amountAfterFees);\n        IWETH(WETH9).deposit{value: amountAfterFees}();// Wrap ETH\n        //IERC20(WETH9).transfer(msg.sender, amountAfterFees);// Transfrer les WETH convertis au msg.sender\n        IERC20(WETH9).approve(address(swapRouter), amountIn); // Autoriser uniswap  utiliser nos tokens\n    \n        \n        swapExactInputSingle(amountAfterFees, WETH9, _token);\n\n        //if the user sends too much Ether to perform the swap, the excess Ether will be returned.\n        if (msg.value > amountAfterFees) {\n            payable(msg.sender).transfer(msg.value - amountAfterFees);\n        }\n        emit Swaped(msg.sender, amountIn, _token);\n    }\n\n    /**    function swapETHForTokens(uint256 amountIn, address _token) public payable {\n        require(amountIn > 0, \"amountIn param must be greater than 0\");\n        require(_token != address(0), \"The token address cannot be null\");\n        uint256 WHCfees = amountIn / 1000;\n        uint256 amountAfterFees = amountIn - WHCfees; // 0.1% Fees for Worm Hole Cash\n\n        //wrapETH(amountAfterFees);\n        IWETH(WETH9).deposit{value: amountAfterFees}();// Wrap ETH\n        IERC20(WETH9).transfer(msg.sender, amountAfterFees);// Transfrer les WETH convertis au msg.sender\n\n        address outputAddress = usersData[msg.sender].outputAddress;\n        swapExactInputSingle(amountAfterFees, WETH9, _token);\n\n        //if the user sends too much Ether to perform the swap, the excess Ether will be returned.\n        if (msg.value > amountAfterFees) {\n            payable(msg.sender).transfer(msg.value - amountAfterFees);\n        }\n        emit Swaped(msg.sender, amountIn, _token);\n    } */\n\n\n    //------------------------------------------------------------------ CHAIN LINK\n    /// @notice Returns the latest price of LINK/ETH\n    function getLatestPrice() public view returns (int) {\n        (,int price,,,) = priceFeed.latestRoundData();\n        return price;\n    }\n\n    //------------------------------------------------------------------ MIXER (This Smart contract for the Demo)\n    /// @notice Deposits converted tokens for the given user\n    /// @param amount The amount of tokens to deposit\n    /// @param _token The token to deposit\n    function depositConvertedTokens(uint256 amount, address _token) public WHC_ReentranceGuard{\n        require(amount > 0, \"amount param must be greater than 0\");\n        require(_token != address(0), \"The token address cannot be null\");\n        IERC20(_token).transferFrom(msg.sender, address(this), amount);\n\n        // MAJ TokenList pour stocker la quantit de tokens dposs\n        UserData storage user = usersData[msg.sender];\n        for (uint256 i = 0; i < user.tokenList.length; i++) {\n            if (user.tokenList[i].Token == _token) {\n                user.tokenList[i].ethAmount = amount;\n                user.tokenList[i].State = 2; // 2 = Swaped\n                break;\n            }\n        }\n        emit Deposited(msg.sender, amount, _token);\n    }\n\n    //------------------------------------------------------------------ WORKFLOW\n    /// @notice Changes the step for the given user\n    /// @param _from The current step\n    /// @param _to The next step\n    function changeStep(Steps _from, Steps _to) private {\n        require(userSteps[msg.sender] == _from, \"changeStep() not possible\");\n        userSteps[msg.sender] = _to;\n        emit StepChanged(msg.sender, _from, _to);\n    }\n\n    /// @notice Resets the data for the given user\n    /// @dev No restriction for Demo and Debug\n    function reset() public {\n        userSteps[msg.sender] = Steps.TokenSelection; \n        delete usersData[msg.sender].tokenList;\n        usersData[msg.sender].outputAddress = address(0);\n    }\n\n    /// @notice Returns the current step for the given user\n    function getCurrentStep() public view returns (Steps) {\n        return userSteps[msg.sender];\n    }\n\n    /// @notice Changes the step to token selection for the given user\n    /// @param _selectedAddress The address of the token to convert\n    function Selection(address _selectedAddress) public {\n        require( userSteps[msg.sender] == Steps.TokenSelection, \"Wrong step\" );\n        require(_selectedAddress != address(0), \"The selected address cannot be null\");\n        changeStep(Steps.TokenSelection, Steps.Settings);\n        addToken(_selectedAddress);\n    }\n\n    /// @notice Changes the step to settings for the given user\n    /// @param _outputAddress The address to send the converted tokens\n    function Settings(address _outputAddress) public {\n        require( userSteps[msg.sender] == Steps.Settings, \"Wrong step\" );\n        require(_outputAddress != address(0), \"The output address cannot be null\");\n        changeStep(Steps.Settings, Steps.Swap);\n        setOutputAddress(_outputAddress);\n    }\n\n    /// @notice Changes the step to swap for the given user\n    /// @param amountIn The amount of tokens to swap\n    /// @param _token The token to swap\n    function Swap(uint256 amountIn, address _token) public {\n        require( userSteps[msg.sender] == Steps.Swap, \"Wrong step\" );\n        require(_token != address(0), \"The token address cannot be null\");\n        require(amountIn > 0, \"amountIn param must be greater than 0\");\n        changeStep(Steps.Swap, Steps.DepositMixer);\n        swapTokensForETH(amountIn, _token);\n        emit Swaped( msg.sender, amountIn, _token);\n    }\n\n    function SwapDemo(uint256 amountIn, address _token) public {\n        require( userSteps[msg.sender] == Steps.Swap, \"Wrong step\" );\n        require(_token != address(0), \"The token address cannot be null\");\n        require(amountIn > 0, \"amountIn param must be greater than 0\");\n        changeStep(Steps.Swap, Steps.DepositMixer);\n        swapTokenToWethToEthToWalletForDemo(amountIn, _token);\n        emit Swaped( msg.sender, amountIn, _token);\n    }\n\n\n    /// @notice Changes the step to deposit mixer for the given user\n    function DepositMixer() public {\n        require( userSteps[msg.sender] == Steps.DepositMixer, \"Wrong step\" );\n        changeStep(Steps.DepositMixer, Steps.WithdrawMixer);\n        depositStartTime = block.timestamp;\n    }\n\n    /// @notice Changes the step to withdraw mixer for the given user\n    function WithdrawMixer() public {\n        require( userSteps[msg.sender] == Steps.WithdrawMixer, \"Wrong step\" );\n        address outputAddress = usersData[msg.sender].outputAddress; // not used for the moment \n        require(block.timestamp >= usersData[msg.sender].depositStartTime + mixingDuration, \"You must wait the minimum mixing duration setted\");\n        changeStep(Steps.WithdrawMixer, Steps.SwapBack);\n    }\n    \n    /// @notice Changes the step to swap back for the given user\n    /// @param amountIn The amount of tokens to swap back\n    /// @param _token The token to swap back\n    function SwapBack(uint256 amountIn, address _token) public {\n        require( userSteps[msg.sender] == Steps.SwapBack, \"Wrong step\" );\n        require(_token != address(0), \"The token address cannot be null\");\n        require(amountIn > 0, \"amountIn param must be greater than 0\");    \n        changeStep(Steps.SwapBack, Steps.Done);\n        swapETHForTokens(amountIn, _token);\n    }\n\n    /// @notice For Donation <3\n    receive() external payable {\n        emit Received(msg.sender, msg.value);\n    }\n    \n}",
  "sourcePath": "/Users/nicolas/Documents/VSC/WormHoleCash/truffle/contracts/WormHoleCash.sol",
  "compiler": {
    "name": "solc",
    "version": "0.8.18+commit.87f61d96.Emscripten.clang"
  },
  "schemaVersion": "3.4.11",
  "updatedAt": "2023-04-09T19:56:04.415Z",
  "networkType": "ethereum",
  "devdoc": {
    "events": {
      "Deposited(address,uint256,address)": {
        "details": "Event emitted when a token is deposited"
      },
      "OutputAddressSet(address,address)": {
        "details": "Event emitted when the output address is set for the user"
      },
      "Received(address,uint256)": {
        "details": "Event Emitted whe this Smart Contract reveive ETH"
      },
      "StepChanged(address,uint8,uint8)": {
        "details": "Event emitted when a step is changed for the user"
      },
      "Swaped(address,uint256,address)": {
        "details": "Event emitted when a token is swapped"
      },
      "TokenListed(address,(address,uint8,uint256))": {
        "details": "Event emitted when a token is listed for the user"
      }
    },
    "kind": "dev",
    "methods": {
      "Selection(address)": {
        "params": {
          "_selectedAddress": "The address of the token to convert"
        }
      },
      "Settings(address)": {
        "params": {
          "_outputAddress": "The address to send the converted tokens"
        }
      },
      "Swap(uint256,address)": {
        "params": {
          "_token": "The token to swap",
          "amountIn": "The amount of tokens to swap"
        }
      },
      "SwapBack(uint256,address)": {
        "params": {
          "_token": "The token to swap back",
          "amountIn": "The amount of tokens to swap back"
        }
      },
      "depositConvertedTokens(uint256,address)": {
        "params": {
          "_token": "The token to deposit",
          "amount": "The amount of tokens to deposit"
        }
      },
      "getUserData(address)": {
        "returns": {
          "userDepositStartTime": "The time at which the user started the deposit",
          "userOutputAddress": "The address to send the tokens after mixing",
          "userStep": "The current step of the user",
          "userTokenList": "The array of token information"
        }
      },
      "reset()": {
        "details": "No restriction for Demo and Debug"
      },
      "swapETHForTokens(uint256,address)": {
        "params": {
          "_token": "The token to swap ",
          "amountIn": "The amount of ETH to swap"
        }
      },
      "swapTokensForETH(uint256,address)": {
        "params": {
          "_token": "The token to swap",
          "amountIn": "The amount of tokens to swap"
        }
      }
    },
    "stateVariables": {
      "isInProgress": {
        "details": "bollean against the reentrancy attack"
      }
    },
    "version": 1
  },
  "userdoc": {
    "kind": "user",
    "methods": {
      "DepositMixer()": {
        "notice": "Changes the step to deposit mixer for the given user"
      },
      "Selection(address)": {
        "notice": "Changes the step to token selection for the given user"
      },
      "Settings(address)": {
        "notice": "Changes the step to settings for the given user"
      },
      "Swap(uint256,address)": {
        "notice": "Changes the step to swap for the given user"
      },
      "SwapBack(uint256,address)": {
        "notice": "Changes the step to swap back for the given user"
      },
      "WithdrawMixer()": {
        "notice": "Changes the step to withdraw mixer for the given user"
      },
      "depositConvertedTokens(uint256,address)": {
        "notice": "Deposits converted tokens for the given user"
      },
      "getCurrentStep()": {
        "notice": "Returns the current step for the given user"
      },
      "getLatestPrice()": {
        "notice": "Returns the latest price of LINK/ETH"
      },
      "getUserData(address)": {
        "notice": "Returns an array of informations for the given user"
      },
      "reset()": {
        "notice": "Resets the data for the given user"
      },
      "swapETHForTokens(uint256,address)": {
        "notice": "Swaps ETH for tokens for the given user"
      },
      "swapTokensForETH(uint256,address)": {
        "notice": "Swaps tokens for ETH for the given user"
      }
    },
    "version": 1
  }
}